{
  "_format": "hh-sol-artifact-1",
  "contractName": "Goals",
  "sourceName": "contracts/Goals.sol",
  "abi": [
    {
      "inputs": [
        {
          "internalType": "contract IERC20",
          "name": "_stakingToken",
          "type": "address"
        },
        {
          "internalType": "uint256",
          "name": "_granularity",
          "type": "uint256"
        }
      ],
      "stateMutability": "nonpayable",
      "type": "constructor"
    },
    {
      "anonymous": false,
      "inputs": [
        {
          "indexed": false,
          "internalType": "string",
          "name": "groupName",
          "type": "string"
        }
      ],
      "name": "GroupCreated",
      "type": "event"
    },
    {
      "anonymous": false,
      "inputs": [
        {
          "indexed": false,
          "internalType": "string",
          "name": "groupName",
          "type": "string"
        },
        {
          "indexed": false,
          "internalType": "address[]",
          "name": "eligible",
          "type": "address[]"
        }
      ],
      "name": "GroupDistributed",
      "type": "event"
    },
    {
      "anonymous": false,
      "inputs": [
        {
          "indexed": false,
          "internalType": "string",
          "name": "groupName",
          "type": "string"
        },
        {
          "indexed": false,
          "internalType": "address",
          "name": "member",
          "type": "address"
        }
      ],
      "name": "GroupJoined",
      "type": "event"
    },
    {
      "anonymous": false,
      "inputs": [
        {
          "indexed": false,
          "internalType": "string",
          "name": "groupName",
          "type": "string"
        },
        {
          "indexed": false,
          "internalType": "uint256",
          "name": "endTime",
          "type": "uint256"
        }
      ],
      "name": "GroupStarted",
      "type": "event"
    },
    {
      "anonymous": false,
      "inputs": [
        {
          "indexed": false,
          "internalType": "string",
          "name": "groupName",
          "type": "string"
        },
        {
          "indexed": false,
          "internalType": "address",
          "name": "member",
          "type": "address"
        },
        {
          "indexed": false,
          "internalType": "string",
          "name": "proof",
          "type": "string"
        }
      ],
      "name": "ProofSubmitted",
      "type": "event"
    },
    {
      "anonymous": false,
      "inputs": [
        {
          "indexed": false,
          "internalType": "string",
          "name": "groupName",
          "type": "string"
        },
        {
          "indexed": false,
          "internalType": "address",
          "name": "member",
          "type": "address"
        }
      ],
      "name": "VoteSubmitted",
      "type": "event"
    },
    {
      "inputs": [
        {
          "internalType": "string",
          "name": "_groupName",
          "type": "string"
        },
        {
          "internalType": "uint256",
          "name": "_durationDays",
          "type": "uint256"
        },
        {
          "internalType": "uint256",
          "name": "_amount",
          "type": "uint256"
        }
      ],
      "name": "createGroup",
      "outputs": [],
      "stateMutability": "nonpayable",
      "type": "function"
    },
    {
      "inputs": [
        {
          "internalType": "string",
          "name": "_groupName",
          "type": "string"
        }
      ],
      "name": "distribute",
      "outputs": [],
      "stateMutability": "nonpayable",
      "type": "function"
    },
    {
      "inputs": [
        {
          "internalType": "string",
          "name": "_groupName",
          "type": "string"
        }
      ],
      "name": "getGroupOwner",
      "outputs": [
        {
          "internalType": "address",
          "name": "",
          "type": "address"
        }
      ],
      "stateMutability": "view",
      "type": "function"
    },
    {
      "inputs": [
        {
          "internalType": "string",
          "name": "_groupName",
          "type": "string"
        },
        {
          "internalType": "uint256",
          "name": "_index",
          "type": "uint256"
        }
      ],
      "name": "getMemberOfGroupByIndex",
      "outputs": [
        {
          "components": [
            {
              "internalType": "address",
              "name": "source",
              "type": "address"
            },
            {
              "internalType": "string",
              "name": "goalTitle",
              "type": "string"
            },
            {
              "internalType": "string",
              "name": "goalDescription",
              "type": "string"
            },
            {
              "internalType": "uint256",
              "name": "stake",
              "type": "uint256"
            }
          ],
          "internalType": "struct Goals.Stake",
          "name": "",
          "type": "tuple"
        }
      ],
      "stateMutability": "view",
      "type": "function"
    },
    {
      "inputs": [
        {
          "internalType": "string",
          "name": "_groupName",
          "type": "string"
        }
      ],
      "name": "getMembers",
      "outputs": [
        {
          "components": [
            {
              "internalType": "address",
              "name": "source",
              "type": "address"
            },
            {
              "internalType": "string",
              "name": "goalTitle",
              "type": "string"
            },
            {
              "internalType": "string",
              "name": "goalDescription",
              "type": "string"
            },
            {
              "internalType": "uint256",
              "name": "stake",
              "type": "uint256"
            }
          ],
          "internalType": "struct Goals.Stake[]",
          "name": "",
          "type": "tuple[]"
        }
      ],
      "stateMutability": "view",
      "type": "function"
    },
    {
      "inputs": [
        {
          "internalType": "string",
          "name": "_groupName",
          "type": "string"
        }
      ],
      "name": "getProofs",
      "outputs": [
        {
          "components": [
            {
              "internalType": "address",
              "name": "source",
              "type": "address"
            },
            {
              "internalType": "string",
              "name": "proof",
              "type": "string"
            }
          ],
          "internalType": "struct Goals.Proof[]",
          "name": "",
          "type": "tuple[]"
        }
      ],
      "stateMutability": "view",
      "type": "function"
    },
    {
      "inputs": [
        {
          "internalType": "string",
          "name": "_groupName",
          "type": "string"
        }
      ],
      "name": "groupExists",
      "outputs": [
        {
          "internalType": "bool",
          "name": "",
          "type": "bool"
        }
      ],
      "stateMutability": "view",
      "type": "function"
    },
    {
      "inputs": [
        {
          "internalType": "string",
          "name": "",
          "type": "string"
        }
      ],
      "name": "groups",
      "outputs": [
        {
          "internalType": "string",
          "name": "groupName",
          "type": "string"
        },
        {
          "internalType": "uint256",
          "name": "durationDays",
          "type": "uint256"
        },
        {
          "internalType": "bool",
          "name": "isValue",
          "type": "bool"
        },
        {
          "internalType": "uint256",
          "name": "endTime",
          "type": "uint256"
        },
        {
          "internalType": "uint256",
          "name": "totalStake",
          "type": "uint256"
        },
        {
          "internalType": "uint256",
          "name": "baseAmount",
          "type": "uint256"
        },
        {
          "internalType": "address",
          "name": "groupOwner",
          "type": "address"
        },
        {
          "internalType": "int96",
          "name": "numberMembers",
          "type": "int96"
        },
        {
          "internalType": "int96",
          "name": "numberVotes",
          "type": "int96"
        }
      ],
      "stateMutability": "view",
      "type": "function"
    },
    {
      "inputs": [
        {
          "internalType": "string",
          "name": "_groupName",
          "type": "string"
        },
        {
          "internalType": "string",
          "name": "_goalTitle",
          "type": "string"
        },
        {
          "internalType": "string",
          "name": "_goalDescription",
          "type": "string"
        }
      ],
      "name": "joinGroup",
      "outputs": [],
      "stateMutability": "nonpayable",
      "type": "function"
    },
    {
      "inputs": [
        {
          "internalType": "string",
          "name": "_groupName",
          "type": "string"
        }
      ],
      "name": "start",
      "outputs": [],
      "stateMutability": "nonpayable",
      "type": "function"
    },
    {
      "inputs": [
        {
          "internalType": "string",
          "name": "_groupName",
          "type": "string"
        },
        {
          "internalType": "string",
          "name": "_proof",
          "type": "string"
        }
      ],
      "name": "submitProof",
      "outputs": [],
      "stateMutability": "nonpayable",
      "type": "function"
    },
    {
      "inputs": [
        {
          "internalType": "string",
          "name": "_groupName",
          "type": "string"
        },
        {
          "internalType": "address[]",
          "name": "_vetoAddresses",
          "type": "address[]"
        }
      ],
      "name": "submitVetos",
      "outputs": [],
      "stateMutability": "nonpayable",
      "type": "function"
    }
  ],
  "bytecode": "0x60806040523480156200001157600080fd5b5060405162003b7e38038062003b7e833981810160405281019062000037919062000140565b81600160006101000a81548173ffffffffffffffffffffffffffffffffffffffff021916908373ffffffffffffffffffffffffffffffffffffffff16021790555080600281905550505062000187565b600080fd5b600073ffffffffffffffffffffffffffffffffffffffff82169050919050565b6000620000b9826200008c565b9050919050565b6000620000cd82620000ac565b9050919050565b620000df81620000c0565b8114620000eb57600080fd5b50565b600081519050620000ff81620000d4565b92915050565b6000819050919050565b6200011a8162000105565b81146200012657600080fd5b50565b6000815190506200013a816200010f565b92915050565b600080604083850312156200015a576200015962000087565b5b60006200016a85828601620000ee565b92505060206200017d8582860162000129565b9150509250929050565b6139e780620001976000396000f3fe608060405234801561001057600080fd5b50600436106100b45760003560e01c806377e591fb1161007157806377e591fb14610191578063991782f2146101ad578063b4e334f8146101dd578063c32880fd1461020d578063cdd781e21461023d578063fa778f441461026d576100b4565b8063258e60b6146100b957806356250571146100d5578063605c967e146101055780636b52230b146101215780636d620a33146101595780636e01de3014610175575b600080fd5b6100d360048036038101906100ce91906121fe565b610289565b005b6100ef60048036038101906100ea91906121fe565b61045a565b6040516100fc9190612461565b60405180910390f35b61011f600480360381019061011a9190612483565b6106d5565b005b61013b60048036038101906101369190612634565b61090e565b6040516101509998979695949392919061271c565b60405180910390f35b610173600480360381019061016e91906127b0565b610a41565b005b61018f600480360381019061018a9190612890565b611104565b005b6101ab60048036038101906101a691906121fe565b6112d5565b005b6101c760048036038101906101c291906121fe565b611a32565b6040516101d49190612a03565b60405180910390f35b6101f760048036038101906101f29190612a25565b611c11565b6040516102049190612aef565b60405180910390f35b610227600480360381019061022291906121fe565b611e68565b6040516102349190612b11565b60405180910390f35b610257600480360381019061025291906121fe565b611f2a565b6040516102649190612b2c565b60405180910390f35b61028760048036038101906102829190612c36565b611f64565b005b81816000828260405161029d929190612ce2565b908152602001604051809103902060060160009054906101000a900473ffffffffffffffffffffffffffffffffffffffff1673ffffffffffffffffffffffffffffffffffffffff163373ffffffffffffffffffffffffffffffffffffffff161461033c576040517f08c379a000000000000000000000000000000000000000000000000000000000815260040161033390612d47565b60405180910390fd5b838360008282604051610350929190612ce2565b908152602001604051809103902060020160009054906101000a900460ff166103ae576040517f08c379a00000000000000000000000000000000000000000000000000000000081526004016103a590612db3565b60405180910390fd5b6000600254600088886040516103c5929190612ce2565b9081526020016040518091039020600101546103e19190612e02565b426103ec9190612e44565b90508060008888604051610401929190612ce2565b9081526020016040518091039020600301819055507f7e91cac5faa08a2bbcaaef70c65da452d7f73532d88ed580c107c08191db6fd087878360405161044993929190612ea5565b60405180910390a150505050505050565b6060828260008282604051610470929190612ce2565b908152602001604051809103902060020160009054906101000a900460ff166104ce576040517f08c379a00000000000000000000000000000000000000000000000000000000081526004016104c590612db3565b60405180910390fd5b600085856040516104e0929190612ce2565b9081526020016040518091039020600801805480602002602001604051908101604052809291908181526020016000905b828210156106c757838290600052602060002090600402016040518060800160405290816000820160009054906101000a900473ffffffffffffffffffffffffffffffffffffffff1673ffffffffffffffffffffffffffffffffffffffff1673ffffffffffffffffffffffffffffffffffffffff16815260200160018201805461059a90612f06565b80601f01602080910402602001604051908101604052809291908181526020018280546105c690612f06565b80156106135780601f106105e857610100808354040283529160200191610613565b820191906000526020600020905b8154815290600101906020018083116105f657829003601f168201915b5050505050815260200160028201805461062c90612f06565b80601f016020809104026020016040519081016040528092919081815260200182805461065890612f06565b80156106a55780601f1061067a576101008083540402835291602001916106a5565b820191906000526020600020905b81548152906001019060200180831161068857829003601f168201915b5050505050815260200160038201548152505081526020019060010190610511565b505050509250505092915050565b8383600082826040516106e9929190612ce2565b908152602001604051809103902060020160009054906101000a900460ff16610747576040517f08c379a000000000000000000000000000000000000000000000000000000000815260040161073e90612db3565b60405180910390fd5b60008686604051610759929190612ce2565b9081526020016040518091039020600301544211156107ad576040517f08c379a00000000000000000000000000000000000000000000000000000000081526004016107a490612f83565b60405180910390fd5b600086866040516107bf929190612ce2565b908152602001604051809103902060090160405180604001604052803373ffffffffffffffffffffffffffffffffffffffff16815260200186868080601f016020809104026020016040519081016040528093929190818152602001838380828437600081840152601f19601f82011690508083019250505050505050815250908060018154018082558091505060019003906000526020600020906002020160009091909190915060008201518160000160006101000a81548173ffffffffffffffffffffffffffffffffffffffff021916908373ffffffffffffffffffffffffffffffffffffffff16021790555060208201518160010190816108c4919061314f565b5050507f02c6188cd57a0b3c5f8159e25b2ff452afdf33041e0b4728fe1729828c400ed986863387876040516108fe959493929190613221565b60405180910390a1505050505050565b60008180516020810182018051848252602083016020850120818352809550505050505060009150905080600001805461094790612f06565b80601f016020809104026020016040519081016040528092919081815260200182805461097390612f06565b80156109c05780601f10610995576101008083540402835291602001916109c0565b820191906000526020600020905b8154815290600101906020018083116109a357829003601f168201915b5050505050908060010154908060020160009054906101000a900460ff16908060030154908060040154908060050154908060060160009054906101000a900473ffffffffffffffffffffffffffffffffffffffff16908060060160149054906101000a9004600b0b908060070160009054906101000a9004600b0b905089565b858560008282604051610a55929190612ce2565b908152602001604051809103902060020160009054906101000a900460ff16610ab3576040517f08c379a0000000000000000000000000000000000000000000000000000000008152600401610aaa90612db3565b60405180910390fd5b60008888604051610ac5929190612ce2565b908152602001604051809103902060020160009054906101000a900460ff16610b23576040517f08c379a0000000000000000000000000000000000000000000000000000000008152600401610b1a90612db3565b60405180910390fd5b60005b60008989604051610b38929190612ce2565b908152602001604051809103902060080180549050811015610c3b573373ffffffffffffffffffffffffffffffffffffffff1660008a8a604051610b7d929190612ce2565b90815260200160405180910390206008018281548110610ba057610b9f61326a565b5b906000526020600020906004020160000160009054906101000a900473ffffffffffffffffffffffffffffffffffffffff1673ffffffffffffffffffffffffffffffffffffffff1603610c28576040517f08c379a0000000000000000000000000000000000000000000000000000000008152600401610c1f906132e5565b60405180910390fd5b8080610c3390613305565b915050610b26565b5060008888604051610c4e929190612ce2565b908152602001604051809103902060080160405180608001604052803373ffffffffffffffffffffffffffffffffffffffff16815260200188888080601f016020809104026020016040519081016040528093929190818152602001838380828437600081840152601f19601f82011690508083019250505050505050815260200186868080601f016020809104026020016040519081016040528093929190818152602001838380828437600081840152601f19601f82011690508083019250505050505050815260200160008b8b604051610d2c929190612ce2565b908152602001604051809103902060050154815250908060018154018082558091505060019003906000526020600020906004020160009091909190915060008201518160000160006101000a81548173ffffffffffffffffffffffffffffffffffffffff021916908373ffffffffffffffffffffffffffffffffffffffff1602179055506020820151816001019081610dc6919061314f565b506040820151816002019081610ddc919061314f565b5060608201518160030155505060008888604051610dfb929190612ce2565b908152602001604051809103902060050154600160009054906101000a900473ffffffffffffffffffffffffffffffffffffffff1673ffffffffffffffffffffffffffffffffffffffff1663dd62ed3e33306040518363ffffffff1660e01b8152600401610e6a92919061334d565b602060405180830381865afa158015610e87573d6000803e3d6000fd5b505050506040513d601f19601f82011682018060405250810190610eab919061338b565b1015610eec576040517f08c379a0000000000000000000000000000000000000000000000000000000008152600401610ee390613404565b60405180910390fd5b600160009054906101000a900473ffffffffffffffffffffffffffffffffffffffff1673ffffffffffffffffffffffffffffffffffffffff166323b872dd333060008c8c604051610f3e929190612ce2565b9081526020016040518091039020600501546040518463ffffffff1660e01b8152600401610f6e93929190613424565b6020604051808303816000875af1158015610f8d573d6000803e3d6000fd5b505050506040513d601f19601f82011682018060405250810190610fb19190613487565b610ff0576040517f08c379a0000000000000000000000000000000000000000000000000000000008152600401610fe790613500565b60405180910390fd5b60008888604051611002929190612ce2565b9081526020016040518091039020600601601481819054906101000a9004600b0b8092919061103090613520565b91906101000a8154816bffffffffffffffffffffffff0219169083600b0b6bffffffffffffffffffffffff1602179055505060008888604051611074929190612ce2565b90815260200160405180910390206005015460008989604051611098929190612ce2565b908152602001604051809103902060040160008282546110b89190612e44565b925050819055507fa565c964821cebff69ed2469d1abe4b269a24aa9a0b0dbaec994b95eff553c468888336040516110f293929190613554565b60405180910390a15050505050505050565b60008484604051611116929190612ce2565b908152602001604051809103902060020160009054906101000a900460ff1615611175576040517f08c379a000000000000000000000000000000000000000000000000000000000815260040161116c906135d2565b60405180910390fd5b838360008686604051611189929190612ce2565b908152602001604051809103902060000191826111a79291906135fd565b5081600085856040516111bb929190612ce2565b9081526020016040518091039020600101819055506001600085856040516111e4929190612ce2565b908152602001604051809103902060020160006101000a81548160ff021916908315150217905550336000858560405161121f929190612ce2565b908152602001604051809103902060060160006101000a81548173ffffffffffffffffffffffffffffffffffffffff021916908373ffffffffffffffffffffffffffffffffffffffff1602179055508060008585604051611281929190612ce2565b9081526020016040518091039020600501819055507fb4082bf161f07af2ff5aed9b78e2cb1baf973ed4f2cc2e6e8e81a46752cc334584846040516112c79291906136cd565b60405180910390a150505050565b8181600082826040516112e9929190612ce2565b908152602001604051809103902060020160009054906101000a900460ff16611347576040517f08c379a000000000000000000000000000000000000000000000000000000000815260040161133e90612db3565b60405180910390fd5b600080858560405161135a929190612ce2565b908152602001604051809103902060030154036113ac576040517f08c379a00000000000000000000000000000000000000000000000000000000081526004016113a39061373d565b60405180910390fd5b42600085856040516113bf929190612ce2565b9081526020016040518091039020600301541115611412576040517f08c379a0000000000000000000000000000000000000000000000000000000008152600401611409906137a9565b60405180910390fd5b60008484604051611424929190612ce2565b908152602001604051809103902060070160009054906101000a9004600b0b600b0b60008585604051611458929190612ce2565b908152602001604051809103902060060160149054906101000a9004600b0b600b0b13156114bb576040517f08c379a00000000000000000000000000000000000000000000000000000000081526004016114b290613815565b60405180910390fd5b6000805b600086866040516114d1929190612ce2565b90815260200160405180910390206008018054905081101561161b576000808787604051611500929190612ce2565b908152602001604051809103902060080182815481106115235761152261326a565b5b906000526020600020906004020160000160009054906101000a900473ffffffffffffffffffffffffffffffffffffffff169050600060026000898960405161156d929190612ce2565b9081526020016040518091039020600a0160008473ffffffffffffffffffffffffffffffffffffffff1673ffffffffffffffffffffffffffffffffffffffff168152602001908152602001600020546115c69190612e02565b9050600088886040516115da929190612ce2565b908152602001604051809103902060080180549050811015611606576001846116039190612e44565b93505b5050808061161390613305565b9150506114bf565b5060008167ffffffffffffffff81111561163857611637612509565b5b6040519080825280602002602001820160405280156116665781602001602082028036833780820191505090505b5090506000805b6000888860405161167f929190612ce2565b9081526020016040518091039020600801805490508110156118175760008089896040516116ae929190612ce2565b908152602001604051809103902060080182815481106116d1576116d061326a565b5b906000526020600020906004020160000160009054906101000a900473ffffffffffffffffffffffffffffffffffffffff1690506000600260008b8b60405161171b929190612ce2565b9081526020016040518091039020600a0160008473ffffffffffffffffffffffffffffffffffffffff1673ffffffffffffffffffffffffffffffffffffffff168152602001908152602001600020546117749190612e02565b905060008a8a604051611788929190612ce2565b90815260200160405180910390206008018054905081101561180257818585815181106117b8576117b761326a565b5b602002602001019073ffffffffffffffffffffffffffffffffffffffff16908173ffffffffffffffffffffffffffffffffffffffff16815250506001846117ff9190612e44565b93505b5050808061180f90613305565b91505061166d565b506000808351826118289190613864565b905060005b84518110156119eb57600185516118449190613895565b810361190c57600160009054906101000a900473ffffffffffffffffffffffffffffffffffffffff1673ffffffffffffffffffffffffffffffffffffffff166323b872dd3087848151811061189c5761189b61326a565b5b6020026020010151866040518463ffffffff1660e01b81526004016118c393929190613424565b6020604051808303816000875af11580156118e2573d6000803e3d6000fd5b505050506040513d601f19601f820116820180604052508101906119069190613487565b506119ca565b600160009054906101000a900473ffffffffffffffffffffffffffffffffffffffff1673ffffffffffffffffffffffffffffffffffffffff166323b872dd3087848151811061195e5761195d61326a565b5b6020026020010151856040518463ffffffff1660e01b815260040161198593929190613424565b6020604051808303816000875af11580156119a4573d6000803e3d6000fd5b505050506040513d601f19601f820116820180604052508101906119c89190613487565b505b81836119d69190613895565b925080806119e390613305565b91505061182d565b507f6ef731bc401f8c1c7c1d45efe1031a96e3827e457aa5a9f9e030c89accbf1ad4898986604051611a1f93929190613978565b60405180910390a1505050505050505050565b6060828260008282604051611a48929190612ce2565b908152602001604051809103902060020160009054906101000a900460ff16611aa6576040517f08c379a0000000000000000000000000000000000000000000000000000000008152600401611a9d90612db3565b60405180910390fd5b60008585604051611ab8929190612ce2565b9081526020016040518091039020600901805480602002602001604051908101604052809291908181526020016000905b82821015611c0357838290600052602060002090600202016040518060400160405290816000820160009054906101000a900473ffffffffffffffffffffffffffffffffffffffff1673ffffffffffffffffffffffffffffffffffffffff1673ffffffffffffffffffffffffffffffffffffffff168152602001600182018054611b7290612f06565b80601f0160208091040260200160405190810160405280929190818152602001828054611b9e90612f06565b8015611beb5780601f10611bc057610100808354040283529160200191611beb565b820191906000526020600020905b815481529060010190602001808311611bce57829003601f168201915b50505050508152505081526020019060010190611ae9565b505050509250505092915050565b611c19612147565b838360008282604051611c2d929190612ce2565b908152602001604051809103902060020160009054906101000a900460ff16611c8b576040517f08c379a0000000000000000000000000000000000000000000000000000000008152600401611c8290612db3565b60405180910390fd5b60008686604051611c9d929190612ce2565b90815260200160405180910390206008018481548110611cc057611cbf61326a565b5b90600052602060002090600402016040518060800160405290816000820160009054906101000a900473ffffffffffffffffffffffffffffffffffffffff1673ffffffffffffffffffffffffffffffffffffffff1673ffffffffffffffffffffffffffffffffffffffff168152602001600182018054611d3f90612f06565b80601f0160208091040260200160405190810160405280929190818152602001828054611d6b90612f06565b8015611db85780601f10611d8d57610100808354040283529160200191611db8565b820191906000526020600020905b815481529060010190602001808311611d9b57829003601f168201915b50505050508152602001600282018054611dd190612f06565b80601f0160208091040260200160405190810160405280929190818152602001828054611dfd90612f06565b8015611e4a5780601f10611e1f57610100808354040283529160200191611e4a565b820191906000526020600020905b815481529060010190602001808311611e2d57829003601f168201915b50505050508152602001600382015481525050925050509392505050565b6000828260008282604051611e7e929190612ce2565b908152602001604051809103902060020160009054906101000a900460ff16611edc576040517f08c379a0000000000000000000000000000000000000000000000000000000008152600401611ed390612db3565b60405180910390fd5b60008585604051611eee929190612ce2565b908152602001604051809103902060060160009054906101000a900473ffffffffffffffffffffffffffffffffffffffff169250505092915050565b6000808383604051611f3d929190612ce2565b908152602001604051809103902060020160009054906101000a900460ff16905092915050565b828260008282604051611f78929190612ce2565b908152602001604051809103902060020160009054906101000a900460ff16611fd6576040517f08c379a0000000000000000000000000000000000000000000000000000000008152600401611fcd90612db3565b60405180910390fd5b6000835111156120935760005b835181101561209157600160008787604051612000929190612ce2565b9081526020016040518091039020600a0160008684815181106120265761202561326a565b5b602002602001015173ffffffffffffffffffffffffffffffffffffffff1673ffffffffffffffffffffffffffffffffffffffff16815260200190815260200160002060008282546120779190612e44565b92505081905550808061208990613305565b915050611fe3565b505b600085856040516120a5929190612ce2565b9081526020016040518091039020600701600081819054906101000a9004600b0b809291906120d390613520565b91906101000a8154816bffffffffffffffffffffffff0219169083600b0b6bffffffffffffffffffffffff160217905550507f7b96772c86a9be9298551262ba509e4a7b0c1cdf17c281c4c5f52fd3668fbe0f85853360405161213893929190613554565b60405180910390a15050505050565b6040518060800160405280600073ffffffffffffffffffffffffffffffffffffffff1681526020016060815260200160608152602001600081525090565b6000604051905090565b600080fd5b600080fd5b600080fd5b600080fd5b600080fd5b60008083601f8401126121be576121bd612199565b5b8235905067ffffffffffffffff8111156121db576121da61219e565b5b6020830191508360018202830111156121f7576121f66121a3565b5b9250929050565b600080602083850312156122155761221461218f565b5b600083013567ffffffffffffffff81111561223357612232612194565b5b61223f858286016121a8565b92509250509250929050565b600081519050919050565b600082825260208201905092915050565b6000819050602082019050919050565b600073ffffffffffffffffffffffffffffffffffffffff82169050919050565b60006122a282612277565b9050919050565b6122b281612297565b82525050565b600081519050919050565b600082825260208201905092915050565b60005b838110156122f25780820151818401526020810190506122d7565b60008484015250505050565b6000601f19601f8301169050919050565b600061231a826122b8565b61232481856122c3565b93506123348185602086016122d4565b61233d816122fe565b840191505092915050565b6000819050919050565b61235b81612348565b82525050565b600060808301600083015161237960008601826122a9565b5060208301518482036020860152612391828261230f565b915050604083015184820360408601526123ab828261230f565b91505060608301516123c06060860182612352565b508091505092915050565b60006123d78383612361565b905092915050565b6000602082019050919050565b60006123f78261224b565b6124018185612256565b93508360208202850161241385612267565b8060005b8581101561244f578484038952815161243085826123cb565b945061243b836123df565b925060208a01995050600181019050612417565b50829750879550505050505092915050565b6000602082019050818103600083015261247b81846123ec565b905092915050565b6000806000806040858703121561249d5761249c61218f565b5b600085013567ffffffffffffffff8111156124bb576124ba612194565b5b6124c7878288016121a8565b9450945050602085013567ffffffffffffffff8111156124ea576124e9612194565b5b6124f6878288016121a8565b925092505092959194509250565b600080fd5b7f4e487b7100000000000000000000000000000000000000000000000000000000600052604160045260246000fd5b612541826122fe565b810181811067ffffffffffffffff821117156125605761255f612509565b5b80604052505050565b6000612573612185565b905061257f8282612538565b919050565b600067ffffffffffffffff82111561259f5761259e612509565b5b6125a8826122fe565b9050602081019050919050565b82818337600083830152505050565b60006125d76125d284612584565b612569565b9050828152602081018484840111156125f3576125f2612504565b5b6125fe8482856125b5565b509392505050565b600082601f83011261261b5761261a612199565b5b813561262b8482602086016125c4565b91505092915050565b60006020828403121561264a5761264961218f565b5b600082013567ffffffffffffffff81111561266857612667612194565b5b61267484828501612606565b91505092915050565b600082825260208201905092915050565b6000612699826122b8565b6126a3818561267d565b93506126b38185602086016122d4565b6126bc816122fe565b840191505092915050565b6126d081612348565b82525050565b60008115159050919050565b6126eb816126d6565b82525050565b6126fa81612297565b82525050565b600081600b0b9050919050565b61271681612700565b82525050565b6000610120820190508181036000830152612737818c61268e565b9050612746602083018b6126c7565b612753604083018a6126e2565b61276060608301896126c7565b61276d60808301886126c7565b61277a60a08301876126c7565b61278760c08301866126f1565b61279460e083018561270d565b6127a261010083018461270d565b9a9950505050505050505050565b600080600080600080606087890312156127cd576127cc61218f565b5b600087013567ffffffffffffffff8111156127eb576127ea612194565b5b6127f789828a016121a8565b9650965050602087013567ffffffffffffffff81111561281a57612819612194565b5b61282689828a016121a8565b9450945050604087013567ffffffffffffffff81111561284957612848612194565b5b61285589828a016121a8565b92509250509295509295509295565b61286d81612348565b811461287857600080fd5b50565b60008135905061288a81612864565b92915050565b600080600080606085870312156128aa576128a961218f565b5b600085013567ffffffffffffffff8111156128c8576128c7612194565b5b6128d4878288016121a8565b945094505060206128e78782880161287b565b92505060406128f88782880161287b565b91505092959194509250565b600081519050919050565b600082825260208201905092915050565b6000819050602082019050919050565b600060408301600083015161294860008601826122a9565b5060208301518482036020860152612960828261230f565b9150508091505092915050565b60006129798383612930565b905092915050565b6000602082019050919050565b600061299982612904565b6129a3818561290f565b9350836020820285016129b585612920565b8060005b858110156129f157848403895281516129d2858261296d565b94506129dd83612981565b925060208a019950506001810190506129b9565b50829750879550505050505092915050565b60006020820190508181036000830152612a1d818461298e565b905092915050565b600080600060408486031215612a3e57612a3d61218f565b5b600084013567ffffffffffffffff811115612a5c57612a5b612194565b5b612a68868287016121a8565b93509350506020612a7b8682870161287b565b9150509250925092565b6000608083016000830151612a9d60008601826122a9565b5060208301518482036020860152612ab5828261230f565b91505060408301518482036040860152612acf828261230f565b9150506060830151612ae46060860182612352565b508091505092915050565b60006020820190508181036000830152612b098184612a85565b905092915050565b6000602082019050612b2660008301846126f1565b92915050565b6000602082019050612b4160008301846126e2565b92915050565b600067ffffffffffffffff821115612b6257612b61612509565b5b602082029050602081019050919050565b612b7c81612297565b8114612b8757600080fd5b50565b600081359050612b9981612b73565b92915050565b6000612bb2612bad84612b47565b612569565b90508083825260208201905060208402830185811115612bd557612bd46121a3565b5b835b81811015612bfe5780612bea8882612b8a565b845260208401935050602081019050612bd7565b5050509392505050565b600082601f830112612c1d57612c1c612199565b5b8135612c2d848260208601612b9f565b91505092915050565b600080600060408486031215612c4f57612c4e61218f565b5b600084013567ffffffffffffffff811115612c6d57612c6c612194565b5b612c79868287016121a8565b9350935050602084013567ffffffffffffffff811115612c9c57612c9b612194565b5b612ca886828701612c08565b9150509250925092565b600081905092915050565b6000612cc98385612cb2565b9350612cd68385846125b5565b82840190509392505050565b6000612cef828486612cbd565b91508190509392505050565b7f4f6e6c792067726f7570206f776e657200000000000000000000000000000000600082015250565b6000612d3160108361267d565b9150612d3c82612cfb565b602082019050919050565b60006020820190508181036000830152612d6081612d24565b9050919050565b7f47726f757020646f6573206e6f74206578697374000000000000000000000000600082015250565b6000612d9d60148361267d565b9150612da882612d67565b602082019050919050565b60006020820190508181036000830152612dcc81612d90565b9050919050565b7f4e487b7100000000000000000000000000000000000000000000000000000000600052601160045260246000fd5b6000612e0d82612348565b9150612e1883612348565b9250828202612e2681612348565b91508282048414831517612e3d57612e3c612dd3565b5b5092915050565b6000612e4f82612348565b9150612e5a83612348565b9250828201905080821115612e7257612e71612dd3565b5b92915050565b6000612e84838561267d565b9350612e918385846125b5565b612e9a836122fe565b840190509392505050565b60006040820190508181036000830152612ec0818587612e78565b9050612ecf60208301846126c7565b949350505050565b7f4e487b7100000000000000000000000000000000000000000000000000000000600052602260045260246000fd5b60006002820490506001821680612f1e57607f821691505b602082108103612f3157612f30612ed7565b5b50919050565b7f47726f7570206578706972656400000000000000000000000000000000000000600082015250565b6000612f6d600d8361267d565b9150612f7882612f37565b602082019050919050565b60006020820190508181036000830152612f9c81612f60565b9050919050565b60008190508160005260206000209050919050565b60006020601f8301049050919050565b600082821b905092915050565b6000600883026130057fffffffffffffffffffffffffffffffffffffffffffffffffffffffffffffffff82612fc8565b61300f8683612fc8565b95508019841693508086168417925050509392505050565b6000819050919050565b600061304c61304761304284612348565b613027565b612348565b9050919050565b6000819050919050565b61306683613031565b61307a61307282613053565b848454612fd5565b825550505050565b600090565b61308f613082565b61309a81848461305d565b505050565b5b818110156130be576130b3600082613087565b6001810190506130a0565b5050565b601f821115613103576130d481612fa3565b6130dd84612fb8565b810160208510156130ec578190505b6131006130f885612fb8565b83018261309f565b50505b505050565b600082821c905092915050565b600061312660001984600802613108565b1980831691505092915050565b600061313f8383613115565b9150826002028217905092915050565b613158826122b8565b67ffffffffffffffff81111561317157613170612509565b5b61317b8254612f06565b6131868282856130c2565b600060209050601f8311600181146131b957600084156131a7578287015190505b6131b18582613133565b865550613219565b601f1984166131c786612fa3565b60005b828110156131ef578489015182556001820191506020850194506020810190506131ca565b8683101561320c5784890151613208601f891682613115565b8355505b6001600288020188555050505b505050505050565b6000606082019050818103600083015261323c818789612e78565b905061324b60208301866126f1565b818103604083015261325e818486612e78565b90509695505050505050565b7f4e487b7100000000000000000000000000000000000000000000000000000000600052603260045260246000fd5b7f416c7265616479207374616b6564000000000000000000000000000000000000600082015250565b60006132cf600e8361267d565b91506132da82613299565b602082019050919050565b600060208201905081810360008301526132fe816132c2565b9050919050565b600061331082612348565b91507fffffffffffffffffffffffffffffffffffffffffffffffffffffffffffffffff820361334257613341612dd3565b5b600182019050919050565b600060408201905061336260008301856126f1565b61336f60208301846126f1565b9392505050565b60008151905061338581612864565b92915050565b6000602082840312156133a1576133a061218f565b5b60006133af84828501613376565b91505092915050565b7f455243323020616c6c6f77616e636520697320746f6f20736d616c6c00000000600082015250565b60006133ee601c8361267d565b91506133f9826133b8565b602082019050919050565b6000602082019050818103600083015261341d816133e1565b9050919050565b600060608201905061343960008301866126f1565b61344660208301856126f1565b61345360408301846126c7565b949350505050565b613464816126d6565b811461346f57600080fd5b50565b6000815190506134818161345b565b92915050565b60006020828403121561349d5761349c61218f565b5b60006134ab84828501613472565b91505092915050565b7f4552433230207472616e73666572206661696c65640000000000000000000000600082015250565b60006134ea60158361267d565b91506134f5826134b4565b602082019050919050565b60006020820190508181036000830152613519816134dd565b9050919050565b600061352b82612700565b91506b7fffffffffffffffffffffff820361354957613548612dd3565b5b600182019050919050565b6000604082019050818103600083015261356f818587612e78565b905061357e60208301846126f1565b949350505050565b7f47726f757020616c726561647920657869737473000000000000000000000000600082015250565b60006135bc60148361267d565b91506135c782613586565b602082019050919050565b600060208201905081810360008301526135eb816135af565b9050919050565b600082905092915050565b61360783836135f2565b67ffffffffffffffff8111156136205761361f612509565b5b61362a8254612f06565b6136358282856130c2565b6000601f8311600181146136645760008415613652578287013590505b61365c8582613133565b8655506136c4565b601f19841661367286612fa3565b60005b8281101561369a57848901358255600182019150602085019450602081019050613675565b868310156136b757848901356136b3601f891682613115565b8355505b6001600288020188555050505b50505050505050565b600060208201905081810360008301526136e8818486612e78565b90509392505050565b7f47726f757020776173206e6f7420737461727465640000000000000000000000600082015250565b600061372760158361267d565b9150613732826136f1565b602082019050919050565b600060208201905081810360008301526137568161371a565b9050919050565b7f47726f757020686173206e6f7420657870697265642079657400000000000000600082015250565b600061379360198361267d565b915061379e8261375d565b602082019050919050565b600060208201905081810360008301526137c281613786565b9050919050565b7f4e6f74206576657279626f64792068617320766f746564000000000000000000600082015250565b60006137ff60178361267d565b915061380a826137c9565b602082019050919050565b6000602082019050818103600083015261382e816137f2565b9050919050565b7f4e487b7100000000000000000000000000000000000000000000000000000000600052601260045260246000fd5b600061386f82612348565b915061387a83612348565b92508261388a57613889613835565b5b828204905092915050565b60006138a082612348565b91506138ab83612348565b92508282039050818111156138c3576138c2612dd3565b5b92915050565b600081519050919050565b600082825260208201905092915050565b6000819050602082019050919050565b600061390183836122a9565b60208301905092915050565b6000602082019050919050565b6000613925826138c9565b61392f81856138d4565b935061393a836138e5565b8060005b8381101561396b57815161395288826138f5565b975061395d8361390d565b92505060018101905061393e565b5085935050505092915050565b60006040820190508181036000830152613993818587612e78565b905081810360208301526139a7818461391a565b905094935050505056fea2646970667358221220e79fa08f99c790d068ce8aabd5786881694dddfac8eec4e9482b3c09e2a6f24a64736f6c63430008140033",
  "linkReferences": {},
  "deployedLinkReferences": {}
}