{
  "_format": "hh-sol-artifact-1",
  "contractName": "Goals",
  "sourceName": "contracts/Goals.sol",
  "abi": [
    {
      "inputs": [
        {
          "internalType": "contract IERC20",
          "name": "_stakingToken",
          "type": "address"
        },
        {
          "internalType": "uint256",
          "name": "_granularity",
          "type": "uint256"
        }
      ],
      "stateMutability": "nonpayable",
      "type": "constructor"
    },
    {
      "anonymous": false,
      "inputs": [
        {
          "indexed": false,
          "internalType": "string",
          "name": "groupName",
          "type": "string"
        }
      ],
      "name": "GroupCreated",
      "type": "event"
    },
    {
      "anonymous": false,
      "inputs": [
        {
          "indexed": false,
          "internalType": "string",
          "name": "groupName",
          "type": "string"
        },
        {
          "indexed": false,
          "internalType": "address[]",
          "name": "eligible",
          "type": "address[]"
        }
      ],
      "name": "GroupDistributed",
      "type": "event"
    },
    {
      "anonymous": false,
      "inputs": [
        {
          "indexed": false,
          "internalType": "string",
          "name": "groupName",
          "type": "string"
        },
        {
          "indexed": false,
          "internalType": "address",
          "name": "member",
          "type": "address"
        }
      ],
      "name": "GroupJoined",
      "type": "event"
    },
    {
      "anonymous": false,
      "inputs": [
        {
          "indexed": false,
          "internalType": "string",
          "name": "groupName",
          "type": "string"
        },
        {
          "indexed": false,
          "internalType": "uint256",
          "name": "endTime",
          "type": "uint256"
        }
      ],
      "name": "GroupStarted",
      "type": "event"
    },
    {
      "anonymous": false,
      "inputs": [
        {
          "indexed": false,
          "internalType": "string",
          "name": "groupName",
          "type": "string"
        },
        {
          "indexed": false,
          "internalType": "address",
          "name": "member",
          "type": "address"
        },
        {
          "indexed": false,
          "internalType": "string",
          "name": "proof",
          "type": "string"
        }
      ],
      "name": "ProofSubmitted",
      "type": "event"
    },
    {
      "anonymous": false,
      "inputs": [
        {
          "indexed": false,
          "internalType": "string",
          "name": "groupName",
          "type": "string"
        },
        {
          "indexed": false,
          "internalType": "address",
          "name": "member",
          "type": "address"
        }
      ],
      "name": "VoteSubmitted",
      "type": "event"
    },
    {
      "inputs": [
        {
          "internalType": "string",
          "name": "_groupName",
          "type": "string"
        },
        {
          "internalType": "uint256",
          "name": "_durationDays",
          "type": "uint256"
        },
        {
          "internalType": "uint256",
          "name": "_amount",
          "type": "uint256"
        }
      ],
      "name": "createGroup",
      "outputs": [],
      "stateMutability": "nonpayable",
      "type": "function"
    },
    {
      "inputs": [
        {
          "internalType": "string",
          "name": "_groupName",
          "type": "string"
        }
      ],
      "name": "distribute",
      "outputs": [],
      "stateMutability": "nonpayable",
      "type": "function"
    },
    {
      "inputs": [
        {
          "internalType": "string",
          "name": "_groupName",
          "type": "string"
        }
      ],
      "name": "getGroupOwner",
      "outputs": [
        {
          "internalType": "address",
          "name": "",
          "type": "address"
        }
      ],
      "stateMutability": "view",
      "type": "function"
    },
    {
      "inputs": [
        {
          "internalType": "string",
          "name": "_groupName",
          "type": "string"
        }
      ],
      "name": "getMembers",
      "outputs": [
        {
          "internalType": "address[]",
          "name": "",
          "type": "address[]"
        }
      ],
      "stateMutability": "view",
      "type": "function"
    },
    {
      "inputs": [
        {
          "internalType": "string",
          "name": "_groupName",
          "type": "string"
        }
      ],
      "name": "getProofs",
      "outputs": [
        {
          "components": [
            {
              "internalType": "address",
              "name": "source",
              "type": "address"
            },
            {
              "internalType": "string",
              "name": "proof",
              "type": "string"
            }
          ],
          "internalType": "struct Goals.Proof[]",
          "name": "",
          "type": "tuple[]"
        }
      ],
      "stateMutability": "view",
      "type": "function"
    },
    {
      "inputs": [
        {
          "internalType": "string",
          "name": "_groupName",
          "type": "string"
        }
      ],
      "name": "groupExists",
      "outputs": [
        {
          "internalType": "bool",
          "name": "",
          "type": "bool"
        }
      ],
      "stateMutability": "view",
      "type": "function"
    },
    {
      "inputs": [
        {
          "internalType": "string",
          "name": "",
          "type": "string"
        }
      ],
      "name": "groups",
      "outputs": [
        {
          "internalType": "string",
          "name": "groupName",
          "type": "string"
        },
        {
          "internalType": "uint256",
          "name": "durationDays",
          "type": "uint256"
        },
        {
          "internalType": "bool",
          "name": "isValue",
          "type": "bool"
        },
        {
          "internalType": "uint256",
          "name": "endTime",
          "type": "uint256"
        },
        {
          "internalType": "uint256",
          "name": "totalStake",
          "type": "uint256"
        },
        {
          "internalType": "uint256",
          "name": "baseAmount",
          "type": "uint256"
        },
        {
          "internalType": "address",
          "name": "groupOwner",
          "type": "address"
        },
        {
          "internalType": "int96",
          "name": "numberMembers",
          "type": "int96"
        },
        {
          "internalType": "int96",
          "name": "numberVotes",
          "type": "int96"
        }
      ],
      "stateMutability": "view",
      "type": "function"
    },
    {
      "inputs": [
        {
          "internalType": "string",
          "name": "_groupName",
          "type": "string"
        },
        {
          "internalType": "string",
          "name": "_goalTitle",
          "type": "string"
        },
        {
          "internalType": "string",
          "name": "_goalDescription",
          "type": "string"
        }
      ],
      "name": "joinGroup",
      "outputs": [],
      "stateMutability": "nonpayable",
      "type": "function"
    },
    {
      "inputs": [
        {
          "internalType": "string",
          "name": "_groupName",
          "type": "string"
        }
      ],
      "name": "start",
      "outputs": [],
      "stateMutability": "nonpayable",
      "type": "function"
    },
    {
      "inputs": [
        {
          "internalType": "string",
          "name": "_groupName",
          "type": "string"
        },
        {
          "internalType": "string",
          "name": "_proof",
          "type": "string"
        }
      ],
      "name": "submitProof",
      "outputs": [],
      "stateMutability": "nonpayable",
      "type": "function"
    },
    {
      "inputs": [
        {
          "internalType": "string",
          "name": "_groupName",
          "type": "string"
        },
        {
          "internalType": "address[]",
          "name": "_vetoAddresses",
          "type": "address[]"
        }
      ],
      "name": "submitVetos",
      "outputs": [],
      "stateMutability": "nonpayable",
      "type": "function"
    }
  ],
  "bytecode": "0x60806040523480156200001157600080fd5b50604051620035f7380380620035f7833981810160405281019062000037919062000140565b81600160006101000a81548173ffffffffffffffffffffffffffffffffffffffff021916908373ffffffffffffffffffffffffffffffffffffffff16021790555080600281905550505062000187565b600080fd5b600073ffffffffffffffffffffffffffffffffffffffff82169050919050565b6000620000b9826200008c565b9050919050565b6000620000cd82620000ac565b9050919050565b620000df81620000c0565b8114620000eb57600080fd5b50565b600081519050620000ff81620000d4565b92915050565b6000819050919050565b6200011a8162000105565b81146200012657600080fd5b50565b6000815190506200013a816200010f565b92915050565b600080604083850312156200015a576200015962000087565b5b60006200016a85828601620000ee565b92505060206200017d8582860162000129565b9150509250929050565b61346080620001976000396000f3fe608060405234801561001057600080fd5b50600436106100a95760003560e01c80636e01de30116100715780636e01de301461016a57806377e591fb14610186578063991782f2146101a2578063c32880fd146101d2578063cdd781e214610202578063fa778f4414610232576100a9565b8063258e60b6146100ae57806356250571146100ca578063605c967e146100fa5780636b52230b146101165780636d620a331461014e575b600080fd5b6100c860048036038101906100c39190611e9e565b61024e565b005b6100e460048036038101906100df9190611e9e565b61041f565b6040516100f19190611fdb565b60405180910390f35b610114600480360381019061010f9190611ffd565b61060a565b005b610130600480360381019061012b91906121bf565b610843565b604051610145999897969594939291906122e6565b60405180910390f35b6101686004803603810190610163919061237a565b610976565b005b610184600480360381019061017f919061245a565b611039565b005b6101a0600480360381019061019b9190611e9e565b61120a565b005b6101bc60048036038101906101b79190611e9e565b611967565b6040516101c99190612617565b60405180910390f35b6101ec60048036038101906101e79190611e9e565b611b46565b6040516101f99190612639565b60405180910390f35b61021c60048036038101906102179190611e9e565b611c08565b6040516102299190612654565b60405180910390f35b61024c6004803603810190610247919061275e565b611c42565b005b81816000828260405161026292919061280a565b908152602001604051809103902060060160009054906101000a900473ffffffffffffffffffffffffffffffffffffffff1673ffffffffffffffffffffffffffffffffffffffff163373ffffffffffffffffffffffffffffffffffffffff1614610301576040517f08c379a00000000000000000000000000000000000000000000000000000000081526004016102f89061286f565b60405180910390fd5b83836000828260405161031592919061280a565b908152602001604051809103902060020160009054906101000a900460ff16610373576040517f08c379a000000000000000000000000000000000000000000000000000000000815260040161036a906128db565b60405180910390fd5b60006002546000888860405161038a92919061280a565b9081526020016040518091039020600101546103a6919061292a565b426103b1919061296c565b905080600088886040516103c692919061280a565b9081526020016040518091039020600301819055507f7e91cac5faa08a2bbcaaef70c65da452d7f73532d88ed580c107c08191db6fd087878360405161040e939291906129cd565b60405180910390a150505050505050565b606082826000828260405161043592919061280a565b908152602001604051809103902060020160009054906101000a900460ff16610493576040517f08c379a000000000000000000000000000000000000000000000000000000000815260040161048a906128db565b60405180910390fd5b60008086866040516104a692919061280a565b90815260200160405180910390206008018054905067ffffffffffffffff8111156104d4576104d3612094565b5b6040519080825280602002602001820160405280156105025781602001602082028036833780820191505090505b50905060005b6000878760405161051a92919061280a565b9081526020016040518091039020600801805490508110156105fd576000878760405161054892919061280a565b9081526020016040518091039020600801818154811061056b5761056a6129ff565b5b906000526020600020906004020160000160009054906101000a900473ffffffffffffffffffffffffffffffffffffffff168282815181106105b0576105af6129ff565b5b602002602001019073ffffffffffffffffffffffffffffffffffffffff16908173ffffffffffffffffffffffffffffffffffffffff168152505080806105f590612a2e565b915050610508565b5080935050505092915050565b83836000828260405161061e92919061280a565b908152602001604051809103902060020160009054906101000a900460ff1661067c576040517f08c379a0000000000000000000000000000000000000000000000000000000008152600401610673906128db565b60405180910390fd5b6000868660405161068e92919061280a565b9081526020016040518091039020600301544211156106e2576040517f08c379a00000000000000000000000000000000000000000000000000000000081526004016106d990612ac2565b60405180910390fd5b600086866040516106f492919061280a565b908152602001604051809103902060090160405180604001604052803373ffffffffffffffffffffffffffffffffffffffff16815260200186868080601f016020809104026020016040519081016040528093929190818152602001838380828437600081840152601f19601f82011690508083019250505050505050815250908060018154018082558091505060019003906000526020600020906002020160009091909190915060008201518160000160006101000a81548173ffffffffffffffffffffffffffffffffffffffff021916908373ffffffffffffffffffffffffffffffffffffffff16021790555060208201518160010190816107f99190612cee565b5050507f02c6188cd57a0b3c5f8159e25b2ff452afdf33041e0b4728fe1729828c400ed98686338787604051610833959493929190612dc0565b60405180910390a1505050505050565b60008180516020810182018051848252602083016020850120818352809550505050505060009150905080600001805461087c90612b11565b80601f01602080910402602001604051908101604052809291908181526020018280546108a890612b11565b80156108f55780601f106108ca576101008083540402835291602001916108f5565b820191906000526020600020905b8154815290600101906020018083116108d857829003601f168201915b5050505050908060010154908060020160009054906101000a900460ff16908060030154908060040154908060050154908060060160009054906101000a900473ffffffffffffffffffffffffffffffffffffffff16908060060160149054906101000a9004600b0b908060070160009054906101000a9004600b0b905089565b85856000828260405161098a92919061280a565b908152602001604051809103902060020160009054906101000a900460ff166109e8576040517f08c379a00000000000000000000000000000000000000000000000000000000081526004016109df906128db565b60405180910390fd5b600088886040516109fa92919061280a565b908152602001604051809103902060020160009054906101000a900460ff16610a58576040517f08c379a0000000000000000000000000000000000000000000000000000000008152600401610a4f906128db565b60405180910390fd5b60005b60008989604051610a6d92919061280a565b908152602001604051809103902060080180549050811015610b70573373ffffffffffffffffffffffffffffffffffffffff1660008a8a604051610ab292919061280a565b90815260200160405180910390206008018281548110610ad557610ad46129ff565b5b906000526020600020906004020160000160009054906101000a900473ffffffffffffffffffffffffffffffffffffffff1673ffffffffffffffffffffffffffffffffffffffff1603610b5d576040517f08c379a0000000000000000000000000000000000000000000000000000000008152600401610b5490612e55565b60405180910390fd5b8080610b6890612a2e565b915050610a5b565b5060008888604051610b8392919061280a565b908152602001604051809103902060080160405180608001604052803373ffffffffffffffffffffffffffffffffffffffff16815260200188888080601f016020809104026020016040519081016040528093929190818152602001838380828437600081840152601f19601f82011690508083019250505050505050815260200186868080601f016020809104026020016040519081016040528093929190818152602001838380828437600081840152601f19601f82011690508083019250505050505050815260200160008b8b604051610c6192919061280a565b908152602001604051809103902060050154815250908060018154018082558091505060019003906000526020600020906004020160009091909190915060008201518160000160006101000a81548173ffffffffffffffffffffffffffffffffffffffff021916908373ffffffffffffffffffffffffffffffffffffffff1602179055506020820151816001019081610cfb9190612cee565b506040820151816002019081610d119190612cee565b5060608201518160030155505060008888604051610d3092919061280a565b908152602001604051809103902060050154600160009054906101000a900473ffffffffffffffffffffffffffffffffffffffff1673ffffffffffffffffffffffffffffffffffffffff1663dd62ed3e33306040518363ffffffff1660e01b8152600401610d9f929190612e75565b602060405180830381865afa158015610dbc573d6000803e3d6000fd5b505050506040513d601f19601f82011682018060405250810190610de09190612eb3565b1015610e21576040517f08c379a0000000000000000000000000000000000000000000000000000000008152600401610e1890612f2c565b60405180910390fd5b600160009054906101000a900473ffffffffffffffffffffffffffffffffffffffff1673ffffffffffffffffffffffffffffffffffffffff166323b872dd333060008c8c604051610e7392919061280a565b9081526020016040518091039020600501546040518463ffffffff1660e01b8152600401610ea393929190612f4c565b6020604051808303816000875af1158015610ec2573d6000803e3d6000fd5b505050506040513d601f19601f82011682018060405250810190610ee69190612faf565b610f25576040517f08c379a0000000000000000000000000000000000000000000000000000000008152600401610f1c90613028565b60405180910390fd5b60008888604051610f3792919061280a565b9081526020016040518091039020600601601481819054906101000a9004600b0b80929190610f6590613048565b91906101000a8154816bffffffffffffffffffffffff0219169083600b0b6bffffffffffffffffffffffff1602179055505060008888604051610fa992919061280a565b90815260200160405180910390206005015460008989604051610fcd92919061280a565b90815260200160405180910390206004016000828254610fed919061296c565b925050819055507fa565c964821cebff69ed2469d1abe4b269a24aa9a0b0dbaec994b95eff553c468888336040516110279392919061307c565b60405180910390a15050505050505050565b6000848460405161104b92919061280a565b908152602001604051809103902060020160009054906101000a900460ff16156110aa576040517f08c379a00000000000000000000000000000000000000000000000000000000081526004016110a1906130fa565b60405180910390fd5b8383600086866040516110be92919061280a565b908152602001604051809103902060000191826110dc929190613125565b5081600085856040516110f092919061280a565b90815260200160405180910390206001018190555060016000858560405161111992919061280a565b908152602001604051809103902060020160006101000a81548160ff021916908315150217905550336000858560405161115492919061280a565b908152602001604051809103902060060160006101000a81548173ffffffffffffffffffffffffffffffffffffffff021916908373ffffffffffffffffffffffffffffffffffffffff16021790555080600085856040516111b692919061280a565b9081526020016040518091039020600501819055507fb4082bf161f07af2ff5aed9b78e2cb1baf973ed4f2cc2e6e8e81a46752cc334584846040516111fc9291906131f5565b60405180910390a150505050565b81816000828260405161121e92919061280a565b908152602001604051809103902060020160009054906101000a900460ff1661127c576040517f08c379a0000000000000000000000000000000000000000000000000000000008152600401611273906128db565b60405180910390fd5b600080858560405161128f92919061280a565b908152602001604051809103902060030154036112e1576040517f08c379a00000000000000000000000000000000000000000000000000000000081526004016112d890613265565b60405180910390fd5b42600085856040516112f492919061280a565b9081526020016040518091039020600301541115611347576040517f08c379a000000000000000000000000000000000000000000000000000000000815260040161133e906132d1565b60405180910390fd5b6000848460405161135992919061280a565b908152602001604051809103902060070160009054906101000a9004600b0b600b0b6000858560405161138d92919061280a565b908152602001604051809103902060060160149054906101000a9004600b0b600b0b13156113f0576040517f08c379a00000000000000000000000000000000000000000000000000000000081526004016113e79061333d565b60405180910390fd5b6000805b6000868660405161140692919061280a565b90815260200160405180910390206008018054905081101561155057600080878760405161143592919061280a565b90815260200160405180910390206008018281548110611458576114576129ff565b5b906000526020600020906004020160000160009054906101000a900473ffffffffffffffffffffffffffffffffffffffff16905060006002600089896040516114a292919061280a565b9081526020016040518091039020600a0160008473ffffffffffffffffffffffffffffffffffffffff1673ffffffffffffffffffffffffffffffffffffffff168152602001908152602001600020546114fb919061292a565b90506000888860405161150f92919061280a565b90815260200160405180910390206008018054905081101561153b57600184611538919061296c565b93505b5050808061154890612a2e565b9150506113f4565b5060008167ffffffffffffffff81111561156d5761156c612094565b5b60405190808252806020026020018201604052801561159b5781602001602082028036833780820191505090505b5090506000805b600088886040516115b492919061280a565b90815260200160405180910390206008018054905081101561174c5760008089896040516115e392919061280a565b90815260200160405180910390206008018281548110611606576116056129ff565b5b906000526020600020906004020160000160009054906101000a900473ffffffffffffffffffffffffffffffffffffffff1690506000600260008b8b60405161165092919061280a565b9081526020016040518091039020600a0160008473ffffffffffffffffffffffffffffffffffffffff1673ffffffffffffffffffffffffffffffffffffffff168152602001908152602001600020546116a9919061292a565b905060008a8a6040516116bd92919061280a565b90815260200160405180910390206008018054905081101561173757818585815181106116ed576116ec6129ff565b5b602002602001019073ffffffffffffffffffffffffffffffffffffffff16908173ffffffffffffffffffffffffffffffffffffffff1681525050600184611734919061296c565b93505b5050808061174490612a2e565b9150506115a2565b5060008083518261175d919061338c565b905060005b8451811015611920576001855161177991906133bd565b810361184157600160009054906101000a900473ffffffffffffffffffffffffffffffffffffffff1673ffffffffffffffffffffffffffffffffffffffff166323b872dd308784815181106117d1576117d06129ff565b5b6020026020010151866040518463ffffffff1660e01b81526004016117f893929190612f4c565b6020604051808303816000875af1158015611817573d6000803e3d6000fd5b505050506040513d601f19601f8201168201806040525081019061183b9190612faf565b506118ff565b600160009054906101000a900473ffffffffffffffffffffffffffffffffffffffff1673ffffffffffffffffffffffffffffffffffffffff166323b872dd30878481518110611893576118926129ff565b5b6020026020010151856040518463ffffffff1660e01b81526004016118ba93929190612f4c565b6020604051808303816000875af11580156118d9573d6000803e3d6000fd5b505050506040513d601f19601f820116820180604052508101906118fd9190612faf565b505b818361190b91906133bd565b9250808061191890612a2e565b915050611762565b507f6ef731bc401f8c1c7c1d45efe1031a96e3827e457aa5a9f9e030c89accbf1ad4898986604051611954939291906133f1565b60405180910390a1505050505050505050565b606082826000828260405161197d92919061280a565b908152602001604051809103902060020160009054906101000a900460ff166119db576040517f08c379a00000000000000000000000000000000000000000000000000000000081526004016119d2906128db565b60405180910390fd5b600085856040516119ed92919061280a565b9081526020016040518091039020600901805480602002602001604051908101604052809291908181526020016000905b82821015611b3857838290600052602060002090600202016040518060400160405290816000820160009054906101000a900473ffffffffffffffffffffffffffffffffffffffff1673ffffffffffffffffffffffffffffffffffffffff1673ffffffffffffffffffffffffffffffffffffffff168152602001600182018054611aa790612b11565b80601f0160208091040260200160405190810160405280929190818152602001828054611ad390612b11565b8015611b205780601f10611af557610100808354040283529160200191611b20565b820191906000526020600020905b815481529060010190602001808311611b0357829003601f168201915b50505050508152505081526020019060010190611a1e565b505050509250505092915050565b6000828260008282604051611b5c92919061280a565b908152602001604051809103902060020160009054906101000a900460ff16611bba576040517f08c379a0000000000000000000000000000000000000000000000000000000008152600401611bb1906128db565b60405180910390fd5b60008585604051611bcc92919061280a565b908152602001604051809103902060060160009054906101000a900473ffffffffffffffffffffffffffffffffffffffff169250505092915050565b6000808383604051611c1b92919061280a565b908152602001604051809103902060020160009054906101000a900460ff16905092915050565b828260008282604051611c5692919061280a565b908152602001604051809103902060020160009054906101000a900460ff16611cb4576040517f08c379a0000000000000000000000000000000000000000000000000000000008152600401611cab906128db565b60405180910390fd5b600083511115611d715760005b8351811015611d6f57600160008787604051611cde92919061280a565b9081526020016040518091039020600a016000868481518110611d0457611d036129ff565b5b602002602001015173ffffffffffffffffffffffffffffffffffffffff1673ffffffffffffffffffffffffffffffffffffffff1681526020019081526020016000206000828254611d55919061296c565b925050819055508080611d6790612a2e565b915050611cc1565b505b60008585604051611d8392919061280a565b9081526020016040518091039020600701600081819054906101000a9004600b0b80929190611db190613048565b91906101000a8154816bffffffffffffffffffffffff0219169083600b0b6bffffffffffffffffffffffff160217905550507f7b96772c86a9be9298551262ba509e4a7b0c1cdf17c281c4c5f52fd3668fbe0f858533604051611e169392919061307c565b60405180910390a15050505050565b6000604051905090565b600080fd5b600080fd5b600080fd5b600080fd5b600080fd5b60008083601f840112611e5e57611e5d611e39565b5b8235905067ffffffffffffffff811115611e7b57611e7a611e3e565b5b602083019150836001820283011115611e9757611e96611e43565b5b9250929050565b60008060208385031215611eb557611eb4611e2f565b5b600083013567ffffffffffffffff811115611ed357611ed2611e34565b5b611edf85828601611e48565b92509250509250929050565b600081519050919050565b600082825260208201905092915050565b6000819050602082019050919050565b600073ffffffffffffffffffffffffffffffffffffffff82169050919050565b6000611f4282611f17565b9050919050565b611f5281611f37565b82525050565b6000611f648383611f49565b60208301905092915050565b6000602082019050919050565b6000611f8882611eeb565b611f928185611ef6565b9350611f9d83611f07565b8060005b83811015611fce578151611fb58882611f58565b9750611fc083611f70565b925050600181019050611fa1565b5085935050505092915050565b60006020820190508181036000830152611ff58184611f7d565b905092915050565b6000806000806040858703121561201757612016611e2f565b5b600085013567ffffffffffffffff81111561203557612034611e34565b5b61204187828801611e48565b9450945050602085013567ffffffffffffffff81111561206457612063611e34565b5b61207087828801611e48565b925092505092959194509250565b600080fd5b6000601f19601f8301169050919050565b7f4e487b7100000000000000000000000000000000000000000000000000000000600052604160045260246000fd5b6120cc82612083565b810181811067ffffffffffffffff821117156120eb576120ea612094565b5b80604052505050565b60006120fe611e25565b905061210a82826120c3565b919050565b600067ffffffffffffffff82111561212a57612129612094565b5b61213382612083565b9050602081019050919050565b82818337600083830152505050565b600061216261215d8461210f565b6120f4565b90508281526020810184848401111561217e5761217d61207e565b5b612189848285612140565b509392505050565b600082601f8301126121a6576121a5611e39565b5b81356121b684826020860161214f565b91505092915050565b6000602082840312156121d5576121d4611e2f565b5b600082013567ffffffffffffffff8111156121f3576121f2611e34565b5b6121ff84828501612191565b91505092915050565b600081519050919050565b600082825260208201905092915050565b60005b83811015612242578082015181840152602081019050612227565b60008484015250505050565b600061225982612208565b6122638185612213565b9350612273818560208601612224565b61227c81612083565b840191505092915050565b6000819050919050565b61229a81612287565b82525050565b60008115159050919050565b6122b5816122a0565b82525050565b6122c481611f37565b82525050565b600081600b0b9050919050565b6122e0816122ca565b82525050565b6000610120820190508181036000830152612301818c61224e565b9050612310602083018b612291565b61231d604083018a6122ac565b61232a6060830189612291565b6123376080830188612291565b61234460a0830187612291565b61235160c08301866122bb565b61235e60e08301856122d7565b61236c6101008301846122d7565b9a9950505050505050505050565b6000806000806000806060878903121561239757612396611e2f565b5b600087013567ffffffffffffffff8111156123b5576123b4611e34565b5b6123c189828a01611e48565b9650965050602087013567ffffffffffffffff8111156123e4576123e3611e34565b5b6123f089828a01611e48565b9450945050604087013567ffffffffffffffff81111561241357612412611e34565b5b61241f89828a01611e48565b92509250509295509295509295565b61243781612287565b811461244257600080fd5b50565b6000813590506124548161242e565b92915050565b6000806000806060858703121561247457612473611e2f565b5b600085013567ffffffffffffffff81111561249257612491611e34565b5b61249e87828801611e48565b945094505060206124b187828801612445565b92505060406124c287828801612445565b91505092959194509250565b600081519050919050565b600082825260208201905092915050565b6000819050602082019050919050565b600082825260208201905092915050565b600061251682612208565b61252081856124fa565b9350612530818560208601612224565b61253981612083565b840191505092915050565b600060408301600083015161255c6000860182611f49565b5060208301518482036020860152612574828261250b565b9150508091505092915050565b600061258d8383612544565b905092915050565b6000602082019050919050565b60006125ad826124ce565b6125b781856124d9565b9350836020820285016125c9856124ea565b8060005b8581101561260557848403895281516125e68582612581565b94506125f183612595565b925060208a019950506001810190506125cd565b50829750879550505050505092915050565b6000602082019050818103600083015261263181846125a2565b905092915050565b600060208201905061264e60008301846122bb565b92915050565b600060208201905061266960008301846122ac565b92915050565b600067ffffffffffffffff82111561268a57612689612094565b5b602082029050602081019050919050565b6126a481611f37565b81146126af57600080fd5b50565b6000813590506126c18161269b565b92915050565b60006126da6126d58461266f565b6120f4565b905080838252602082019050602084028301858111156126fd576126fc611e43565b5b835b81811015612726578061271288826126b2565b8452602084019350506020810190506126ff565b5050509392505050565b600082601f83011261274557612744611e39565b5b81356127558482602086016126c7565b91505092915050565b60008060006040848603121561277757612776611e2f565b5b600084013567ffffffffffffffff81111561279557612794611e34565b5b6127a186828701611e48565b9350935050602084013567ffffffffffffffff8111156127c4576127c3611e34565b5b6127d086828701612730565b9150509250925092565b600081905092915050565b60006127f183856127da565b93506127fe838584612140565b82840190509392505050565b60006128178284866127e5565b91508190509392505050565b7f4f6e6c792067726f7570206f776e657200000000000000000000000000000000600082015250565b6000612859601083612213565b915061286482612823565b602082019050919050565b600060208201905081810360008301526128888161284c565b9050919050565b7f47726f757020646f6573206e6f74206578697374000000000000000000000000600082015250565b60006128c5601483612213565b91506128d08261288f565b602082019050919050565b600060208201905081810360008301526128f4816128b8565b9050919050565b7f4e487b7100000000000000000000000000000000000000000000000000000000600052601160045260246000fd5b600061293582612287565b915061294083612287565b925082820261294e81612287565b91508282048414831517612965576129646128fb565b5b5092915050565b600061297782612287565b915061298283612287565b925082820190508082111561299a576129996128fb565b5b92915050565b60006129ac8385612213565b93506129b9838584612140565b6129c283612083565b840190509392505050565b600060408201905081810360008301526129e88185876129a0565b90506129f76020830184612291565b949350505050565b7f4e487b7100000000000000000000000000000000000000000000000000000000600052603260045260246000fd5b6000612a3982612287565b91507fffffffffffffffffffffffffffffffffffffffffffffffffffffffffffffffff8203612a6b57612a6a6128fb565b5b600182019050919050565b7f47726f7570206578706972656400000000000000000000000000000000000000600082015250565b6000612aac600d83612213565b9150612ab782612a76565b602082019050919050565b60006020820190508181036000830152612adb81612a9f565b9050919050565b7f4e487b7100000000000000000000000000000000000000000000000000000000600052602260045260246000fd5b60006002820490506001821680612b2957607f821691505b602082108103612b3c57612b3b612ae2565b5b50919050565b60008190508160005260206000209050919050565b60006020601f8301049050919050565b600082821b905092915050565b600060088302612ba47fffffffffffffffffffffffffffffffffffffffffffffffffffffffffffffffff82612b67565b612bae8683612b67565b95508019841693508086168417925050509392505050565b6000819050919050565b6000612beb612be6612be184612287565b612bc6565b612287565b9050919050565b6000819050919050565b612c0583612bd0565b612c19612c1182612bf2565b848454612b74565b825550505050565b600090565b612c2e612c21565b612c39818484612bfc565b505050565b5b81811015612c5d57612c52600082612c26565b600181019050612c3f565b5050565b601f821115612ca257612c7381612b42565b612c7c84612b57565b81016020851015612c8b578190505b612c9f612c9785612b57565b830182612c3e565b50505b505050565b600082821c905092915050565b6000612cc560001984600802612ca7565b1980831691505092915050565b6000612cde8383612cb4565b9150826002028217905092915050565b612cf782612208565b67ffffffffffffffff811115612d1057612d0f612094565b5b612d1a8254612b11565b612d25828285612c61565b600060209050601f831160018114612d585760008415612d46578287015190505b612d508582612cd2565b865550612db8565b601f198416612d6686612b42565b60005b82811015612d8e57848901518255600182019150602085019450602081019050612d69565b86831015612dab5784890151612da7601f891682612cb4565b8355505b6001600288020188555050505b505050505050565b60006060820190508181036000830152612ddb8187896129a0565b9050612dea60208301866122bb565b8181036040830152612dfd8184866129a0565b90509695505050505050565b7f416c7265616479207374616b6564000000000000000000000000000000000000600082015250565b6000612e3f600e83612213565b9150612e4a82612e09565b602082019050919050565b60006020820190508181036000830152612e6e81612e32565b9050919050565b6000604082019050612e8a60008301856122bb565b612e9760208301846122bb565b9392505050565b600081519050612ead8161242e565b92915050565b600060208284031215612ec957612ec8611e2f565b5b6000612ed784828501612e9e565b91505092915050565b7f455243323020616c6c6f77616e636520697320746f6f20736d616c6c00000000600082015250565b6000612f16601c83612213565b9150612f2182612ee0565b602082019050919050565b60006020820190508181036000830152612f4581612f09565b9050919050565b6000606082019050612f6160008301866122bb565b612f6e60208301856122bb565b612f7b6040830184612291565b949350505050565b612f8c816122a0565b8114612f9757600080fd5b50565b600081519050612fa981612f83565b92915050565b600060208284031215612fc557612fc4611e2f565b5b6000612fd384828501612f9a565b91505092915050565b7f4552433230207472616e73666572206661696c65640000000000000000000000600082015250565b6000613012601583612213565b915061301d82612fdc565b602082019050919050565b6000602082019050818103600083015261304181613005565b9050919050565b6000613053826122ca565b91506b7fffffffffffffffffffffff8203613071576130706128fb565b5b600182019050919050565b600060408201905081810360008301526130978185876129a0565b90506130a660208301846122bb565b949350505050565b7f47726f757020616c726561647920657869737473000000000000000000000000600082015250565b60006130e4601483612213565b91506130ef826130ae565b602082019050919050565b60006020820190508181036000830152613113816130d7565b9050919050565b600082905092915050565b61312f838361311a565b67ffffffffffffffff81111561314857613147612094565b5b6131528254612b11565b61315d828285612c61565b6000601f83116001811461318c576000841561317a578287013590505b6131848582612cd2565b8655506131ec565b601f19841661319a86612b42565b60005b828110156131c25784890135825560018201915060208501945060208101905061319d565b868310156131df57848901356131db601f891682612cb4565b8355505b6001600288020188555050505b50505050505050565b600060208201905081810360008301526132108184866129a0565b90509392505050565b7f47726f757020776173206e6f7420737461727465640000000000000000000000600082015250565b600061324f601583612213565b915061325a82613219565b602082019050919050565b6000602082019050818103600083015261327e81613242565b9050919050565b7f47726f757020686173206e6f7420657870697265642079657400000000000000600082015250565b60006132bb601983612213565b91506132c682613285565b602082019050919050565b600060208201905081810360008301526132ea816132ae565b9050919050565b7f4e6f74206576657279626f64792068617320766f746564000000000000000000600082015250565b6000613327601783612213565b9150613332826132f1565b602082019050919050565b600060208201905081810360008301526133568161331a565b9050919050565b7f4e487b7100000000000000000000000000000000000000000000000000000000600052601260045260246000fd5b600061339782612287565b91506133a283612287565b9250826133b2576133b161335d565b5b828204905092915050565b60006133c882612287565b91506133d383612287565b92508282039050818111156133eb576133ea6128fb565b5b92915050565b6000604082019050818103600083015261340c8185876129a0565b905081810360208301526134208184611f7d565b905094935050505056fea26469706673582212202091931d852fef30ff80d72469c75396515c6e10efa335bfd1eb3c7b66c628d964736f6c63430008140033",
  "linkReferences": {},
  "deployedLinkReferences": {}
}