{
  "_format": "hh-sol-artifact-1",
  "contractName": "Goals",
  "sourceName": "contracts/Goals.sol",
  "abi": [
    {
      "inputs": [
        {
          "internalType": "contract IERC20",
          "name": "_stakingToken",
          "type": "address"
        },
        {
          "internalType": "uint256",
          "name": "_granularity",
          "type": "uint256"
        }
      ],
      "stateMutability": "nonpayable",
      "type": "constructor"
    },
    {
      "anonymous": false,
      "inputs": [
        {
          "indexed": false,
          "internalType": "string",
          "name": "groupName",
          "type": "string"
        }
      ],
      "name": "GroupCreated",
      "type": "event"
    },
    {
      "anonymous": false,
      "inputs": [
        {
          "indexed": false,
          "internalType": "string",
          "name": "groupName",
          "type": "string"
        },
        {
          "indexed": false,
          "internalType": "address[]",
          "name": "eligible",
          "type": "address[]"
        }
      ],
      "name": "GroupDistributed",
      "type": "event"
    },
    {
      "anonymous": false,
      "inputs": [
        {
          "indexed": false,
          "internalType": "string",
          "name": "groupName",
          "type": "string"
        },
        {
          "indexed": false,
          "internalType": "address",
          "name": "member",
          "type": "address"
        }
      ],
      "name": "GroupJoined",
      "type": "event"
    },
    {
      "anonymous": false,
      "inputs": [
        {
          "indexed": false,
          "internalType": "string",
          "name": "groupName",
          "type": "string"
        },
        {
          "indexed": false,
          "internalType": "uint256",
          "name": "endTime",
          "type": "uint256"
        }
      ],
      "name": "GroupStarted",
      "type": "event"
    },
    {
      "anonymous": false,
      "inputs": [
        {
          "indexed": false,
          "internalType": "string",
          "name": "groupName",
          "type": "string"
        },
        {
          "indexed": false,
          "internalType": "address",
          "name": "member",
          "type": "address"
        },
        {
          "indexed": false,
          "internalType": "string",
          "name": "proof",
          "type": "string"
        }
      ],
      "name": "ProofSubmitted",
      "type": "event"
    },
    {
      "anonymous": false,
      "inputs": [
        {
          "indexed": false,
          "internalType": "string",
          "name": "groupName",
          "type": "string"
        },
        {
          "indexed": false,
          "internalType": "address",
          "name": "member",
          "type": "address"
        }
      ],
      "name": "VoteSubmitted",
      "type": "event"
    },
    {
      "inputs": [
        {
          "internalType": "string",
          "name": "_groupName",
          "type": "string"
        },
        {
          "internalType": "uint256",
          "name": "_durationDays",
          "type": "uint256"
        },
        {
          "internalType": "uint256",
          "name": "_amount",
          "type": "uint256"
        }
      ],
      "name": "createGroup",
      "outputs": [],
      "stateMutability": "nonpayable",
      "type": "function"
    },
    {
      "inputs": [
        {
          "internalType": "string",
          "name": "_groupName",
          "type": "string"
        }
      ],
      "name": "distribute",
      "outputs": [],
      "stateMutability": "nonpayable",
      "type": "function"
    },
    {
      "inputs": [
        {
          "internalType": "string",
          "name": "_groupName",
          "type": "string"
        }
      ],
      "name": "getGroupOwner",
      "outputs": [
        {
          "internalType": "address",
          "name": "",
          "type": "address"
        }
      ],
      "stateMutability": "view",
      "type": "function"
    },
    {
      "inputs": [
        {
          "internalType": "string",
          "name": "_groupName",
          "type": "string"
        },
        {
          "internalType": "uint256",
          "name": "_index",
          "type": "uint256"
        }
      ],
      "name": "getMemberOfGroupByIndex",
      "outputs": [
        {
          "components": [
            {
              "internalType": "address",
              "name": "source",
              "type": "address"
            },
            {
              "internalType": "string",
              "name": "goalTitle",
              "type": "string"
            },
            {
              "internalType": "string",
              "name": "goalDescription",
              "type": "string"
            },
            {
              "internalType": "uint256",
              "name": "stake",
              "type": "uint256"
            }
          ],
          "internalType": "struct Goals.Stake",
          "name": "",
          "type": "tuple"
        }
      ],
      "stateMutability": "view",
      "type": "function"
    },
    {
      "inputs": [
        {
          "internalType": "string",
          "name": "_groupName",
          "type": "string"
        }
      ],
      "name": "getMembers",
      "outputs": [
        {
          "internalType": "address[]",
          "name": "",
          "type": "address[]"
        }
      ],
      "stateMutability": "view",
      "type": "function"
    },
    {
      "inputs": [
        {
          "internalType": "string",
          "name": "_groupName",
          "type": "string"
        },
        {
          "internalType": "uint256",
          "name": "_index",
          "type": "uint256"
        }
      ],
      "name": "getProofOfGroupByIndex",
      "outputs": [
        {
          "components": [
            {
              "internalType": "address",
              "name": "source",
              "type": "address"
            },
            {
              "internalType": "string",
              "name": "proof",
              "type": "string"
            }
          ],
          "internalType": "struct Goals.Proof",
          "name": "",
          "type": "tuple"
        }
      ],
      "stateMutability": "view",
      "type": "function"
    },
    {
      "inputs": [
        {
          "internalType": "string",
          "name": "_groupName",
          "type": "string"
        }
      ],
      "name": "getProofs",
      "outputs": [
        {
          "internalType": "address[]",
          "name": "",
          "type": "address[]"
        }
      ],
      "stateMutability": "view",
      "type": "function"
    },
    {
      "inputs": [
        {
          "internalType": "string",
          "name": "_groupName",
          "type": "string"
        }
      ],
      "name": "groupExists",
      "outputs": [
        {
          "internalType": "bool",
          "name": "",
          "type": "bool"
        }
      ],
      "stateMutability": "view",
      "type": "function"
    },
    {
      "inputs": [
        {
          "internalType": "string",
          "name": "",
          "type": "string"
        }
      ],
      "name": "groups",
      "outputs": [
        {
          "internalType": "string",
          "name": "groupName",
          "type": "string"
        },
        {
          "internalType": "uint256",
          "name": "durationDays",
          "type": "uint256"
        },
        {
          "internalType": "bool",
          "name": "isValue",
          "type": "bool"
        },
        {
          "internalType": "uint256",
          "name": "endTime",
          "type": "uint256"
        },
        {
          "internalType": "uint256",
          "name": "totalStake",
          "type": "uint256"
        },
        {
          "internalType": "uint256",
          "name": "baseAmount",
          "type": "uint256"
        },
        {
          "internalType": "address",
          "name": "groupOwner",
          "type": "address"
        },
        {
          "internalType": "int96",
          "name": "numberMembers",
          "type": "int96"
        },
        {
          "internalType": "int96",
          "name": "numberProofs",
          "type": "int96"
        },
        {
          "internalType": "int96",
          "name": "numberVotes",
          "type": "int96"
        }
      ],
      "stateMutability": "view",
      "type": "function"
    },
    {
      "inputs": [
        {
          "internalType": "string",
          "name": "_groupName",
          "type": "string"
        },
        {
          "internalType": "string",
          "name": "_goalTitle",
          "type": "string"
        },
        {
          "internalType": "string",
          "name": "_goalDescription",
          "type": "string"
        }
      ],
      "name": "joinGroup",
      "outputs": [],
      "stateMutability": "nonpayable",
      "type": "function"
    },
    {
      "inputs": [
        {
          "internalType": "string",
          "name": "_groupName",
          "type": "string"
        }
      ],
      "name": "start",
      "outputs": [],
      "stateMutability": "nonpayable",
      "type": "function"
    },
    {
      "inputs": [
        {
          "internalType": "string",
          "name": "_groupName",
          "type": "string"
        },
        {
          "internalType": "string",
          "name": "_proof",
          "type": "string"
        }
      ],
      "name": "submitProof",
      "outputs": [],
      "stateMutability": "nonpayable",
      "type": "function"
    },
    {
      "inputs": [
        {
          "internalType": "string",
          "name": "_groupName",
          "type": "string"
        },
        {
          "internalType": "address[]",
          "name": "_vetoAddresses",
          "type": "address[]"
        }
      ],
      "name": "submitVetos",
      "outputs": [],
      "stateMutability": "nonpayable",
      "type": "function"
    }
  ],
  "bytecode": "0x60806040523480156200001157600080fd5b5060405162003bd738038062003bd7833981810160405281019062000037919062000140565b81600160006101000a81548173ffffffffffffffffffffffffffffffffffffffff021916908373ffffffffffffffffffffffffffffffffffffffff16021790555080600281905550505062000187565b600080fd5b600073ffffffffffffffffffffffffffffffffffffffff82169050919050565b6000620000b9826200008c565b9050919050565b6000620000cd82620000ac565b9050919050565b620000df81620000c0565b8114620000eb57600080fd5b50565b600081519050620000ff81620000d4565b92915050565b6000819050919050565b6200011a8162000105565b81146200012657600080fd5b50565b6000815190506200013a816200010f565b92915050565b600080604083850312156200015a576200015962000087565b5b60006200016a85828601620000ee565b92505060206200017d8582860162000129565b9150509250929050565b613a4080620001976000396000f3fe608060405234801561001057600080fd5b50600436106100cf5760003560e01c806377e591fb1161008c578063b4e334f811610066578063b4e334f814610229578063c32880fd14610259578063cdd781e214610289578063fa778f44146102b9576100cf565b806377e591fb146101ad578063991782f2146101c95780639a8e1c55146101f9576100cf565b8063258e60b6146100d457806356250571146100f0578063605c967e146101205780636b52230b1461013c5780636d620a33146101755780636e01de3014610191575b600080fd5b6100ee60048036038101906100e99190612436565b6102d5565b005b61010a60048036038101906101059190612436565b6104a6565b6040516101179190612573565b60405180910390f35b61013a60048036038101906101359190612595565b610691565b005b61015660048036038101906101519190612757565b61093c565b60405161016c9a9998979695949392919061287e565b60405180910390f35b61018f600480360381019061018a9190612921565b610a82565b005b6101ab60048036038101906101a69190612a01565b611145565b005b6101c760048036038101906101c29190612436565b611316565b005b6101e360048036038101906101de9190612436565b611a73565b6040516101f09190612573565b60405180910390f35b610213600480360381019061020e9190612a75565b611c5e565b6040516102209190612b5c565b60405180910390f35b610243600480360381019061023e9190612a75565b611e19565b6040516102509190612bf7565b60405180910390f35b610273600480360381019061026e9190612436565b612070565b6040516102809190612c19565b60405180910390f35b6102a3600480360381019061029e9190612436565b612132565b6040516102b09190612c34565b60405180910390f35b6102d360048036038101906102ce9190612d3e565b61216c565b005b8181600082826040516102e9929190612dea565b908152602001604051809103902060060160009054906101000a900473ffffffffffffffffffffffffffffffffffffffff1673ffffffffffffffffffffffffffffffffffffffff163373ffffffffffffffffffffffffffffffffffffffff1614610388576040517f08c379a000000000000000000000000000000000000000000000000000000000815260040161037f90612e4f565b60405180910390fd5b83836000828260405161039c929190612dea565b908152602001604051809103902060020160009054906101000a900460ff166103fa576040517f08c379a00000000000000000000000000000000000000000000000000000000081526004016103f190612ebb565b60405180910390fd5b600060025460008888604051610411929190612dea565b90815260200160405180910390206001015461042d9190612f0a565b426104389190612f4c565b9050806000888860405161044d929190612dea565b9081526020016040518091039020600301819055507f7e91cac5faa08a2bbcaaef70c65da452d7f73532d88ed580c107c08191db6fd087878360405161049593929190612fad565b60405180910390a150505050505050565b60608282600082826040516104bc929190612dea565b908152602001604051809103902060020160009054906101000a900460ff1661051a576040517f08c379a000000000000000000000000000000000000000000000000000000000815260040161051190612ebb565b60405180910390fd5b600080868660405161052d929190612dea565b90815260200160405180910390206008018054905067ffffffffffffffff81111561055b5761055a61262c565b5b6040519080825280602002602001820160405280156105895781602001602082028036833780820191505090505b50905060005b600087876040516105a1929190612dea565b90815260200160405180910390206008018054905081101561068457600087876040516105cf929190612dea565b908152602001604051809103902060080181815481106105f2576105f1612fdf565b5b906000526020600020906004020160000160009054906101000a900473ffffffffffffffffffffffffffffffffffffffff1682828151811061063757610636612fdf565b5b602002602001019073ffffffffffffffffffffffffffffffffffffffff16908173ffffffffffffffffffffffffffffffffffffffff1681525050808061067c9061300e565b91505061058f565b5080935050505092915050565b8383600082826040516106a5929190612dea565b908152602001604051809103902060020160009054906101000a900460ff16610703576040517f08c379a00000000000000000000000000000000000000000000000000000000081526004016106fa90612ebb565b60405180910390fd5b60008686604051610715929190612dea565b908152602001604051809103902060030154421115610769576040517f08c379a0000000000000000000000000000000000000000000000000000000008152600401610760906130a2565b60405180910390fd5b6000868660405161077b929190612dea565b908152602001604051809103902060090160405180604001604052803373ffffffffffffffffffffffffffffffffffffffff16815260200186868080601f016020809104026020016040519081016040528093929190818152602001838380828437600081840152601f19601f82011690508083019250505050505050815250908060018154018082558091505060019003906000526020600020906002020160009091909190915060008201518160000160006101000a81548173ffffffffffffffffffffffffffffffffffffffff021916908373ffffffffffffffffffffffffffffffffffffffff160217905550602082015181600101908161088091906132ce565b50505060008686604051610895929190612dea565b9081526020016040518091039020600701600081819054906101000a9004600b0b809291906108c3906133a0565b91906101000a8154816bffffffffffffffffffffffff0219169083600b0b6bffffffffffffffffffffffff160217905550507f02c6188cd57a0b3c5f8159e25b2ff452afdf33041e0b4728fe1729828c400ed9868633878760405161092c9594939291906133d4565b60405180910390a1505050505050565b600081805160208101820180518482526020830160208501208183528095505050505050600091509050806000018054610975906130f1565b80601f01602080910402602001604051908101604052809291908181526020018280546109a1906130f1565b80156109ee5780601f106109c3576101008083540402835291602001916109ee565b820191906000526020600020905b8154815290600101906020018083116109d157829003601f168201915b5050505050908060010154908060020160009054906101000a900460ff16908060030154908060040154908060050154908060060160009054906101000a900473ffffffffffffffffffffffffffffffffffffffff16908060060160149054906101000a9004600b0b908060070160009054906101000a9004600b0b9080600701600c9054906101000a9004600b0b90508a565b858560008282604051610a96929190612dea565b908152602001604051809103902060020160009054906101000a900460ff16610af4576040517f08c379a0000000000000000000000000000000000000000000000000000000008152600401610aeb90612ebb565b60405180910390fd5b60008888604051610b06929190612dea565b908152602001604051809103902060020160009054906101000a900460ff16610b64576040517f08c379a0000000000000000000000000000000000000000000000000000000008152600401610b5b90612ebb565b60405180910390fd5b60005b60008989604051610b79929190612dea565b908152602001604051809103902060080180549050811015610c7c573373ffffffffffffffffffffffffffffffffffffffff1660008a8a604051610bbe929190612dea565b90815260200160405180910390206008018281548110610be157610be0612fdf565b5b906000526020600020906004020160000160009054906101000a900473ffffffffffffffffffffffffffffffffffffffff1673ffffffffffffffffffffffffffffffffffffffff1603610c69576040517f08c379a0000000000000000000000000000000000000000000000000000000008152600401610c6090613469565b60405180910390fd5b8080610c749061300e565b915050610b67565b5060008888604051610c8f929190612dea565b908152602001604051809103902060080160405180608001604052803373ffffffffffffffffffffffffffffffffffffffff16815260200188888080601f016020809104026020016040519081016040528093929190818152602001838380828437600081840152601f19601f82011690508083019250505050505050815260200186868080601f016020809104026020016040519081016040528093929190818152602001838380828437600081840152601f19601f82011690508083019250505050505050815260200160008b8b604051610d6d929190612dea565b908152602001604051809103902060050154815250908060018154018082558091505060019003906000526020600020906004020160009091909190915060008201518160000160006101000a81548173ffffffffffffffffffffffffffffffffffffffff021916908373ffffffffffffffffffffffffffffffffffffffff1602179055506020820151816001019081610e0791906132ce565b506040820151816002019081610e1d91906132ce565b5060608201518160030155505060008888604051610e3c929190612dea565b908152602001604051809103902060050154600160009054906101000a900473ffffffffffffffffffffffffffffffffffffffff1673ffffffffffffffffffffffffffffffffffffffff1663dd62ed3e33306040518363ffffffff1660e01b8152600401610eab929190613489565b602060405180830381865afa158015610ec8573d6000803e3d6000fd5b505050506040513d601f19601f82011682018060405250810190610eec91906134c7565b1015610f2d576040517f08c379a0000000000000000000000000000000000000000000000000000000008152600401610f2490613540565b60405180910390fd5b600160009054906101000a900473ffffffffffffffffffffffffffffffffffffffff1673ffffffffffffffffffffffffffffffffffffffff166323b872dd333060008c8c604051610f7f929190612dea565b9081526020016040518091039020600501546040518463ffffffff1660e01b8152600401610faf93929190613560565b6020604051808303816000875af1158015610fce573d6000803e3d6000fd5b505050506040513d601f19601f82011682018060405250810190610ff291906135c3565b611031576040517f08c379a00000000000000000000000000000000000000000000000000000000081526004016110289061363c565b60405180910390fd5b60008888604051611043929190612dea565b9081526020016040518091039020600601601481819054906101000a9004600b0b80929190611071906133a0565b91906101000a8154816bffffffffffffffffffffffff0219169083600b0b6bffffffffffffffffffffffff16021790555050600088886040516110b5929190612dea565b908152602001604051809103902060050154600089896040516110d9929190612dea565b908152602001604051809103902060040160008282546110f99190612f4c565b925050819055507fa565c964821cebff69ed2469d1abe4b269a24aa9a0b0dbaec994b95eff553c468888336040516111339392919061365c565b60405180910390a15050505050505050565b60008484604051611157929190612dea565b908152602001604051809103902060020160009054906101000a900460ff16156111b6576040517f08c379a00000000000000000000000000000000000000000000000000000000081526004016111ad906136da565b60405180910390fd5b8383600086866040516111ca929190612dea565b908152602001604051809103902060000191826111e8929190613705565b5081600085856040516111fc929190612dea565b908152602001604051809103902060010181905550600160008585604051611225929190612dea565b908152602001604051809103902060020160006101000a81548160ff0219169083151502179055503360008585604051611260929190612dea565b908152602001604051809103902060060160006101000a81548173ffffffffffffffffffffffffffffffffffffffff021916908373ffffffffffffffffffffffffffffffffffffffff16021790555080600085856040516112c2929190612dea565b9081526020016040518091039020600501819055507fb4082bf161f07af2ff5aed9b78e2cb1baf973ed4f2cc2e6e8e81a46752cc334584846040516113089291906137d5565b60405180910390a150505050565b81816000828260405161132a929190612dea565b908152602001604051809103902060020160009054906101000a900460ff16611388576040517f08c379a000000000000000000000000000000000000000000000000000000000815260040161137f90612ebb565b60405180910390fd5b600080858560405161139b929190612dea565b908152602001604051809103902060030154036113ed576040517f08c379a00000000000000000000000000000000000000000000000000000000081526004016113e490613845565b60405180910390fd5b4260008585604051611400929190612dea565b9081526020016040518091039020600301541115611453576040517f08c379a000000000000000000000000000000000000000000000000000000000815260040161144a906138b1565b60405180910390fd5b60008484604051611465929190612dea565b9081526020016040518091039020600701600c9054906101000a9004600b0b600b0b60008585604051611499929190612dea565b908152602001604051809103902060060160149054906101000a9004600b0b600b0b13156114fc576040517f08c379a00000000000000000000000000000000000000000000000000000000081526004016114f39061391d565b60405180910390fd5b6000805b60008686604051611512929190612dea565b90815260200160405180910390206008018054905081101561165c576000808787604051611541929190612dea565b9081526020016040518091039020600801828154811061156457611563612fdf565b5b906000526020600020906004020160000160009054906101000a900473ffffffffffffffffffffffffffffffffffffffff16905060006002600089896040516115ae929190612dea565b9081526020016040518091039020600a0160008473ffffffffffffffffffffffffffffffffffffffff1673ffffffffffffffffffffffffffffffffffffffff168152602001908152602001600020546116079190612f0a565b90506000888860405161161b929190612dea565b908152602001604051809103902060080180549050811015611647576001846116449190612f4c565b93505b505080806116549061300e565b915050611500565b5060008167ffffffffffffffff8111156116795761167861262c565b5b6040519080825280602002602001820160405280156116a75781602001602082028036833780820191505090505b5090506000805b600088886040516116c0929190612dea565b9081526020016040518091039020600801805490508110156118585760008089896040516116ef929190612dea565b9081526020016040518091039020600801828154811061171257611711612fdf565b5b906000526020600020906004020160000160009054906101000a900473ffffffffffffffffffffffffffffffffffffffff1690506000600260008b8b60405161175c929190612dea565b9081526020016040518091039020600a0160008473ffffffffffffffffffffffffffffffffffffffff1673ffffffffffffffffffffffffffffffffffffffff168152602001908152602001600020546117b59190612f0a565b905060008a8a6040516117c9929190612dea565b90815260200160405180910390206008018054905081101561184357818585815181106117f9576117f8612fdf565b5b602002602001019073ffffffffffffffffffffffffffffffffffffffff16908173ffffffffffffffffffffffffffffffffffffffff16815250506001846118409190612f4c565b93505b505080806118509061300e565b9150506116ae565b50600080835182611869919061396c565b905060005b8451811015611a2c5760018551611885919061399d565b810361194d57600160009054906101000a900473ffffffffffffffffffffffffffffffffffffffff1673ffffffffffffffffffffffffffffffffffffffff166323b872dd308784815181106118dd576118dc612fdf565b5b6020026020010151866040518463ffffffff1660e01b815260040161190493929190613560565b6020604051808303816000875af1158015611923573d6000803e3d6000fd5b505050506040513d601f19601f8201168201806040525081019061194791906135c3565b50611a0b565b600160009054906101000a900473ffffffffffffffffffffffffffffffffffffffff1673ffffffffffffffffffffffffffffffffffffffff166323b872dd3087848151811061199f5761199e612fdf565b5b6020026020010151856040518463ffffffff1660e01b81526004016119c693929190613560565b6020604051808303816000875af11580156119e5573d6000803e3d6000fd5b505050506040513d601f19601f82011682018060405250810190611a0991906135c3565b505b8183611a17919061399d565b92508080611a249061300e565b91505061186e565b507f6ef731bc401f8c1c7c1d45efe1031a96e3827e457aa5a9f9e030c89accbf1ad4898986604051611a60939291906139d1565b60405180910390a1505050505050505050565b6060828260008282604051611a89929190612dea565b908152602001604051809103902060020160009054906101000a900460ff16611ae7576040517f08c379a0000000000000000000000000000000000000000000000000000000008152600401611ade90612ebb565b60405180910390fd5b6000808686604051611afa929190612dea565b90815260200160405180910390206009018054905067ffffffffffffffff811115611b2857611b2761262c565b5b604051908082528060200260200182016040528015611b565781602001602082028036833780820191505090505b50905060005b60008787604051611b6e929190612dea565b908152602001604051809103902060090180549050811015611c515760008787604051611b9c929190612dea565b90815260200160405180910390206009018181548110611bbf57611bbe612fdf565b5b906000526020600020906002020160000160009054906101000a900473ffffffffffffffffffffffffffffffffffffffff16828281518110611c0457611c03612fdf565b5b602002602001019073ffffffffffffffffffffffffffffffffffffffff16908173ffffffffffffffffffffffffffffffffffffffff16815250508080611c499061300e565b915050611b5c565b5080935050505092915050565b611c6661234f565b838360008282604051611c7a929190612dea565b908152602001604051809103902060020160009054906101000a900460ff16611cd8576040517f08c379a0000000000000000000000000000000000000000000000000000000008152600401611ccf90612ebb565b60405180910390fd5b60008686604051611cea929190612dea565b90815260200160405180910390206009018481548110611d0d57611d0c612fdf565b5b90600052602060002090600202016040518060400160405290816000820160009054906101000a900473ffffffffffffffffffffffffffffffffffffffff1673ffffffffffffffffffffffffffffffffffffffff1673ffffffffffffffffffffffffffffffffffffffff168152602001600182018054611d8c906130f1565b80601f0160208091040260200160405190810160405280929190818152602001828054611db8906130f1565b8015611e055780601f10611dda57610100808354040283529160200191611e05565b820191906000526020600020905b815481529060010190602001808311611de857829003601f168201915b505050505081525050925050509392505050565b611e2161237f565b838360008282604051611e35929190612dea565b908152602001604051809103902060020160009054906101000a900460ff16611e93576040517f08c379a0000000000000000000000000000000000000000000000000000000008152600401611e8a90612ebb565b60405180910390fd5b60008686604051611ea5929190612dea565b90815260200160405180910390206008018481548110611ec857611ec7612fdf565b5b90600052602060002090600402016040518060800160405290816000820160009054906101000a900473ffffffffffffffffffffffffffffffffffffffff1673ffffffffffffffffffffffffffffffffffffffff1673ffffffffffffffffffffffffffffffffffffffff168152602001600182018054611f47906130f1565b80601f0160208091040260200160405190810160405280929190818152602001828054611f73906130f1565b8015611fc05780601f10611f9557610100808354040283529160200191611fc0565b820191906000526020600020905b815481529060010190602001808311611fa357829003601f168201915b50505050508152602001600282018054611fd9906130f1565b80601f0160208091040260200160405190810160405280929190818152602001828054612005906130f1565b80156120525780601f1061202757610100808354040283529160200191612052565b820191906000526020600020905b81548152906001019060200180831161203557829003601f168201915b50505050508152602001600382015481525050925050509392505050565b6000828260008282604051612086929190612dea565b908152602001604051809103902060020160009054906101000a900460ff166120e4576040517f08c379a00000000000000000000000000000000000000000000000000000000081526004016120db90612ebb565b60405180910390fd5b600085856040516120f6929190612dea565b908152602001604051809103902060060160009054906101000a900473ffffffffffffffffffffffffffffffffffffffff169250505092915050565b6000808383604051612145929190612dea565b908152602001604051809103902060020160009054906101000a900460ff16905092915050565b828260008282604051612180929190612dea565b908152602001604051809103902060020160009054906101000a900460ff166121de576040517f08c379a00000000000000000000000000000000000000000000000000000000081526004016121d590612ebb565b60405180910390fd5b60008351111561229b5760005b835181101561229957600160008787604051612208929190612dea565b9081526020016040518091039020600a01600086848151811061222e5761222d612fdf565b5b602002602001015173ffffffffffffffffffffffffffffffffffffffff1673ffffffffffffffffffffffffffffffffffffffff168152602001908152602001600020600082825461227f9190612f4c565b9250508190555080806122919061300e565b9150506121eb565b505b600085856040516122ad929190612dea565b9081526020016040518091039020600701600c81819054906101000a9004600b0b809291906122db906133a0565b91906101000a8154816bffffffffffffffffffffffff0219169083600b0b6bffffffffffffffffffffffff160217905550507f7b96772c86a9be9298551262ba509e4a7b0c1cdf17c281c4c5f52fd3668fbe0f8585336040516123409392919061365c565b60405180910390a15050505050565b6040518060400160405280600073ffffffffffffffffffffffffffffffffffffffff168152602001606081525090565b6040518060800160405280600073ffffffffffffffffffffffffffffffffffffffff1681526020016060815260200160608152602001600081525090565b6000604051905090565b600080fd5b600080fd5b600080fd5b600080fd5b600080fd5b60008083601f8401126123f6576123f56123d1565b5b8235905067ffffffffffffffff811115612413576124126123d6565b5b60208301915083600182028301111561242f5761242e6123db565b5b9250929050565b6000806020838503121561244d5761244c6123c7565b5b600083013567ffffffffffffffff81111561246b5761246a6123cc565b5b612477858286016123e0565b92509250509250929050565b600081519050919050565b600082825260208201905092915050565b6000819050602082019050919050565b600073ffffffffffffffffffffffffffffffffffffffff82169050919050565b60006124da826124af565b9050919050565b6124ea816124cf565b82525050565b60006124fc83836124e1565b60208301905092915050565b6000602082019050919050565b600061252082612483565b61252a818561248e565b93506125358361249f565b8060005b8381101561256657815161254d88826124f0565b975061255883612508565b925050600181019050612539565b5085935050505092915050565b6000602082019050818103600083015261258d8184612515565b905092915050565b600080600080604085870312156125af576125ae6123c7565b5b600085013567ffffffffffffffff8111156125cd576125cc6123cc565b5b6125d9878288016123e0565b9450945050602085013567ffffffffffffffff8111156125fc576125fb6123cc565b5b612608878288016123e0565b925092505092959194509250565b600080fd5b6000601f19601f8301169050919050565b7f4e487b7100000000000000000000000000000000000000000000000000000000600052604160045260246000fd5b6126648261261b565b810181811067ffffffffffffffff821117156126835761268261262c565b5b80604052505050565b60006126966123bd565b90506126a2828261265b565b919050565b600067ffffffffffffffff8211156126c2576126c161262c565b5b6126cb8261261b565b9050602081019050919050565b82818337600083830152505050565b60006126fa6126f5846126a7565b61268c565b90508281526020810184848401111561271657612715612616565b5b6127218482856126d8565b509392505050565b600082601f83011261273e5761273d6123d1565b5b813561274e8482602086016126e7565b91505092915050565b60006020828403121561276d5761276c6123c7565b5b600082013567ffffffffffffffff81111561278b5761278a6123cc565b5b61279784828501612729565b91505092915050565b600081519050919050565b600082825260208201905092915050565b60005b838110156127da5780820151818401526020810190506127bf565b60008484015250505050565b60006127f1826127a0565b6127fb81856127ab565b935061280b8185602086016127bc565b6128148161261b565b840191505092915050565b6000819050919050565b6128328161281f565b82525050565b60008115159050919050565b61284d81612838565b82525050565b61285c816124cf565b82525050565b600081600b0b9050919050565b61287881612862565b82525050565b6000610140820190508181036000830152612899818d6127e6565b90506128a8602083018c612829565b6128b5604083018b612844565b6128c2606083018a612829565b6128cf6080830189612829565b6128dc60a0830188612829565b6128e960c0830187612853565b6128f660e083018661286f565b61290461010083018561286f565b61291261012083018461286f565b9b9a5050505050505050505050565b6000806000806000806060878903121561293e5761293d6123c7565b5b600087013567ffffffffffffffff81111561295c5761295b6123cc565b5b61296889828a016123e0565b9650965050602087013567ffffffffffffffff81111561298b5761298a6123cc565b5b61299789828a016123e0565b9450945050604087013567ffffffffffffffff8111156129ba576129b96123cc565b5b6129c689828a016123e0565b92509250509295509295509295565b6129de8161281f565b81146129e957600080fd5b50565b6000813590506129fb816129d5565b92915050565b60008060008060608587031215612a1b57612a1a6123c7565b5b600085013567ffffffffffffffff811115612a3957612a386123cc565b5b612a45878288016123e0565b94509450506020612a58878288016129ec565b9250506040612a69878288016129ec565b91505092959194509250565b600080600060408486031215612a8e57612a8d6123c7565b5b600084013567ffffffffffffffff811115612aac57612aab6123cc565b5b612ab8868287016123e0565b93509350506020612acb868287016129ec565b9150509250925092565b600082825260208201905092915050565b6000612af1826127a0565b612afb8185612ad5565b9350612b0b8185602086016127bc565b612b148161261b565b840191505092915050565b6000604083016000830151612b3760008601826124e1565b5060208301518482036020860152612b4f8282612ae6565b9150508091505092915050565b60006020820190508181036000830152612b768184612b1f565b905092915050565b612b878161281f565b82525050565b6000608083016000830151612ba560008601826124e1565b5060208301518482036020860152612bbd8282612ae6565b91505060408301518482036040860152612bd78282612ae6565b9150506060830151612bec6060860182612b7e565b508091505092915050565b60006020820190508181036000830152612c118184612b8d565b905092915050565b6000602082019050612c2e6000830184612853565b92915050565b6000602082019050612c496000830184612844565b92915050565b600067ffffffffffffffff821115612c6a57612c6961262c565b5b602082029050602081019050919050565b612c84816124cf565b8114612c8f57600080fd5b50565b600081359050612ca181612c7b565b92915050565b6000612cba612cb584612c4f565b61268c565b90508083825260208201905060208402830185811115612cdd57612cdc6123db565b5b835b81811015612d065780612cf28882612c92565b845260208401935050602081019050612cdf565b5050509392505050565b600082601f830112612d2557612d246123d1565b5b8135612d35848260208601612ca7565b91505092915050565b600080600060408486031215612d5757612d566123c7565b5b600084013567ffffffffffffffff811115612d7557612d746123cc565b5b612d81868287016123e0565b9350935050602084013567ffffffffffffffff811115612da457612da36123cc565b5b612db086828701612d10565b9150509250925092565b600081905092915050565b6000612dd18385612dba565b9350612dde8385846126d8565b82840190509392505050565b6000612df7828486612dc5565b91508190509392505050565b7f4f6e6c792067726f7570206f776e657200000000000000000000000000000000600082015250565b6000612e396010836127ab565b9150612e4482612e03565b602082019050919050565b60006020820190508181036000830152612e6881612e2c565b9050919050565b7f47726f757020646f6573206e6f74206578697374000000000000000000000000600082015250565b6000612ea56014836127ab565b9150612eb082612e6f565b602082019050919050565b60006020820190508181036000830152612ed481612e98565b9050919050565b7f4e487b7100000000000000000000000000000000000000000000000000000000600052601160045260246000fd5b6000612f158261281f565b9150612f208361281f565b9250828202612f2e8161281f565b91508282048414831517612f4557612f44612edb565b5b5092915050565b6000612f578261281f565b9150612f628361281f565b9250828201905080821115612f7a57612f79612edb565b5b92915050565b6000612f8c83856127ab565b9350612f998385846126d8565b612fa28361261b565b840190509392505050565b60006040820190508181036000830152612fc8818587612f80565b9050612fd76020830184612829565b949350505050565b7f4e487b7100000000000000000000000000000000000000000000000000000000600052603260045260246000fd5b60006130198261281f565b91507fffffffffffffffffffffffffffffffffffffffffffffffffffffffffffffffff820361304b5761304a612edb565b5b600182019050919050565b7f47726f7570206578706972656400000000000000000000000000000000000000600082015250565b600061308c600d836127ab565b915061309782613056565b602082019050919050565b600060208201905081810360008301526130bb8161307f565b9050919050565b7f4e487b7100000000000000000000000000000000000000000000000000000000600052602260045260246000fd5b6000600282049050600182168061310957607f821691505b60208210810361311c5761311b6130c2565b5b50919050565b60008190508160005260206000209050919050565b60006020601f8301049050919050565b600082821b905092915050565b6000600883026131847fffffffffffffffffffffffffffffffffffffffffffffffffffffffffffffffff82613147565b61318e8683613147565b95508019841693508086168417925050509392505050565b6000819050919050565b60006131cb6131c66131c18461281f565b6131a6565b61281f565b9050919050565b6000819050919050565b6131e5836131b0565b6131f96131f1826131d2565b848454613154565b825550505050565b600090565b61320e613201565b6132198184846131dc565b505050565b5b8181101561323d57613232600082613206565b60018101905061321f565b5050565b601f8211156132825761325381613122565b61325c84613137565b8101602085101561326b578190505b61327f61327785613137565b83018261321e565b50505b505050565b600082821c905092915050565b60006132a560001984600802613287565b1980831691505092915050565b60006132be8383613294565b9150826002028217905092915050565b6132d7826127a0565b67ffffffffffffffff8111156132f0576132ef61262c565b5b6132fa82546130f1565b613305828285613241565b600060209050601f8311600181146133385760008415613326578287015190505b61333085826132b2565b865550613398565b601f19841661334686613122565b60005b8281101561336e57848901518255600182019150602085019450602081019050613349565b8683101561338b5784890151613387601f891682613294565b8355505b6001600288020188555050505b505050505050565b60006133ab82612862565b91506b7fffffffffffffffffffffff82036133c9576133c8612edb565b5b600182019050919050565b600060608201905081810360008301526133ef818789612f80565b90506133fe6020830186612853565b8181036040830152613411818486612f80565b90509695505050505050565b7f416c7265616479207374616b6564000000000000000000000000000000000000600082015250565b6000613453600e836127ab565b915061345e8261341d565b602082019050919050565b6000602082019050818103600083015261348281613446565b9050919050565b600060408201905061349e6000830185612853565b6134ab6020830184612853565b9392505050565b6000815190506134c1816129d5565b92915050565b6000602082840312156134dd576134dc6123c7565b5b60006134eb848285016134b2565b91505092915050565b7f455243323020616c6c6f77616e636520697320746f6f20736d616c6c00000000600082015250565b600061352a601c836127ab565b9150613535826134f4565b602082019050919050565b600060208201905081810360008301526135598161351d565b9050919050565b60006060820190506135756000830186612853565b6135826020830185612853565b61358f6040830184612829565b949350505050565b6135a081612838565b81146135ab57600080fd5b50565b6000815190506135bd81613597565b92915050565b6000602082840312156135d9576135d86123c7565b5b60006135e7848285016135ae565b91505092915050565b7f4552433230207472616e73666572206661696c65640000000000000000000000600082015250565b60006136266015836127ab565b9150613631826135f0565b602082019050919050565b6000602082019050818103600083015261365581613619565b9050919050565b60006040820190508181036000830152613677818587612f80565b90506136866020830184612853565b949350505050565b7f47726f757020616c726561647920657869737473000000000000000000000000600082015250565b60006136c46014836127ab565b91506136cf8261368e565b602082019050919050565b600060208201905081810360008301526136f3816136b7565b9050919050565b600082905092915050565b61370f83836136fa565b67ffffffffffffffff8111156137285761372761262c565b5b61373282546130f1565b61373d828285613241565b6000601f83116001811461376c576000841561375a578287013590505b61376485826132b2565b8655506137cc565b601f19841661377a86613122565b60005b828110156137a25784890135825560018201915060208501945060208101905061377d565b868310156137bf57848901356137bb601f891682613294565b8355505b6001600288020188555050505b50505050505050565b600060208201905081810360008301526137f0818486612f80565b90509392505050565b7f47726f757020776173206e6f7420737461727465640000000000000000000000600082015250565b600061382f6015836127ab565b915061383a826137f9565b602082019050919050565b6000602082019050818103600083015261385e81613822565b9050919050565b7f47726f757020686173206e6f7420657870697265642079657400000000000000600082015250565b600061389b6019836127ab565b91506138a682613865565b602082019050919050565b600060208201905081810360008301526138ca8161388e565b9050919050565b7f4e6f74206576657279626f64792068617320766f746564000000000000000000600082015250565b60006139076017836127ab565b9150613912826138d1565b602082019050919050565b60006020820190508181036000830152613936816138fa565b9050919050565b7f4e487b7100000000000000000000000000000000000000000000000000000000600052601260045260246000fd5b60006139778261281f565b91506139828361281f565b9250826139925761399161393d565b5b828204905092915050565b60006139a88261281f565b91506139b38361281f565b92508282039050818111156139cb576139ca612edb565b5b92915050565b600060408201905081810360008301526139ec818587612f80565b90508181036020830152613a008184612515565b905094935050505056fea26469706673582212201f9eadac86af4a8bd8fa2921e3d7d6bdbcff6ebb57903483404bf7de11dd233e64736f6c63430008140033",
  "linkReferences": {},
  "deployedLinkReferences": {}
}