{
  "_format": "hh-sol-artifact-1",
  "contractName": "Goals",
  "sourceName": "contracts/Goals.sol",
  "abi": [
    {
      "inputs": [
        {
          "internalType": "contract IERC20",
          "name": "_stakingToken",
          "type": "address"
        },
        {
          "internalType": "uint256",
          "name": "_granularity",
          "type": "uint256"
        }
      ],
      "stateMutability": "nonpayable",
      "type": "constructor"
    },
    {
      "anonymous": false,
      "inputs": [
        {
          "indexed": false,
          "internalType": "string",
          "name": "groupName",
          "type": "string"
        }
      ],
      "name": "GroupCreated",
      "type": "event"
    },
    {
      "anonymous": false,
      "inputs": [
        {
          "indexed": false,
          "internalType": "string",
          "name": "groupName",
          "type": "string"
        },
        {
          "indexed": false,
          "internalType": "address[]",
          "name": "eligible",
          "type": "address[]"
        }
      ],
      "name": "GroupDistributed",
      "type": "event"
    },
    {
      "anonymous": false,
      "inputs": [
        {
          "indexed": false,
          "internalType": "string",
          "name": "groupName",
          "type": "string"
        },
        {
          "indexed": false,
          "internalType": "address",
          "name": "member",
          "type": "address"
        }
      ],
      "name": "GroupJoined",
      "type": "event"
    },
    {
      "anonymous": false,
      "inputs": [
        {
          "indexed": false,
          "internalType": "string",
          "name": "groupName",
          "type": "string"
        },
        {
          "indexed": false,
          "internalType": "uint256",
          "name": "endTime",
          "type": "uint256"
        }
      ],
      "name": "GroupStarted",
      "type": "event"
    },
    {
      "anonymous": false,
      "inputs": [
        {
          "indexed": false,
          "internalType": "string",
          "name": "groupName",
          "type": "string"
        },
        {
          "indexed": false,
          "internalType": "address",
          "name": "member",
          "type": "address"
        },
        {
          "indexed": false,
          "internalType": "string",
          "name": "proof",
          "type": "string"
        }
      ],
      "name": "ProofSubmitted",
      "type": "event"
    },
    {
      "anonymous": false,
      "inputs": [
        {
          "indexed": false,
          "internalType": "string",
          "name": "groupName",
          "type": "string"
        },
        {
          "indexed": false,
          "internalType": "address",
          "name": "member",
          "type": "address"
        }
      ],
      "name": "VoteSubmitted",
      "type": "event"
    },
    {
      "inputs": [
        {
          "internalType": "string",
          "name": "_groupName",
          "type": "string"
        },
        {
          "internalType": "uint256",
          "name": "_durationDays",
          "type": "uint256"
        }
      ],
      "name": "createGroup",
      "outputs": [],
      "stateMutability": "nonpayable",
      "type": "function"
    },
    {
      "inputs": [
        {
          "internalType": "string",
          "name": "_groupName",
          "type": "string"
        }
      ],
      "name": "distribute",
      "outputs": [],
      "stateMutability": "nonpayable",
      "type": "function"
    },
    {
      "inputs": [
        {
          "internalType": "string",
          "name": "_groupName",
          "type": "string"
        },
        {
          "internalType": "string",
          "name": "_goalTitle",
          "type": "string"
        },
        {
          "internalType": "string",
          "name": "_goalDescription",
          "type": "string"
        },
        {
          "internalType": "uint256",
          "name": "_amount",
          "type": "uint256"
        }
      ],
      "name": "joinGroup",
      "outputs": [],
      "stateMutability": "nonpayable",
      "type": "function"
    },
    {
      "inputs": [
        {
          "internalType": "string",
          "name": "_groupName",
          "type": "string"
        }
      ],
      "name": "start",
      "outputs": [],
      "stateMutability": "nonpayable",
      "type": "function"
    },
    {
      "inputs": [
        {
          "internalType": "string",
          "name": "_groupName",
          "type": "string"
        },
        {
          "internalType": "string",
          "name": "_proof",
          "type": "string"
        }
      ],
      "name": "submitProof",
      "outputs": [],
      "stateMutability": "nonpayable",
      "type": "function"
    },
    {
      "inputs": [
        {
          "internalType": "string",
          "name": "_groupName",
          "type": "string"
        },
        {
          "internalType": "address[]",
          "name": "_vetoAddresses",
          "type": "address[]"
        }
      ],
      "name": "submitVetos",
      "outputs": [],
      "stateMutability": "nonpayable",
      "type": "function"
    }
  ],
  "bytecode": "0x60806040523480156200001157600080fd5b50604051620027f4380380620027f4833981810160405281019062000037919062000140565b81600160006101000a81548173ffffffffffffffffffffffffffffffffffffffff021916908373ffffffffffffffffffffffffffffffffffffffff16021790555080600281905550505062000187565b600080fd5b600073ffffffffffffffffffffffffffffffffffffffff82169050919050565b6000620000b9826200008c565b9050919050565b6000620000cd82620000ac565b9050919050565b620000df81620000c0565b8114620000eb57600080fd5b50565b600081519050620000ff81620000d4565b92915050565b6000819050919050565b6200011a8162000105565b81146200012657600080fd5b50565b6000815190506200013a816200010f565b92915050565b600080604083850312156200015a576200015962000087565b5b60006200016a85828601620000ee565b92505060206200017d8582860162000129565b9150509250929050565b61265d80620001976000396000f3fe608060405234801561001057600080fd5b50600436106100625760003560e01c8063258e60b614610067578063605c967e1461008357806377e591fb1461009f578063925ef60a146100bb578063e367fc6a146100d7578063fa778f44146100f3575b600080fd5b610081600480360381019061007c91906114a3565b61010f565b005b61009d600480360381019061009891906114f0565b6102dc565b005b6100b960048036038101906100b491906114a3565b610387565b005b6100d560048036038101906100d091906115a7565b610ae0565b005b6100f160048036038101906100ec9190611670565b6110a3565b005b61010d6004803603810190610108919061187d565b61124b565b005b818160008282604051610123929190611938565b908152602001604051809103902060050160009054906101000a900473ffffffffffffffffffffffffffffffffffffffff1673ffffffffffffffffffffffffffffffffffffffff163373ffffffffffffffffffffffffffffffffffffffff16146101c2576040517f08c379a00000000000000000000000000000000000000000000000000000000081526004016101b9906119ae565b60405180910390fd5b600084846040516101d4929190611938565b908152602001604051809103902060020160009054906101000a900460ff16610232576040517f08c379a000000000000000000000000000000000000000000000000000000000815260040161022990611a1a565b60405180910390fd5b600060025460008686604051610249929190611938565b9081526020016040518091039020600101546102659190611a69565b426102709190611aab565b90508060008686604051610285929190611938565b9081526020016040518091039020600301819055507f7e91cac5faa08a2bbcaaef70c65da452d7f73532d88ed580c107c08191db6fd08585836040516102cd93929190611b1b565b60405180910390a15050505050565b600084846040516102ee929190611938565b908152602001604051809103902060030154421115610342576040517f08c379a000000000000000000000000000000000000000000000000000000000815260040161033990611b99565b60405180910390fd5b7f02c6188cd57a0b3c5f8159e25b2ff452afdf33041e0b4728fe1729828c400ed98484338585604051610379959493929190611bc8565b60405180910390a150505050565b60008282604051610399929190611938565b908152602001604051809103902060020160009054906101000a900460ff166103f7576040517f08c379a00000000000000000000000000000000000000000000000000000000081526004016103ee90611a1a565b60405180910390fd5b600080838360405161040a929190611938565b9081526020016040518091039020600301540361045c576040517f08c379a000000000000000000000000000000000000000000000000000000000815260040161045390611c5d565b60405180910390fd5b426000838360405161046f929190611938565b90815260200160405180910390206003015411156104c2576040517f08c379a00000000000000000000000000000000000000000000000000000000081526004016104b990611cc9565b60405180910390fd5b600082826040516104d4929190611938565b908152602001604051809103902060060160009054906101000a9004600b0b600b0b60008383604051610508929190611938565b908152602001604051809103902060050160149054906101000a9004600b0b600b0b131561056b576040517f08c379a000000000000000000000000000000000000000000000000000000000815260040161056290611d35565b60405180910390fd5b6000805b60008484604051610581929190611938565b9081526020016040518091039020600701805490508110156106cb5760008085856040516105b0929190611938565b908152602001604051809103902060070182815481106105d3576105d2611d55565b5b906000526020600020906004020160000160009054906101000a900473ffffffffffffffffffffffffffffffffffffffff169050600060026000878760405161061d929190611938565b908152602001604051809103902060080160008473ffffffffffffffffffffffffffffffffffffffff1673ffffffffffffffffffffffffffffffffffffffff168152602001908152602001600020546106769190611a69565b90506000868660405161068a929190611938565b9081526020016040518091039020600701805490508110156106b6576001846106b39190611aab565b93505b505080806106c390611d84565b91505061056f565b5060008167ffffffffffffffff8111156106e8576106e76116e1565b5b6040519080825280602002602001820160405280156107165781602001602082028036833780820191505090505b5090506000805b6000868660405161072f929190611938565b9081526020016040518091039020600701805490508110156108c757600080878760405161075e929190611938565b9081526020016040518091039020600701828154811061078157610780611d55565b5b906000526020600020906004020160000160009054906101000a900473ffffffffffffffffffffffffffffffffffffffff16905060006002600089896040516107cb929190611938565b908152602001604051809103902060080160008473ffffffffffffffffffffffffffffffffffffffff1673ffffffffffffffffffffffffffffffffffffffff168152602001908152602001600020546108249190611a69565b905060008888604051610838929190611938565b9081526020016040518091039020600701805490508110156108b2578185858151811061086857610867611d55565b5b602002602001019073ffffffffffffffffffffffffffffffffffffffff16908173ffffffffffffffffffffffffffffffffffffffff16815250506001846108af9190611aab565b93505b505080806108bf90611d84565b91505061071d565b506000808351826108d89190611dfb565b905060005b8451811015610a9b57600185516108f49190611e2c565b81036109bc57600160009054906101000a900473ffffffffffffffffffffffffffffffffffffffff1673ffffffffffffffffffffffffffffffffffffffff166323b872dd3087848151811061094c5761094b611d55565b5b6020026020010151866040518463ffffffff1660e01b815260040161097393929190611e60565b6020604051808303816000875af1158015610992573d6000803e3d6000fd5b505050506040513d601f19601f820116820180604052508101906109b69190611ecf565b50610a7a565b600160009054906101000a900473ffffffffffffffffffffffffffffffffffffffff1673ffffffffffffffffffffffffffffffffffffffff166323b872dd30878481518110610a0e57610a0d611d55565b5b6020026020010151856040518463ffffffff1660e01b8152600401610a3593929190611e60565b6020604051808303816000875af1158015610a54573d6000803e3d6000fd5b505050506040513d601f19601f82011682018060405250810190610a789190611ecf565b505b8183610a869190611e2c565b92508080610a9390611d84565b9150506108dd565b507f6ef731bc401f8c1c7c1d45efe1031a96e3827e457aa5a9f9e030c89accbf1ad4878786604051610acf93929190611fba565b60405180910390a150505050505050565b60008787604051610af2929190611938565b908152602001604051809103902060020160009054906101000a900460ff16610b50576040517f08c379a0000000000000000000000000000000000000000000000000000000008152600401610b4790611a1a565b60405180910390fd5b60005b60008888604051610b65929190611938565b908152602001604051809103902060070180549050811015610c68573373ffffffffffffffffffffffffffffffffffffffff1660008989604051610baa929190611938565b90815260200160405180910390206007018281548110610bcd57610bcc611d55565b5b906000526020600020906004020160000160009054906101000a900473ffffffffffffffffffffffffffffffffffffffff1673ffffffffffffffffffffffffffffffffffffffff1603610c55576040517f08c379a0000000000000000000000000000000000000000000000000000000008152600401610c4c9061203f565b60405180910390fd5b8080610c6090611d84565b915050610b53565b5060008787604051610c7b929190611938565b908152602001604051809103902060070160405180608001604052803373ffffffffffffffffffffffffffffffffffffffff16815260200187878080601f016020809104026020016040519081016040528093929190818152602001838380828437600081840152601f19601f82011690508083019250505050505050815260200185858080601f016020809104026020016040519081016040528093929190818152602001838380828437600081840152601f19601f82011690508083019250505050505050815260200183815250908060018154018082558091505060019003906000526020600020906004020160009091909190915060008201518160000160006101000a81548173ffffffffffffffffffffffffffffffffffffffff021916908373ffffffffffffffffffffffffffffffffffffffff1602179055506020820151816001019081610dd09190612276565b506040820151816002019081610de69190612276565b50606082015181600301555050600160009054906101000a900473ffffffffffffffffffffffffffffffffffffffff1673ffffffffffffffffffffffffffffffffffffffff1663095ea7b333836040518363ffffffff1660e01b8152600401610e50929190612348565b6020604051808303816000875af1158015610e6f573d6000803e3d6000fd5b505050506040513d601f19601f82011682018060405250810190610e939190611ecf565b610ed2576040517f08c379a0000000000000000000000000000000000000000000000000000000008152600401610ec9906123bd565b60405180910390fd5b600160009054906101000a900473ffffffffffffffffffffffffffffffffffffffff1673ffffffffffffffffffffffffffffffffffffffff166323b872dd3330846040518463ffffffff1660e01b8152600401610f3193929190611e60565b6020604051808303816000875af1158015610f50573d6000803e3d6000fd5b505050506040513d601f19601f82011682018060405250810190610f749190611ecf565b610fb3576040517f08c379a0000000000000000000000000000000000000000000000000000000008152600401610faa90612429565b60405180910390fd5b60008787604051610fc5929190611938565b9081526020016040518091039020600501601481819054906101000a9004600b0b80929190610ff390612456565b91906101000a8154816bffffffffffffffffffffffff0219169083600b0b6bffffffffffffffffffffffff160217905550508060008888604051611038929190611938565b908152602001604051809103902060040160008282546110589190611aab565b925050819055507fa565c964821cebff69ed2469d1abe4b269a24aa9a0b0dbaec994b95eff553c468787336040516110929392919061248a565b60405180910390a150505050505050565b600083836040516110b5929190611938565b908152602001604051809103902060020160009054906101000a900460ff1615611114576040517f08c379a000000000000000000000000000000000000000000000000000000000815260040161110b90612508565b60405180910390fd5b828260008585604051611128929190611938565b90815260200160405180910390206000019182611146929190612533565b50806000848460405161115a929190611938565b908152602001604051809103902060010181905550600160008484604051611183929190611938565b908152602001604051809103902060020160006101000a81548160ff02191690831515021790555033600084846040516111be929190611938565b908152602001604051809103902060050160006101000a81548173ffffffffffffffffffffffffffffffffffffffff021916908373ffffffffffffffffffffffffffffffffffffffff1602179055507fb4082bf161f07af2ff5aed9b78e2cb1baf973ed4f2cc2e6e8e81a46752cc3345838360405161123e929190612603565b60405180910390a1505050565b6000838360405161125d929190611938565b908152602001604051809103902060020160009054906101000a900460ff166112bb576040517f08c379a00000000000000000000000000000000000000000000000000000000081526004016112b290611a1a565b60405180910390fd5b6000815111156113785760005b8151811015611376576001600085856040516112e5929190611938565b9081526020016040518091039020600801600084848151811061130b5761130a611d55565b5b602002602001015173ffffffffffffffffffffffffffffffffffffffff1673ffffffffffffffffffffffffffffffffffffffff168152602001908152602001600020600082825461135c9190611aab565b92505081905550808061136e90611d84565b9150506112c8565b505b6000838360405161138a929190611938565b9081526020016040518091039020600601600081819054906101000a9004600b0b809291906113b890612456565b91906101000a8154816bffffffffffffffffffffffff0219169083600b0b6bffffffffffffffffffffffff160217905550507f7b96772c86a9be9298551262ba509e4a7b0c1cdf17c281c4c5f52fd3668fbe0f83833360405161141d9392919061248a565b60405180910390a1505050565b6000604051905090565b600080fd5b600080fd5b600080fd5b600080fd5b600080fd5b60008083601f8401126114635761146261143e565b5b8235905067ffffffffffffffff8111156114805761147f611443565b5b60208301915083600182028301111561149c5761149b611448565b5b9250929050565b600080602083850312156114ba576114b9611434565b5b600083013567ffffffffffffffff8111156114d8576114d7611439565b5b6114e48582860161144d565b92509250509250929050565b6000806000806040858703121561150a57611509611434565b5b600085013567ffffffffffffffff81111561152857611527611439565b5b6115348782880161144d565b9450945050602085013567ffffffffffffffff81111561155757611556611439565b5b6115638782880161144d565b925092505092959194509250565b6000819050919050565b61158481611571565b811461158f57600080fd5b50565b6000813590506115a18161157b565b92915050565b60008060008060008060006080888a0312156115c6576115c5611434565b5b600088013567ffffffffffffffff8111156115e4576115e3611439565b5b6115f08a828b0161144d565b9750975050602088013567ffffffffffffffff81111561161357611612611439565b5b61161f8a828b0161144d565b9550955050604088013567ffffffffffffffff81111561164257611641611439565b5b61164e8a828b0161144d565b935093505060606116618a828b01611592565b91505092959891949750929550565b60008060006040848603121561168957611688611434565b5b600084013567ffffffffffffffff8111156116a7576116a6611439565b5b6116b38682870161144d565b935093505060206116c686828701611592565b9150509250925092565b6000601f19601f8301169050919050565b7f4e487b7100000000000000000000000000000000000000000000000000000000600052604160045260246000fd5b611719826116d0565b810181811067ffffffffffffffff82111715611738576117376116e1565b5b80604052505050565b600061174b61142a565b90506117578282611710565b919050565b600067ffffffffffffffff821115611777576117766116e1565b5b602082029050602081019050919050565b600073ffffffffffffffffffffffffffffffffffffffff82169050919050565b60006117b382611788565b9050919050565b6117c3816117a8565b81146117ce57600080fd5b50565b6000813590506117e0816117ba565b92915050565b60006117f96117f48461175c565b611741565b9050808382526020820190506020840283018581111561181c5761181b611448565b5b835b81811015611845578061183188826117d1565b84526020840193505060208101905061181e565b5050509392505050565b600082601f8301126118645761186361143e565b5b81356118748482602086016117e6565b91505092915050565b60008060006040848603121561189657611895611434565b5b600084013567ffffffffffffffff8111156118b4576118b3611439565b5b6118c08682870161144d565b9350935050602084013567ffffffffffffffff8111156118e3576118e2611439565b5b6118ef8682870161184f565b9150509250925092565b600081905092915050565b82818337600083830152505050565b600061191f83856118f9565b935061192c838584611904565b82840190509392505050565b6000611945828486611913565b91508190509392505050565b600082825260208201905092915050565b7f4f6e6c792067726f7570206f776e657200000000000000000000000000000000600082015250565b6000611998601083611951565b91506119a382611962565b602082019050919050565b600060208201905081810360008301526119c78161198b565b9050919050565b7f47726f757020646f6573206e6f74206578697374000000000000000000000000600082015250565b6000611a04601483611951565b9150611a0f826119ce565b602082019050919050565b60006020820190508181036000830152611a33816119f7565b9050919050565b7f4e487b7100000000000000000000000000000000000000000000000000000000600052601160045260246000fd5b6000611a7482611571565b9150611a7f83611571565b9250828202611a8d81611571565b91508282048414831517611aa457611aa3611a3a565b5b5092915050565b6000611ab682611571565b9150611ac183611571565b9250828201905080821115611ad957611ad8611a3a565b5b92915050565b6000611aeb8385611951565b9350611af8838584611904565b611b01836116d0565b840190509392505050565b611b1581611571565b82525050565b60006040820190508181036000830152611b36818587611adf565b9050611b456020830184611b0c565b949350505050565b7f47726f7570206578706972656400000000000000000000000000000000000000600082015250565b6000611b83600d83611951565b9150611b8e82611b4d565b602082019050919050565b60006020820190508181036000830152611bb281611b76565b9050919050565b611bc2816117a8565b82525050565b60006060820190508181036000830152611be3818789611adf565b9050611bf26020830186611bb9565b8181036040830152611c05818486611adf565b90509695505050505050565b7f47726f757020776173206e6f7420737461727465640000000000000000000000600082015250565b6000611c47601583611951565b9150611c5282611c11565b602082019050919050565b60006020820190508181036000830152611c7681611c3a565b9050919050565b7f47726f757020686173206e6f7420657870697265642079657400000000000000600082015250565b6000611cb3601983611951565b9150611cbe82611c7d565b602082019050919050565b60006020820190508181036000830152611ce281611ca6565b9050919050565b7f4e6f74206576657279626f64792068617320766f746564000000000000000000600082015250565b6000611d1f601783611951565b9150611d2a82611ce9565b602082019050919050565b60006020820190508181036000830152611d4e81611d12565b9050919050565b7f4e487b7100000000000000000000000000000000000000000000000000000000600052603260045260246000fd5b6000611d8f82611571565b91507fffffffffffffffffffffffffffffffffffffffffffffffffffffffffffffffff8203611dc157611dc0611a3a565b5b600182019050919050565b7f4e487b7100000000000000000000000000000000000000000000000000000000600052601260045260246000fd5b6000611e0682611571565b9150611e1183611571565b925082611e2157611e20611dcc565b5b828204905092915050565b6000611e3782611571565b9150611e4283611571565b9250828203905081811115611e5a57611e59611a3a565b5b92915050565b6000606082019050611e756000830186611bb9565b611e826020830185611bb9565b611e8f6040830184611b0c565b949350505050565b60008115159050919050565b611eac81611e97565b8114611eb757600080fd5b50565b600081519050611ec981611ea3565b92915050565b600060208284031215611ee557611ee4611434565b5b6000611ef384828501611eba565b91505092915050565b600081519050919050565b600082825260208201905092915050565b6000819050602082019050919050565b611f31816117a8565b82525050565b6000611f438383611f28565b60208301905092915050565b6000602082019050919050565b6000611f6782611efc565b611f718185611f07565b9350611f7c83611f18565b8060005b83811015611fad578151611f948882611f37565b9750611f9f83611f4f565b925050600181019050611f80565b5085935050505092915050565b60006040820190508181036000830152611fd5818587611adf565b90508181036020830152611fe98184611f5c565b9050949350505050565b7f416c7265616479207374616b6564000000000000000000000000000000000000600082015250565b6000612029600e83611951565b915061203482611ff3565b602082019050919050565b600060208201905081810360008301526120588161201c565b9050919050565b600081519050919050565b7f4e487b7100000000000000000000000000000000000000000000000000000000600052602260045260246000fd5b600060028204905060018216806120b157607f821691505b6020821081036120c4576120c361206a565b5b50919050565b60008190508160005260206000209050919050565b60006020601f8301049050919050565b600082821b905092915050565b60006008830261212c7fffffffffffffffffffffffffffffffffffffffffffffffffffffffffffffffff826120ef565b61213686836120ef565b95508019841693508086168417925050509392505050565b6000819050919050565b600061217361216e61216984611571565b61214e565b611571565b9050919050565b6000819050919050565b61218d83612158565b6121a16121998261217a565b8484546120fc565b825550505050565b600090565b6121b66121a9565b6121c1818484612184565b505050565b5b818110156121e5576121da6000826121ae565b6001810190506121c7565b5050565b601f82111561222a576121fb816120ca565b612204846120df565b81016020851015612213578190505b61222761221f856120df565b8301826121c6565b50505b505050565b600082821c905092915050565b600061224d6000198460080261222f565b1980831691505092915050565b6000612266838361223c565b9150826002028217905092915050565b61227f8261205f565b67ffffffffffffffff811115612298576122976116e1565b5b6122a28254612099565b6122ad8282856121e9565b600060209050601f8311600181146122e057600084156122ce578287015190505b6122d8858261225a565b865550612340565b601f1984166122ee866120ca565b60005b82811015612316578489015182556001820191506020850194506020810190506122f1565b86831015612333578489015161232f601f89168261223c565b8355505b6001600288020188555050505b505050505050565b600060408201905061235d6000830185611bb9565b61236a6020830184611b0c565b9392505050565b7f455243323020617070726f76616c206661696c65640000000000000000000000600082015250565b60006123a7601583611951565b91506123b282612371565b602082019050919050565b600060208201905081810360008301526123d68161239a565b9050919050565b7f4552433230207472616e73666572206661696c65640000000000000000000000600082015250565b6000612413601583611951565b915061241e826123dd565b602082019050919050565b6000602082019050818103600083015261244281612406565b9050919050565b600081600b0b9050919050565b600061246182612449565b91506b7fffffffffffffffffffffff820361247f5761247e611a3a565b5b600182019050919050565b600060408201905081810360008301526124a5818587611adf565b90506124b46020830184611bb9565b949350505050565b7f47726f757020616c726561647920657869737473000000000000000000000000600082015250565b60006124f2601483611951565b91506124fd826124bc565b602082019050919050565b60006020820190508181036000830152612521816124e5565b9050919050565b600082905092915050565b61253d8383612528565b67ffffffffffffffff811115612556576125556116e1565b5b6125608254612099565b61256b8282856121e9565b6000601f83116001811461259a5760008415612588578287013590505b612592858261225a565b8655506125fa565b601f1984166125a8866120ca565b60005b828110156125d0578489013582556001820191506020850194506020810190506125ab565b868310156125ed57848901356125e9601f89168261223c565b8355505b6001600288020188555050505b50505050505050565b6000602082019050818103600083015261261e818486611adf565b9050939250505056fea2646970667358221220a209df90108b5eedbccff972776fda86079da55bfa9c395c351de3d39619fcbb64736f6c63430008140033",
  "linkReferences": {},
  "deployedLinkReferences": {}
}