{
  "_format": "hh-sol-artifact-1",
  "contractName": "Goals",
  "sourceName": "contracts/Goals.sol",
  "abi": [
    {
      "inputs": [
        {
          "internalType": "contract IERC20",
          "name": "_stakingToken",
          "type": "address"
        },
        {
          "internalType": "uint256",
          "name": "_granularity",
          "type": "uint256"
        }
      ],
      "stateMutability": "nonpayable",
      "type": "constructor"
    },
    {
      "anonymous": false,
      "inputs": [
        {
          "indexed": false,
          "internalType": "string",
          "name": "groupName",
          "type": "string"
        }
      ],
      "name": "GroupCreated",
      "type": "event"
    },
    {
      "anonymous": false,
      "inputs": [
        {
          "indexed": false,
          "internalType": "string",
          "name": "groupName",
          "type": "string"
        },
        {
          "indexed": false,
          "internalType": "address[]",
          "name": "eligible",
          "type": "address[]"
        }
      ],
      "name": "GroupDistributed",
      "type": "event"
    },
    {
      "anonymous": false,
      "inputs": [
        {
          "indexed": false,
          "internalType": "string",
          "name": "groupName",
          "type": "string"
        },
        {
          "indexed": false,
          "internalType": "address",
          "name": "member",
          "type": "address"
        }
      ],
      "name": "GroupJoined",
      "type": "event"
    },
    {
      "anonymous": false,
      "inputs": [
        {
          "indexed": false,
          "internalType": "string",
          "name": "groupName",
          "type": "string"
        },
        {
          "indexed": false,
          "internalType": "uint256",
          "name": "endTime",
          "type": "uint256"
        }
      ],
      "name": "GroupStarted",
      "type": "event"
    },
    {
      "anonymous": false,
      "inputs": [
        {
          "indexed": false,
          "internalType": "string",
          "name": "groupName",
          "type": "string"
        },
        {
          "indexed": false,
          "internalType": "address",
          "name": "member",
          "type": "address"
        },
        {
          "indexed": false,
          "internalType": "string",
          "name": "proof",
          "type": "string"
        }
      ],
      "name": "ProofSubmitted",
      "type": "event"
    },
    {
      "anonymous": false,
      "inputs": [
        {
          "indexed": false,
          "internalType": "string",
          "name": "groupName",
          "type": "string"
        },
        {
          "indexed": false,
          "internalType": "address",
          "name": "member",
          "type": "address"
        }
      ],
      "name": "VoteSubmitted",
      "type": "event"
    },
    {
      "inputs": [
        {
          "internalType": "string",
          "name": "_groupName",
          "type": "string"
        },
        {
          "internalType": "uint256",
          "name": "_durationDays",
          "type": "uint256"
        }
      ],
      "name": "createGroup",
      "outputs": [],
      "stateMutability": "nonpayable",
      "type": "function"
    },
    {
      "inputs": [
        {
          "internalType": "string",
          "name": "_groupName",
          "type": "string"
        }
      ],
      "name": "distribute",
      "outputs": [],
      "stateMutability": "nonpayable",
      "type": "function"
    },
    {
      "inputs": [
        {
          "internalType": "string",
          "name": "_groupName",
          "type": "string"
        }
      ],
      "name": "getGroupOwner",
      "outputs": [
        {
          "internalType": "address",
          "name": "",
          "type": "address"
        }
      ],
      "stateMutability": "view",
      "type": "function"
    },
    {
      "inputs": [
        {
          "internalType": "string",
          "name": "_groupName",
          "type": "string"
        }
      ],
      "name": "getMembers",
      "outputs": [
        {
          "internalType": "address[]",
          "name": "",
          "type": "address[]"
        }
      ],
      "stateMutability": "view",
      "type": "function"
    },
    {
      "inputs": [
        {
          "internalType": "string",
          "name": "_groupName",
          "type": "string"
        }
      ],
      "name": "getProofs",
      "outputs": [
        {
          "components": [
            {
              "internalType": "address",
              "name": "source",
              "type": "address"
            },
            {
              "internalType": "string",
              "name": "proof",
              "type": "string"
            }
          ],
          "internalType": "struct Goals.Proof[]",
          "name": "",
          "type": "tuple[]"
        }
      ],
      "stateMutability": "view",
      "type": "function"
    },
    {
      "inputs": [
        {
          "internalType": "string",
          "name": "_groupName",
          "type": "string"
        },
        {
          "internalType": "string",
          "name": "_goalTitle",
          "type": "string"
        },
        {
          "internalType": "string",
          "name": "_goalDescription",
          "type": "string"
        },
        {
          "internalType": "uint256",
          "name": "_amount",
          "type": "uint256"
        }
      ],
      "name": "joinGroup",
      "outputs": [],
      "stateMutability": "nonpayable",
      "type": "function"
    },
    {
      "inputs": [
        {
          "internalType": "string",
          "name": "_groupName",
          "type": "string"
        }
      ],
      "name": "start",
      "outputs": [],
      "stateMutability": "nonpayable",
      "type": "function"
    },
    {
      "inputs": [
        {
          "internalType": "string",
          "name": "_groupName",
          "type": "string"
        },
        {
          "internalType": "string",
          "name": "_proof",
          "type": "string"
        }
      ],
      "name": "submitProof",
      "outputs": [],
      "stateMutability": "nonpayable",
      "type": "function"
    },
    {
      "inputs": [
        {
          "internalType": "string",
          "name": "_groupName",
          "type": "string"
        },
        {
          "internalType": "address[]",
          "name": "_vetoAddresses",
          "type": "address[]"
        }
      ],
      "name": "submitVetos",
      "outputs": [],
      "stateMutability": "nonpayable",
      "type": "function"
    }
  ],
  "bytecode": "0x60806040523480156200001157600080fd5b50604051620030b1380380620030b1833981810160405281019062000037919062000140565b81600160006101000a81548173ffffffffffffffffffffffffffffffffffffffff021916908373ffffffffffffffffffffffffffffffffffffffff16021790555080600281905550505062000187565b600080fd5b600073ffffffffffffffffffffffffffffffffffffffff82169050919050565b6000620000b9826200008c565b9050919050565b6000620000cd82620000ac565b9050919050565b620000df81620000c0565b8114620000eb57600080fd5b50565b600081519050620000ff81620000d4565b92915050565b6000819050919050565b6200011a8162000105565b81146200012657600080fd5b50565b6000815190506200013a816200010f565b92915050565b600080604083850312156200015a576200015962000087565b5b60006200016a85828601620000ee565b92505060206200017d8582860162000129565b9150509250929050565b612f1a80620001976000396000f3fe608060405234801561001057600080fd5b50600436106100935760003560e01c8063925ef60a11610066578063925ef60a1461011c578063991782f214610138578063c32880fd14610168578063e367fc6a14610198578063fa778f44146101b457610093565b8063258e60b61461009857806356250571146100b4578063605c967e146100e457806377e591fb14610100575b600080fd5b6100b260048036038101906100ad9190611b8e565b6101d0565b005b6100ce60048036038101906100c99190611b8e565b6103a1565b6040516100db9190611ccb565b60405180910390f35b6100fe60048036038101906100f99190611ced565b61058c565b005b61011a60048036038101906101159190611b8e565b6107c5565b005b61013660048036038101906101319190611da4565b610f22565b005b610152600480360381019061014d9190611b8e565b6114e9565b60405161015f9190611ffc565b60405180910390f35b610182600480360381019061017d9190611b8e565b6116c8565b60405161018f919061202d565b60405180910390f35b6101b260048036038101906101ad9190612048565b61178a565b005b6101ce60048036038101906101c99190612212565b611932565b005b8181600082826040516101e49291906122cd565b908152602001604051809103902060050160009054906101000a900473ffffffffffffffffffffffffffffffffffffffff1673ffffffffffffffffffffffffffffffffffffffff163373ffffffffffffffffffffffffffffffffffffffff1614610283576040517f08c379a000000000000000000000000000000000000000000000000000000000815260040161027a90612343565b60405180910390fd5b8383600082826040516102979291906122cd565b908152602001604051809103902060020160009054906101000a900460ff166102f5576040517f08c379a00000000000000000000000000000000000000000000000000000000081526004016102ec906123af565b60405180910390fd5b60006002546000888860405161030c9291906122cd565b90815260200160405180910390206001015461032891906123fe565b426103339190612440565b905080600088886040516103489291906122cd565b9081526020016040518091039020600301819055507f7e91cac5faa08a2bbcaaef70c65da452d7f73532d88ed580c107c08191db6fd0878783604051610390939291906124b0565b60405180910390a150505050505050565b60608282600082826040516103b79291906122cd565b908152602001604051809103902060020160009054906101000a900460ff16610415576040517f08c379a000000000000000000000000000000000000000000000000000000000815260040161040c906123af565b60405180910390fd5b60008086866040516104289291906122cd565b90815260200160405180910390206007018054905067ffffffffffffffff811115610456576104556120a8565b5b6040519080825280602002602001820160405280156104845781602001602082028036833780820191505090505b50905060005b6000878760405161049c9291906122cd565b90815260200160405180910390206007018054905081101561057f57600087876040516104ca9291906122cd565b908152602001604051809103902060070181815481106104ed576104ec6124e2565b5b906000526020600020906004020160000160009054906101000a900473ffffffffffffffffffffffffffffffffffffffff16828281518110610532576105316124e2565b5b602002602001019073ffffffffffffffffffffffffffffffffffffffff16908173ffffffffffffffffffffffffffffffffffffffff1681525050808061057790612511565b91505061048a565b5080935050505092915050565b8383600082826040516105a09291906122cd565b908152602001604051809103902060020160009054906101000a900460ff166105fe576040517f08c379a00000000000000000000000000000000000000000000000000000000081526004016105f5906123af565b60405180910390fd5b600086866040516106109291906122cd565b908152602001604051809103902060030154421115610664576040517f08c379a000000000000000000000000000000000000000000000000000000000815260040161065b906125a5565b60405180910390fd5b600086866040516106769291906122cd565b908152602001604051809103902060080160405180604001604052803373ffffffffffffffffffffffffffffffffffffffff16815260200186868080601f016020809104026020016040519081016040528093929190818152602001838380828437600081840152601f19601f82011690508083019250505050505050815250908060018154018082558091505060019003906000526020600020906002020160009091909190915060008201518160000160006101000a81548173ffffffffffffffffffffffffffffffffffffffff021916908373ffffffffffffffffffffffffffffffffffffffff160217905550602082015181600101908161077b91906127d1565b5050507f02c6188cd57a0b3c5f8159e25b2ff452afdf33041e0b4728fe1729828c400ed986863387876040516107b59594939291906128a3565b60405180910390a1505050505050565b8181600082826040516107d99291906122cd565b908152602001604051809103902060020160009054906101000a900460ff16610837576040517f08c379a000000000000000000000000000000000000000000000000000000000815260040161082e906123af565b60405180910390fd5b600080858560405161084a9291906122cd565b9081526020016040518091039020600301540361089c576040517f08c379a000000000000000000000000000000000000000000000000000000000815260040161089390612938565b60405180910390fd5b42600085856040516108af9291906122cd565b9081526020016040518091039020600301541115610902576040517f08c379a00000000000000000000000000000000000000000000000000000000081526004016108f9906129a4565b60405180910390fd5b600084846040516109149291906122cd565b908152602001604051809103902060060160009054906101000a9004600b0b600b0b600085856040516109489291906122cd565b908152602001604051809103902060050160149054906101000a9004600b0b600b0b13156109ab576040517f08c379a00000000000000000000000000000000000000000000000000000000081526004016109a290612a10565b60405180910390fd5b6000805b600086866040516109c19291906122cd565b908152602001604051809103902060070180549050811015610b0b5760008087876040516109f09291906122cd565b90815260200160405180910390206007018281548110610a1357610a126124e2565b5b906000526020600020906004020160000160009054906101000a900473ffffffffffffffffffffffffffffffffffffffff1690506000600260008989604051610a5d9291906122cd565b908152602001604051809103902060090160008473ffffffffffffffffffffffffffffffffffffffff1673ffffffffffffffffffffffffffffffffffffffff16815260200190815260200160002054610ab691906123fe565b905060008888604051610aca9291906122cd565b908152602001604051809103902060070180549050811015610af657600184610af39190612440565b93505b50508080610b0390612511565b9150506109af565b5060008167ffffffffffffffff811115610b2857610b276120a8565b5b604051908082528060200260200182016040528015610b565781602001602082028036833780820191505090505b5090506000805b60008888604051610b6f9291906122cd565b908152602001604051809103902060070180549050811015610d07576000808989604051610b9e9291906122cd565b90815260200160405180910390206007018281548110610bc157610bc06124e2565b5b906000526020600020906004020160000160009054906101000a900473ffffffffffffffffffffffffffffffffffffffff1690506000600260008b8b604051610c0b9291906122cd565b908152602001604051809103902060090160008473ffffffffffffffffffffffffffffffffffffffff1673ffffffffffffffffffffffffffffffffffffffff16815260200190815260200160002054610c6491906123fe565b905060008a8a604051610c789291906122cd565b908152602001604051809103902060070180549050811015610cf25781858581518110610ca857610ca76124e2565b5b602002602001019073ffffffffffffffffffffffffffffffffffffffff16908173ffffffffffffffffffffffffffffffffffffffff1681525050600184610cef9190612440565b93505b50508080610cff90612511565b915050610b5d565b50600080835182610d189190612a5f565b905060005b8451811015610edb5760018551610d349190612a90565b8103610dfc57600160009054906101000a900473ffffffffffffffffffffffffffffffffffffffff1673ffffffffffffffffffffffffffffffffffffffff166323b872dd30878481518110610d8c57610d8b6124e2565b5b6020026020010151866040518463ffffffff1660e01b8152600401610db393929190612ac4565b6020604051808303816000875af1158015610dd2573d6000803e3d6000fd5b505050506040513d601f19601f82011682018060405250810190610df69190612b33565b50610eba565b600160009054906101000a900473ffffffffffffffffffffffffffffffffffffffff1673ffffffffffffffffffffffffffffffffffffffff166323b872dd30878481518110610e4e57610e4d6124e2565b5b6020026020010151856040518463ffffffff1660e01b8152600401610e7593929190612ac4565b6020604051808303816000875af1158015610e94573d6000803e3d6000fd5b505050506040513d601f19601f82011682018060405250810190610eb89190612b33565b505b8183610ec69190612a90565b92508080610ed390612511565b915050610d1d565b507f6ef731bc401f8c1c7c1d45efe1031a96e3827e457aa5a9f9e030c89accbf1ad4898986604051610f0f93929190612b60565b60405180910390a1505050505050505050565b868660008282604051610f369291906122cd565b908152602001604051809103902060020160009054906101000a900460ff16610f94576040517f08c379a0000000000000000000000000000000000000000000000000000000008152600401610f8b906123af565b60405180910390fd5b60005b60008a8a604051610fa99291906122cd565b9081526020016040518091039020600701805490508110156110ac573373ffffffffffffffffffffffffffffffffffffffff1660008b8b604051610fee9291906122cd565b90815260200160405180910390206007018281548110611011576110106124e2565b5b906000526020600020906004020160000160009054906101000a900473ffffffffffffffffffffffffffffffffffffffff1673ffffffffffffffffffffffffffffffffffffffff1603611099576040517f08c379a000000000000000000000000000000000000000000000000000000000815260040161109090612be5565b60405180910390fd5b80806110a490612511565b915050610f97565b50600089896040516110bf9291906122cd565b908152602001604051809103902060070160405180608001604052803373ffffffffffffffffffffffffffffffffffffffff16815260200189898080601f016020809104026020016040519081016040528093929190818152602001838380828437600081840152601f19601f82011690508083019250505050505050815260200187878080601f016020809104026020016040519081016040528093929190818152602001838380828437600081840152601f19601f82011690508083019250505050505050815260200185815250908060018154018082558091505060019003906000526020600020906004020160009091909190915060008201518160000160006101000a81548173ffffffffffffffffffffffffffffffffffffffff021916908373ffffffffffffffffffffffffffffffffffffffff160217905550602082015181600101908161121491906127d1565b50604082015181600201908161122a91906127d1565b50606082015181600301555050600160009054906101000a900473ffffffffffffffffffffffffffffffffffffffff1673ffffffffffffffffffffffffffffffffffffffff1663095ea7b333856040518363ffffffff1660e01b8152600401611294929190612c05565b6020604051808303816000875af11580156112b3573d6000803e3d6000fd5b505050506040513d601f19601f820116820180604052508101906112d79190612b33565b611316576040517f08c379a000000000000000000000000000000000000000000000000000000000815260040161130d90612c7a565b60405180910390fd5b600160009054906101000a900473ffffffffffffffffffffffffffffffffffffffff1673ffffffffffffffffffffffffffffffffffffffff166323b872dd3330866040518463ffffffff1660e01b815260040161137593929190612ac4565b6020604051808303816000875af1158015611394573d6000803e3d6000fd5b505050506040513d601f19601f820116820180604052508101906113b89190612b33565b6113f7576040517f08c379a00000000000000000000000000000000000000000000000000000000081526004016113ee90612ce6565b60405180910390fd5b600089896040516114099291906122cd565b9081526020016040518091039020600501601481819054906101000a9004600b0b8092919061143790612d13565b91906101000a8154816bffffffffffffffffffffffff0219169083600b0b6bffffffffffffffffffffffff160217905550508260008a8a60405161147c9291906122cd565b9081526020016040518091039020600401600082825461149c9190612440565b925050819055507fa565c964821cebff69ed2469d1abe4b269a24aa9a0b0dbaec994b95eff553c468989336040516114d693929190612d47565b60405180910390a1505050505050505050565b60608282600082826040516114ff9291906122cd565b908152602001604051809103902060020160009054906101000a900460ff1661155d576040517f08c379a0000000000000000000000000000000000000000000000000000000008152600401611554906123af565b60405180910390fd5b6000858560405161156f9291906122cd565b9081526020016040518091039020600801805480602002602001604051908101604052809291908181526020016000905b828210156116ba57838290600052602060002090600202016040518060400160405290816000820160009054906101000a900473ffffffffffffffffffffffffffffffffffffffff1673ffffffffffffffffffffffffffffffffffffffff1673ffffffffffffffffffffffffffffffffffffffff168152602001600182018054611629906125f4565b80601f0160208091040260200160405190810160405280929190818152602001828054611655906125f4565b80156116a25780601f10611677576101008083540402835291602001916116a2565b820191906000526020600020905b81548152906001019060200180831161168557829003601f168201915b505050505081525050815260200190600101906115a0565b505050509250505092915050565b60008282600082826040516116de9291906122cd565b908152602001604051809103902060020160009054906101000a900460ff1661173c576040517f08c379a0000000000000000000000000000000000000000000000000000000008152600401611733906123af565b60405180910390fd5b6000858560405161174e9291906122cd565b908152602001604051809103902060050160009054906101000a900473ffffffffffffffffffffffffffffffffffffffff169250505092915050565b6000838360405161179c9291906122cd565b908152602001604051809103902060020160009054906101000a900460ff16156117fb576040517f08c379a00000000000000000000000000000000000000000000000000000000081526004016117f290612dc5565b60405180910390fd5b82826000858560405161180f9291906122cd565b9081526020016040518091039020600001918261182d929190612df0565b5080600084846040516118419291906122cd565b90815260200160405180910390206001018190555060016000848460405161186a9291906122cd565b908152602001604051809103902060020160006101000a81548160ff02191690831515021790555033600084846040516118a59291906122cd565b908152602001604051809103902060050160006101000a81548173ffffffffffffffffffffffffffffffffffffffff021916908373ffffffffffffffffffffffffffffffffffffffff1602179055507fb4082bf161f07af2ff5aed9b78e2cb1baf973ed4f2cc2e6e8e81a46752cc33458383604051611925929190612ec0565b60405180910390a1505050565b8282600082826040516119469291906122cd565b908152602001604051809103902060020160009054906101000a900460ff166119a4576040517f08c379a000000000000000000000000000000000000000000000000000000000815260040161199b906123af565b60405180910390fd5b600083511115611a615760005b8351811015611a5f576001600087876040516119ce9291906122cd565b908152602001604051809103902060090160008684815181106119f4576119f36124e2565b5b602002602001015173ffffffffffffffffffffffffffffffffffffffff1673ffffffffffffffffffffffffffffffffffffffff1681526020019081526020016000206000828254611a459190612440565b925050819055508080611a5790612511565b9150506119b1565b505b60008585604051611a739291906122cd565b9081526020016040518091039020600601600081819054906101000a9004600b0b80929190611aa190612d13565b91906101000a8154816bffffffffffffffffffffffff0219169083600b0b6bffffffffffffffffffffffff160217905550507f7b96772c86a9be9298551262ba509e4a7b0c1cdf17c281c4c5f52fd3668fbe0f858533604051611b0693929190612d47565b60405180910390a15050505050565b6000604051905090565b600080fd5b600080fd5b600080fd5b600080fd5b600080fd5b60008083601f840112611b4e57611b4d611b29565b5b8235905067ffffffffffffffff811115611b6b57611b6a611b2e565b5b602083019150836001820283011115611b8757611b86611b33565b5b9250929050565b60008060208385031215611ba557611ba4611b1f565b5b600083013567ffffffffffffffff811115611bc357611bc2611b24565b5b611bcf85828601611b38565b92509250509250929050565b600081519050919050565b600082825260208201905092915050565b6000819050602082019050919050565b600073ffffffffffffffffffffffffffffffffffffffff82169050919050565b6000611c3282611c07565b9050919050565b611c4281611c27565b82525050565b6000611c548383611c39565b60208301905092915050565b6000602082019050919050565b6000611c7882611bdb565b611c828185611be6565b9350611c8d83611bf7565b8060005b83811015611cbe578151611ca58882611c48565b9750611cb083611c60565b925050600181019050611c91565b5085935050505092915050565b60006020820190508181036000830152611ce58184611c6d565b905092915050565b60008060008060408587031215611d0757611d06611b1f565b5b600085013567ffffffffffffffff811115611d2557611d24611b24565b5b611d3187828801611b38565b9450945050602085013567ffffffffffffffff811115611d5457611d53611b24565b5b611d6087828801611b38565b925092505092959194509250565b6000819050919050565b611d8181611d6e565b8114611d8c57600080fd5b50565b600081359050611d9e81611d78565b92915050565b60008060008060008060006080888a031215611dc357611dc2611b1f565b5b600088013567ffffffffffffffff811115611de157611de0611b24565b5b611ded8a828b01611b38565b9750975050602088013567ffffffffffffffff811115611e1057611e0f611b24565b5b611e1c8a828b01611b38565b9550955050604088013567ffffffffffffffff811115611e3f57611e3e611b24565b5b611e4b8a828b01611b38565b93509350506060611e5e8a828b01611d8f565b91505092959891949750929550565b600081519050919050565b600082825260208201905092915050565b6000819050602082019050919050565b600081519050919050565b600082825260208201905092915050565b60005b83811015611ed3578082015181840152602081019050611eb8565b60008484015250505050565b6000601f19601f8301169050919050565b6000611efb82611e99565b611f058185611ea4565b9350611f15818560208601611eb5565b611f1e81611edf565b840191505092915050565b6000604083016000830151611f416000860182611c39565b5060208301518482036020860152611f598282611ef0565b9150508091505092915050565b6000611f728383611f29565b905092915050565b6000602082019050919050565b6000611f9282611e6d565b611f9c8185611e78565b935083602082028501611fae85611e89565b8060005b85811015611fea5784840389528151611fcb8582611f66565b9450611fd683611f7a565b925060208a01995050600181019050611fb2565b50829750879550505050505092915050565b600060208201905081810360008301526120168184611f87565b905092915050565b61202781611c27565b82525050565b6000602082019050612042600083018461201e565b92915050565b60008060006040848603121561206157612060611b1f565b5b600084013567ffffffffffffffff81111561207f5761207e611b24565b5b61208b86828701611b38565b9350935050602061209e86828701611d8f565b9150509250925092565b7f4e487b7100000000000000000000000000000000000000000000000000000000600052604160045260246000fd5b6120e082611edf565b810181811067ffffffffffffffff821117156120ff576120fe6120a8565b5b80604052505050565b6000612112611b15565b905061211e82826120d7565b919050565b600067ffffffffffffffff82111561213e5761213d6120a8565b5b602082029050602081019050919050565b61215881611c27565b811461216357600080fd5b50565b6000813590506121758161214f565b92915050565b600061218e61218984612123565b612108565b905080838252602082019050602084028301858111156121b1576121b0611b33565b5b835b818110156121da57806121c68882612166565b8452602084019350506020810190506121b3565b5050509392505050565b600082601f8301126121f9576121f8611b29565b5b813561220984826020860161217b565b91505092915050565b60008060006040848603121561222b5761222a611b1f565b5b600084013567ffffffffffffffff81111561224957612248611b24565b5b61225586828701611b38565b9350935050602084013567ffffffffffffffff81111561227857612277611b24565b5b612284868287016121e4565b9150509250925092565b600081905092915050565b82818337600083830152505050565b60006122b4838561228e565b93506122c1838584612299565b82840190509392505050565b60006122da8284866122a8565b91508190509392505050565b600082825260208201905092915050565b7f4f6e6c792067726f7570206f776e657200000000000000000000000000000000600082015250565b600061232d6010836122e6565b9150612338826122f7565b602082019050919050565b6000602082019050818103600083015261235c81612320565b9050919050565b7f47726f757020646f6573206e6f74206578697374000000000000000000000000600082015250565b60006123996014836122e6565b91506123a482612363565b602082019050919050565b600060208201905081810360008301526123c88161238c565b9050919050565b7f4e487b7100000000000000000000000000000000000000000000000000000000600052601160045260246000fd5b600061240982611d6e565b915061241483611d6e565b925082820261242281611d6e565b91508282048414831517612439576124386123cf565b5b5092915050565b600061244b82611d6e565b915061245683611d6e565b925082820190508082111561246e5761246d6123cf565b5b92915050565b600061248083856122e6565b935061248d838584612299565b61249683611edf565b840190509392505050565b6124aa81611d6e565b82525050565b600060408201905081810360008301526124cb818587612474565b90506124da60208301846124a1565b949350505050565b7f4e487b7100000000000000000000000000000000000000000000000000000000600052603260045260246000fd5b600061251c82611d6e565b91507fffffffffffffffffffffffffffffffffffffffffffffffffffffffffffffffff820361254e5761254d6123cf565b5b600182019050919050565b7f47726f7570206578706972656400000000000000000000000000000000000000600082015250565b600061258f600d836122e6565b915061259a82612559565b602082019050919050565b600060208201905081810360008301526125be81612582565b9050919050565b7f4e487b7100000000000000000000000000000000000000000000000000000000600052602260045260246000fd5b6000600282049050600182168061260c57607f821691505b60208210810361261f5761261e6125c5565b5b50919050565b60008190508160005260206000209050919050565b60006020601f8301049050919050565b600082821b905092915050565b6000600883026126877fffffffffffffffffffffffffffffffffffffffffffffffffffffffffffffffff8261264a565b612691868361264a565b95508019841693508086168417925050509392505050565b6000819050919050565b60006126ce6126c96126c484611d6e565b6126a9565b611d6e565b9050919050565b6000819050919050565b6126e8836126b3565b6126fc6126f4826126d5565b848454612657565b825550505050565b600090565b612711612704565b61271c8184846126df565b505050565b5b8181101561274057612735600082612709565b600181019050612722565b5050565b601f8211156127855761275681612625565b61275f8461263a565b8101602085101561276e578190505b61278261277a8561263a565b830182612721565b50505b505050565b600082821c905092915050565b60006127a86000198460080261278a565b1980831691505092915050565b60006127c18383612797565b9150826002028217905092915050565b6127da82611e99565b67ffffffffffffffff8111156127f3576127f26120a8565b5b6127fd82546125f4565b612808828285612744565b600060209050601f83116001811461283b5760008415612829578287015190505b61283385826127b5565b86555061289b565b601f19841661284986612625565b60005b828110156128715784890151825560018201915060208501945060208101905061284c565b8683101561288e578489015161288a601f891682612797565b8355505b6001600288020188555050505b505050505050565b600060608201905081810360008301526128be818789612474565b90506128cd602083018661201e565b81810360408301526128e0818486612474565b90509695505050505050565b7f47726f757020776173206e6f7420737461727465640000000000000000000000600082015250565b60006129226015836122e6565b915061292d826128ec565b602082019050919050565b6000602082019050818103600083015261295181612915565b9050919050565b7f47726f757020686173206e6f7420657870697265642079657400000000000000600082015250565b600061298e6019836122e6565b915061299982612958565b602082019050919050565b600060208201905081810360008301526129bd81612981565b9050919050565b7f4e6f74206576657279626f64792068617320766f746564000000000000000000600082015250565b60006129fa6017836122e6565b9150612a05826129c4565b602082019050919050565b60006020820190508181036000830152612a29816129ed565b9050919050565b7f4e487b7100000000000000000000000000000000000000000000000000000000600052601260045260246000fd5b6000612a6a82611d6e565b9150612a7583611d6e565b925082612a8557612a84612a30565b5b828204905092915050565b6000612a9b82611d6e565b9150612aa683611d6e565b9250828203905081811115612abe57612abd6123cf565b5b92915050565b6000606082019050612ad9600083018661201e565b612ae6602083018561201e565b612af360408301846124a1565b949350505050565b60008115159050919050565b612b1081612afb565b8114612b1b57600080fd5b50565b600081519050612b2d81612b07565b92915050565b600060208284031215612b4957612b48611b1f565b5b6000612b5784828501612b1e565b91505092915050565b60006040820190508181036000830152612b7b818587612474565b90508181036020830152612b8f8184611c6d565b9050949350505050565b7f416c7265616479207374616b6564000000000000000000000000000000000000600082015250565b6000612bcf600e836122e6565b9150612bda82612b99565b602082019050919050565b60006020820190508181036000830152612bfe81612bc2565b9050919050565b6000604082019050612c1a600083018561201e565b612c2760208301846124a1565b9392505050565b7f455243323020617070726f76616c206661696c65640000000000000000000000600082015250565b6000612c646015836122e6565b9150612c6f82612c2e565b602082019050919050565b60006020820190508181036000830152612c9381612c57565b9050919050565b7f4552433230207472616e73666572206661696c65640000000000000000000000600082015250565b6000612cd06015836122e6565b9150612cdb82612c9a565b602082019050919050565b60006020820190508181036000830152612cff81612cc3565b9050919050565b600081600b0b9050919050565b6000612d1e82612d06565b91506b7fffffffffffffffffffffff8203612d3c57612d3b6123cf565b5b600182019050919050565b60006040820190508181036000830152612d62818587612474565b9050612d71602083018461201e565b949350505050565b7f47726f757020616c726561647920657869737473000000000000000000000000600082015250565b6000612daf6014836122e6565b9150612dba82612d79565b602082019050919050565b60006020820190508181036000830152612dde81612da2565b9050919050565b600082905092915050565b612dfa8383612de5565b67ffffffffffffffff811115612e1357612e126120a8565b5b612e1d82546125f4565b612e28828285612744565b6000601f831160018114612e575760008415612e45578287013590505b612e4f85826127b5565b865550612eb7565b601f198416612e6586612625565b60005b82811015612e8d57848901358255600182019150602085019450602081019050612e68565b86831015612eaa5784890135612ea6601f891682612797565b8355505b6001600288020188555050505b50505050505050565b60006020820190508181036000830152612edb818486612474565b9050939250505056fea26469706673582212204d332218effaa1b0a520d7601a130efe768af75f4fdc0025ef7e2e9809d6c57164736f6c63430008140033",
  "linkReferences": {},
  "deployedLinkReferences": {}
}