{
  "_format": "hh-sol-artifact-1",
  "contractName": "Goals",
  "sourceName": "contracts/Goals.sol",
  "abi": [
    {
      "inputs": [
        {
          "internalType": "contract IERC20",
          "name": "_stakingToken",
          "type": "address"
        },
        {
          "internalType": "uint256",
          "name": "_granularity",
          "type": "uint256"
        }
      ],
      "stateMutability": "nonpayable",
      "type": "constructor"
    },
    {
      "anonymous": false,
      "inputs": [
        {
          "indexed": false,
          "internalType": "string",
          "name": "groupName",
          "type": "string"
        }
      ],
      "name": "GroupCreated",
      "type": "event"
    },
    {
      "anonymous": false,
      "inputs": [
        {
          "indexed": false,
          "internalType": "string",
          "name": "groupName",
          "type": "string"
        },
        {
          "indexed": false,
          "internalType": "address[]",
          "name": "eligible",
          "type": "address[]"
        }
      ],
      "name": "GroupDistributed",
      "type": "event"
    },
    {
      "anonymous": false,
      "inputs": [
        {
          "indexed": false,
          "internalType": "string",
          "name": "groupName",
          "type": "string"
        },
        {
          "indexed": false,
          "internalType": "address",
          "name": "member",
          "type": "address"
        }
      ],
      "name": "GroupJoined",
      "type": "event"
    },
    {
      "anonymous": false,
      "inputs": [
        {
          "indexed": false,
          "internalType": "string",
          "name": "groupName",
          "type": "string"
        },
        {
          "indexed": false,
          "internalType": "uint256",
          "name": "endTime",
          "type": "uint256"
        }
      ],
      "name": "GroupStarted",
      "type": "event"
    },
    {
      "anonymous": false,
      "inputs": [
        {
          "indexed": false,
          "internalType": "string",
          "name": "groupName",
          "type": "string"
        },
        {
          "indexed": false,
          "internalType": "address",
          "name": "member",
          "type": "address"
        },
        {
          "indexed": false,
          "internalType": "string",
          "name": "proof",
          "type": "string"
        }
      ],
      "name": "ProofSubmitted",
      "type": "event"
    },
    {
      "anonymous": false,
      "inputs": [
        {
          "indexed": false,
          "internalType": "string",
          "name": "groupName",
          "type": "string"
        },
        {
          "indexed": false,
          "internalType": "address",
          "name": "member",
          "type": "address"
        }
      ],
      "name": "VoteSubmitted",
      "type": "event"
    },
    {
      "inputs": [
        {
          "internalType": "string",
          "name": "_groupName",
          "type": "string"
        },
        {
          "internalType": "uint256",
          "name": "_durationDays",
          "type": "uint256"
        },
        {
          "internalType": "uint256",
          "name": "_amount",
          "type": "uint256"
        }
      ],
      "name": "createGroup",
      "outputs": [],
      "stateMutability": "nonpayable",
      "type": "function"
    },
    {
      "inputs": [
        {
          "internalType": "string",
          "name": "_groupName",
          "type": "string"
        }
      ],
      "name": "distribute",
      "outputs": [],
      "stateMutability": "nonpayable",
      "type": "function"
    },
    {
      "inputs": [
        {
          "internalType": "string",
          "name": "_groupName",
          "type": "string"
        }
      ],
      "name": "getMembers",
      "outputs": [
        {
          "components": [
            {
              "internalType": "address",
              "name": "source",
              "type": "address"
            },
            {
              "internalType": "string",
              "name": "goalTitle",
              "type": "string"
            },
            {
              "internalType": "string",
              "name": "goalDescription",
              "type": "string"
            },
            {
              "internalType": "uint256",
              "name": "stake",
              "type": "uint256"
            }
          ],
          "internalType": "struct Goals.Stake[]",
          "name": "",
          "type": "tuple[]"
        }
      ],
      "stateMutability": "view",
      "type": "function"
    },
    {
      "inputs": [
        {
          "internalType": "string",
          "name": "_groupName",
          "type": "string"
        }
      ],
      "name": "groupExists",
      "outputs": [
        {
          "internalType": "bool",
          "name": "",
          "type": "bool"
        }
      ],
      "stateMutability": "view",
      "type": "function"
    },
    {
      "inputs": [
        {
          "internalType": "string",
          "name": "",
          "type": "string"
        }
      ],
      "name": "groups",
      "outputs": [
        {
          "internalType": "string",
          "name": "groupName",
          "type": "string"
        },
        {
          "internalType": "uint256",
          "name": "durationDays",
          "type": "uint256"
        },
        {
          "internalType": "bool",
          "name": "isValue",
          "type": "bool"
        },
        {
          "internalType": "uint256",
          "name": "endTime",
          "type": "uint256"
        },
        {
          "internalType": "uint256",
          "name": "totalStake",
          "type": "uint256"
        },
        {
          "internalType": "uint256",
          "name": "baseAmount",
          "type": "uint256"
        },
        {
          "internalType": "address",
          "name": "groupOwner",
          "type": "address"
        },
        {
          "internalType": "int96",
          "name": "numberMembers",
          "type": "int96"
        },
        {
          "internalType": "int96",
          "name": "numberVotes",
          "type": "int96"
        }
      ],
      "stateMutability": "view",
      "type": "function"
    },
    {
      "inputs": [
        {
          "internalType": "string",
          "name": "_groupName",
          "type": "string"
        },
        {
          "internalType": "string",
          "name": "_goalTitle",
          "type": "string"
        },
        {
          "internalType": "string",
          "name": "_goalDescription",
          "type": "string"
        }
      ],
      "name": "joinGroup",
      "outputs": [],
      "stateMutability": "nonpayable",
      "type": "function"
    },
    {
      "inputs": [
        {
          "internalType": "string",
          "name": "_groupName",
          "type": "string"
        }
      ],
      "name": "start",
      "outputs": [],
      "stateMutability": "nonpayable",
      "type": "function"
    },
    {
      "inputs": [
        {
          "internalType": "string",
          "name": "_groupName",
          "type": "string"
        },
        {
          "internalType": "string",
          "name": "_proof",
          "type": "string"
        }
      ],
      "name": "submitProof",
      "outputs": [],
      "stateMutability": "nonpayable",
      "type": "function"
    },
    {
      "inputs": [
        {
          "internalType": "string",
          "name": "_groupName",
          "type": "string"
        },
        {
          "internalType": "address[]",
          "name": "_vetoAddresses",
          "type": "address[]"
        }
      ],
      "name": "submitVetos",
      "outputs": [],
      "stateMutability": "nonpayable",
      "type": "function"
    }
  ],
  "bytecode": "0x60806040523480156200001157600080fd5b50604051620031be380380620031be833981810160405281019062000037919062000140565b81600160006101000a81548173ffffffffffffffffffffffffffffffffffffffff021916908373ffffffffffffffffffffffffffffffffffffffff16021790555080600281905550505062000187565b600080fd5b600073ffffffffffffffffffffffffffffffffffffffff82169050919050565b6000620000b9826200008c565b9050919050565b6000620000cd82620000ac565b9050919050565b620000df81620000c0565b8114620000eb57600080fd5b50565b600081519050620000ff81620000d4565b92915050565b6000819050919050565b6200011a8162000105565b81146200012657600080fd5b50565b6000815190506200013a816200010f565b92915050565b600080604083850312156200015a576200015962000087565b5b60006200016a85828601620000ee565b92505060206200017d8582860162000129565b9150509250929050565b61302780620001976000396000f3fe608060405234801561001057600080fd5b50600436106100935760003560e01c80636d620a33116100665780636d620a33146101385780636e01de301461015457806377e591fb14610170578063cdd781e21461018c578063fa778f44146101bc57610093565b8063258e60b61461009857806356250571146100b4578063605c967e146100e45780636b52230b14610100575b600080fd5b6100b260048036038101906100ad9190611a66565b6101d8565b005b6100ce60048036038101906100c99190611a66565b6103a5565b6040516100db9190611cc9565b60405180910390f35b6100fe60048036038101906100f99190611ceb565b61063f565b005b61011a60048036038101906101159190611e9c565b6106ea565b60405161012f99989796959493929190611f84565b60405180910390f35b610152600480360381019061014d9190612018565b61081d565b005b61016e600480360381019061016991906120f8565b610e6c565b005b61018a60048036038101906101859190611a66565b61103d565b005b6101a660048036038101906101a19190611a66565b611796565b6040516101b3919061216c565b60405180910390f35b6101d660048036038101906101d19190612276565b6117d0565b005b8181600082826040516101ec929190612322565b908152602001604051809103902060060160009054906101000a900473ffffffffffffffffffffffffffffffffffffffff1673ffffffffffffffffffffffffffffffffffffffff163373ffffffffffffffffffffffffffffffffffffffff161461028b576040517f08c379a000000000000000000000000000000000000000000000000000000000815260040161028290612387565b60405180910390fd5b6000848460405161029d929190612322565b908152602001604051809103902060020160009054906101000a900460ff166102fb576040517f08c379a00000000000000000000000000000000000000000000000000000000081526004016102f2906123f3565b60405180910390fd5b600060025460008686604051610312929190612322565b90815260200160405180910390206001015461032e9190612442565b426103399190612484565b9050806000868660405161034e929190612322565b9081526020016040518091039020600301819055507f7e91cac5faa08a2bbcaaef70c65da452d7f73532d88ed580c107c08191db6fd0858583604051610396939291906124e5565b60405180910390a15050505050565b6060600083836040516103b9929190612322565b908152602001604051809103902060020160009054906101000a900460ff16156105e157600083836040516103ef929190612322565b9081526020016040518091039020600801805480602002602001604051908101604052809291908181526020016000905b828210156105d657838290600052602060002090600402016040518060800160405290816000820160009054906101000a900473ffffffffffffffffffffffffffffffffffffffff1673ffffffffffffffffffffffffffffffffffffffff1673ffffffffffffffffffffffffffffffffffffffff1681526020016001820180546104a990612546565b80601f01602080910402602001604051908101604052809291908181526020018280546104d590612546565b80156105225780601f106104f757610100808354040283529160200191610522565b820191906000526020600020905b81548152906001019060200180831161050557829003601f168201915b5050505050815260200160028201805461053b90612546565b80601f016020809104026020016040519081016040528092919081815260200182805461056790612546565b80156105b45780601f10610589576101008083540402835291602001916105b4565b820191906000526020600020905b81548152906001019060200180831161059757829003601f168201915b5050505050815260200160038201548152505081526020019060010190610420565b505050509050610639565b600067ffffffffffffffff8111156105fc576105fb611d71565b5b60405190808252806020026020018201604052801561063557816020015b6106226119af565b81526020019060019003908161061a5790505b5090505b92915050565b60008484604051610651929190612322565b9081526020016040518091039020600301544211156106a5576040517f08c379a000000000000000000000000000000000000000000000000000000000815260040161069c906125c3565b60405180910390fd5b7f02c6188cd57a0b3c5f8159e25b2ff452afdf33041e0b4728fe1729828c400ed984843385856040516106dc9594939291906125e3565b60405180910390a150505050565b60008180516020810182018051848252602083016020850120818352809550505050505060009150905080600001805461072390612546565b80601f016020809104026020016040519081016040528092919081815260200182805461074f90612546565b801561079c5780601f106107715761010080835404028352916020019161079c565b820191906000526020600020905b81548152906001019060200180831161077f57829003601f168201915b5050505050908060010154908060020160009054906101000a900460ff16908060030154908060040154908060050154908060060160009054906101000a900473ffffffffffffffffffffffffffffffffffffffff16908060060160149054906101000a9004600b0b908060070160009054906101000a9004600b0b905089565b6000868660405161082f929190612322565b908152602001604051809103902060020160009054906101000a900460ff1661088d576040517f08c379a0000000000000000000000000000000000000000000000000000000008152600401610884906123f3565b60405180910390fd5b60005b600087876040516108a2929190612322565b9081526020016040518091039020600801805490508110156109a5573373ffffffffffffffffffffffffffffffffffffffff16600088886040516108e7929190612322565b9081526020016040518091039020600801828154811061090a5761090961262c565b5b906000526020600020906004020160000160009054906101000a900473ffffffffffffffffffffffffffffffffffffffff1673ffffffffffffffffffffffffffffffffffffffff1603610992576040517f08c379a0000000000000000000000000000000000000000000000000000000008152600401610989906126a7565b60405180910390fd5b808061099d906126c7565b915050610890565b50600086866040516109b8929190612322565b908152602001604051809103902060080160405180608001604052803373ffffffffffffffffffffffffffffffffffffffff16815260200186868080601f016020809104026020016040519081016040528093929190818152602001838380828437600081840152601f19601f82011690508083019250505050505050815260200184848080601f016020809104026020016040519081016040528093929190818152602001838380828437600081840152601f19601f82011690508083019250505050505050815260200160008989604051610a96929190612322565b908152602001604051809103902060050154815250908060018154018082558091505060019003906000526020600020906004020160009091909190915060008201518160000160006101000a81548173ffffffffffffffffffffffffffffffffffffffff021916908373ffffffffffffffffffffffffffffffffffffffff1602179055506020820151816001019081610b3091906128bb565b506040820151816002019081610b4691906128bb565b5060608201518160030155505060008686604051610b65929190612322565b908152602001604051809103902060050154600160009054906101000a900473ffffffffffffffffffffffffffffffffffffffff1673ffffffffffffffffffffffffffffffffffffffff1663dd62ed3e33306040518363ffffffff1660e01b8152600401610bd492919061298d565b602060405180830381865afa158015610bf1573d6000803e3d6000fd5b505050506040513d601f19601f82011682018060405250810190610c1591906129cb565b1015610c56576040517f08c379a0000000000000000000000000000000000000000000000000000000008152600401610c4d90612a44565b60405180910390fd5b600160009054906101000a900473ffffffffffffffffffffffffffffffffffffffff1673ffffffffffffffffffffffffffffffffffffffff166323b872dd333060008a8a604051610ca8929190612322565b9081526020016040518091039020600501546040518463ffffffff1660e01b8152600401610cd893929190612a64565b6020604051808303816000875af1158015610cf7573d6000803e3d6000fd5b505050506040513d601f19601f82011682018060405250810190610d1b9190612ac7565b610d5a576040517f08c379a0000000000000000000000000000000000000000000000000000000008152600401610d5190612b40565b60405180910390fd5b60008686604051610d6c929190612322565b9081526020016040518091039020600601601481819054906101000a9004600b0b80929190610d9a90612b60565b91906101000a8154816bffffffffffffffffffffffff0219169083600b0b6bffffffffffffffffffffffff1602179055505060008686604051610dde929190612322565b90815260200160405180910390206005015460008787604051610e02929190612322565b90815260200160405180910390206004016000828254610e229190612484565b925050819055507fa565c964821cebff69ed2469d1abe4b269a24aa9a0b0dbaec994b95eff553c46868633604051610e5c93929190612b94565b60405180910390a1505050505050565b60008484604051610e7e929190612322565b908152602001604051809103902060020160009054906101000a900460ff1615610edd576040517f08c379a0000000000000000000000000000000000000000000000000000000008152600401610ed490612c12565b60405180910390fd5b838360008686604051610ef1929190612322565b90815260200160405180910390206000019182610f0f929190612c3d565b508160008585604051610f23929190612322565b908152602001604051809103902060010181905550600160008585604051610f4c929190612322565b908152602001604051809103902060020160006101000a81548160ff0219169083151502179055503360008585604051610f87929190612322565b908152602001604051809103902060060160006101000a81548173ffffffffffffffffffffffffffffffffffffffff021916908373ffffffffffffffffffffffffffffffffffffffff1602179055508060008585604051610fe9929190612322565b9081526020016040518091039020600501819055507fb4082bf161f07af2ff5aed9b78e2cb1baf973ed4f2cc2e6e8e81a46752cc3345848460405161102f929190612d0d565b60405180910390a150505050565b6000828260405161104f929190612322565b908152602001604051809103902060020160009054906101000a900460ff166110ad576040517f08c379a00000000000000000000000000000000000000000000000000000000081526004016110a4906123f3565b60405180910390fd5b60008083836040516110c0929190612322565b90815260200160405180910390206003015403611112576040517f08c379a000000000000000000000000000000000000000000000000000000000815260040161110990612d7d565b60405180910390fd5b4260008383604051611125929190612322565b9081526020016040518091039020600301541115611178576040517f08c379a000000000000000000000000000000000000000000000000000000000815260040161116f90612de9565b60405180910390fd5b6000828260405161118a929190612322565b908152602001604051809103902060070160009054906101000a9004600b0b600b0b600083836040516111be929190612322565b908152602001604051809103902060060160149054906101000a9004600b0b600b0b1315611221576040517f08c379a000000000000000000000000000000000000000000000000000000000815260040161121890612e55565b60405180910390fd5b6000805b60008484604051611237929190612322565b908152602001604051809103902060080180549050811015611381576000808585604051611266929190612322565b908152602001604051809103902060080182815481106112895761128861262c565b5b906000526020600020906004020160000160009054906101000a900473ffffffffffffffffffffffffffffffffffffffff16905060006002600087876040516112d3929190612322565b908152602001604051809103902060090160008473ffffffffffffffffffffffffffffffffffffffff1673ffffffffffffffffffffffffffffffffffffffff1681526020019081526020016000205461132c9190612442565b905060008686604051611340929190612322565b90815260200160405180910390206008018054905081101561136c576001846113699190612484565b93505b50508080611379906126c7565b915050611225565b5060008167ffffffffffffffff81111561139e5761139d611d71565b5b6040519080825280602002602001820160405280156113cc5781602001602082028036833780820191505090505b5090506000805b600086866040516113e5929190612322565b90815260200160405180910390206008018054905081101561157d576000808787604051611414929190612322565b908152602001604051809103902060080182815481106114375761143661262c565b5b906000526020600020906004020160000160009054906101000a900473ffffffffffffffffffffffffffffffffffffffff1690506000600260008989604051611481929190612322565b908152602001604051809103902060090160008473ffffffffffffffffffffffffffffffffffffffff1673ffffffffffffffffffffffffffffffffffffffff168152602001908152602001600020546114da9190612442565b9050600088886040516114ee929190612322565b908152602001604051809103902060080180549050811015611568578185858151811061151e5761151d61262c565b5b602002602001019073ffffffffffffffffffffffffffffffffffffffff16908173ffffffffffffffffffffffffffffffffffffffff16815250506001846115659190612484565b93505b50508080611575906126c7565b9150506113d3565b5060008083518261158e9190612ea4565b905060005b845181101561175157600185516115aa9190612ed5565b810361167257600160009054906101000a900473ffffffffffffffffffffffffffffffffffffffff1673ffffffffffffffffffffffffffffffffffffffff166323b872dd308784815181106116025761160161262c565b5b6020026020010151866040518463ffffffff1660e01b815260040161162993929190612a64565b6020604051808303816000875af1158015611648573d6000803e3d6000fd5b505050506040513d601f19601f8201168201806040525081019061166c9190612ac7565b50611730565b600160009054906101000a900473ffffffffffffffffffffffffffffffffffffffff1673ffffffffffffffffffffffffffffffffffffffff166323b872dd308784815181106116c4576116c361262c565b5b6020026020010151856040518463ffffffff1660e01b81526004016116eb93929190612a64565b6020604051808303816000875af115801561170a573d6000803e3d6000fd5b505050506040513d601f19601f8201168201806040525081019061172e9190612ac7565b505b818361173c9190612ed5565b92508080611749906126c7565b915050611593565b507f6ef731bc401f8c1c7c1d45efe1031a96e3827e457aa5a9f9e030c89accbf1ad487878660405161178593929190612fb8565b60405180910390a150505050505050565b60008083836040516117a9929190612322565b908152602001604051809103902060020160009054906101000a900460ff16905092915050565b600083836040516117e2929190612322565b908152602001604051809103902060020160009054906101000a900460ff16611840576040517f08c379a0000000000000000000000000000000000000000000000000000000008152600401611837906123f3565b60405180910390fd5b6000815111156118fd5760005b81518110156118fb5760016000858560405161186a929190612322565b908152602001604051809103902060090160008484815181106118905761188f61262c565b5b602002602001015173ffffffffffffffffffffffffffffffffffffffff1673ffffffffffffffffffffffffffffffffffffffff16815260200190815260200160002060008282546118e19190612484565b9250508190555080806118f3906126c7565b91505061184d565b505b6000838360405161190f929190612322565b9081526020016040518091039020600701600081819054906101000a9004600b0b8092919061193d90612b60565b91906101000a8154816bffffffffffffffffffffffff0219169083600b0b6bffffffffffffffffffffffff160217905550507f7b96772c86a9be9298551262ba509e4a7b0c1cdf17c281c4c5f52fd3668fbe0f8383336040516119a293929190612b94565b60405180910390a1505050565b6040518060800160405280600073ffffffffffffffffffffffffffffffffffffffff1681526020016060815260200160608152602001600081525090565b6000604051905090565b600080fd5b600080fd5b600080fd5b600080fd5b600080fd5b60008083601f840112611a2657611a25611a01565b5b8235905067ffffffffffffffff811115611a4357611a42611a06565b5b602083019150836001820283011115611a5f57611a5e611a0b565b5b9250929050565b60008060208385031215611a7d57611a7c6119f7565b5b600083013567ffffffffffffffff811115611a9b57611a9a6119fc565b5b611aa785828601611a10565b92509250509250929050565b600081519050919050565b600082825260208201905092915050565b6000819050602082019050919050565b600073ffffffffffffffffffffffffffffffffffffffff82169050919050565b6000611b0a82611adf565b9050919050565b611b1a81611aff565b82525050565b600081519050919050565b600082825260208201905092915050565b60005b83811015611b5a578082015181840152602081019050611b3f565b60008484015250505050565b6000601f19601f8301169050919050565b6000611b8282611b20565b611b8c8185611b2b565b9350611b9c818560208601611b3c565b611ba581611b66565b840191505092915050565b6000819050919050565b611bc381611bb0565b82525050565b6000608083016000830151611be16000860182611b11565b5060208301518482036020860152611bf98282611b77565b91505060408301518482036040860152611c138282611b77565b9150506060830151611c286060860182611bba565b508091505092915050565b6000611c3f8383611bc9565b905092915050565b6000602082019050919050565b6000611c5f82611ab3565b611c698185611abe565b935083602082028501611c7b85611acf565b8060005b85811015611cb75784840389528151611c988582611c33565b9450611ca383611c47565b925060208a01995050600181019050611c7f565b50829750879550505050505092915050565b60006020820190508181036000830152611ce38184611c54565b905092915050565b60008060008060408587031215611d0557611d046119f7565b5b600085013567ffffffffffffffff811115611d2357611d226119fc565b5b611d2f87828801611a10565b9450945050602085013567ffffffffffffffff811115611d5257611d516119fc565b5b611d5e87828801611a10565b925092505092959194509250565b600080fd5b7f4e487b7100000000000000000000000000000000000000000000000000000000600052604160045260246000fd5b611da982611b66565b810181811067ffffffffffffffff82111715611dc857611dc7611d71565b5b80604052505050565b6000611ddb6119ed565b9050611de78282611da0565b919050565b600067ffffffffffffffff821115611e0757611e06611d71565b5b611e1082611b66565b9050602081019050919050565b82818337600083830152505050565b6000611e3f611e3a84611dec565b611dd1565b905082815260208101848484011115611e5b57611e5a611d6c565b5b611e66848285611e1d565b509392505050565b600082601f830112611e8357611e82611a01565b5b8135611e93848260208601611e2c565b91505092915050565b600060208284031215611eb257611eb16119f7565b5b600082013567ffffffffffffffff811115611ed057611ecf6119fc565b5b611edc84828501611e6e565b91505092915050565b600082825260208201905092915050565b6000611f0182611b20565b611f0b8185611ee5565b9350611f1b818560208601611b3c565b611f2481611b66565b840191505092915050565b611f3881611bb0565b82525050565b60008115159050919050565b611f5381611f3e565b82525050565b611f6281611aff565b82525050565b600081600b0b9050919050565b611f7e81611f68565b82525050565b6000610120820190508181036000830152611f9f818c611ef6565b9050611fae602083018b611f2f565b611fbb604083018a611f4a565b611fc86060830189611f2f565b611fd56080830188611f2f565b611fe260a0830187611f2f565b611fef60c0830186611f59565b611ffc60e0830185611f75565b61200a610100830184611f75565b9a9950505050505050505050565b60008060008060008060608789031215612035576120346119f7565b5b600087013567ffffffffffffffff811115612053576120526119fc565b5b61205f89828a01611a10565b9650965050602087013567ffffffffffffffff811115612082576120816119fc565b5b61208e89828a01611a10565b9450945050604087013567ffffffffffffffff8111156120b1576120b06119fc565b5b6120bd89828a01611a10565b92509250509295509295509295565b6120d581611bb0565b81146120e057600080fd5b50565b6000813590506120f2816120cc565b92915050565b60008060008060608587031215612112576121116119f7565b5b600085013567ffffffffffffffff8111156121305761212f6119fc565b5b61213c87828801611a10565b9450945050602061214f878288016120e3565b9250506040612160878288016120e3565b91505092959194509250565b60006020820190506121816000830184611f4a565b92915050565b600067ffffffffffffffff8211156121a2576121a1611d71565b5b602082029050602081019050919050565b6121bc81611aff565b81146121c757600080fd5b50565b6000813590506121d9816121b3565b92915050565b60006121f26121ed84612187565b611dd1565b9050808382526020820190506020840283018581111561221557612214611a0b565b5b835b8181101561223e578061222a88826121ca565b845260208401935050602081019050612217565b5050509392505050565b600082601f83011261225d5761225c611a01565b5b813561226d8482602086016121df565b91505092915050565b60008060006040848603121561228f5761228e6119f7565b5b600084013567ffffffffffffffff8111156122ad576122ac6119fc565b5b6122b986828701611a10565b9350935050602084013567ffffffffffffffff8111156122dc576122db6119fc565b5b6122e886828701612248565b9150509250925092565b600081905092915050565b600061230983856122f2565b9350612316838584611e1d565b82840190509392505050565b600061232f8284866122fd565b91508190509392505050565b7f4f6e6c792067726f7570206f776e657200000000000000000000000000000000600082015250565b6000612371601083611ee5565b915061237c8261233b565b602082019050919050565b600060208201905081810360008301526123a081612364565b9050919050565b7f47726f757020646f6573206e6f74206578697374000000000000000000000000600082015250565b60006123dd601483611ee5565b91506123e8826123a7565b602082019050919050565b6000602082019050818103600083015261240c816123d0565b9050919050565b7f4e487b7100000000000000000000000000000000000000000000000000000000600052601160045260246000fd5b600061244d82611bb0565b915061245883611bb0565b925082820261246681611bb0565b9150828204841483151761247d5761247c612413565b5b5092915050565b600061248f82611bb0565b915061249a83611bb0565b92508282019050808211156124b2576124b1612413565b5b92915050565b60006124c48385611ee5565b93506124d1838584611e1d565b6124da83611b66565b840190509392505050565b600060408201905081810360008301526125008185876124b8565b905061250f6020830184611f2f565b949350505050565b7f4e487b7100000000000000000000000000000000000000000000000000000000600052602260045260246000fd5b6000600282049050600182168061255e57607f821691505b60208210810361257157612570612517565b5b50919050565b7f47726f7570206578706972656400000000000000000000000000000000000000600082015250565b60006125ad600d83611ee5565b91506125b882612577565b602082019050919050565b600060208201905081810360008301526125dc816125a0565b9050919050565b600060608201905081810360008301526125fe8187896124b8565b905061260d6020830186611f59565b81810360408301526126208184866124b8565b90509695505050505050565b7f4e487b7100000000000000000000000000000000000000000000000000000000600052603260045260246000fd5b7f416c7265616479207374616b6564000000000000000000000000000000000000600082015250565b6000612691600e83611ee5565b915061269c8261265b565b602082019050919050565b600060208201905081810360008301526126c081612684565b9050919050565b60006126d282611bb0565b91507fffffffffffffffffffffffffffffffffffffffffffffffffffffffffffffffff820361270457612703612413565b5b600182019050919050565b60008190508160005260206000209050919050565b60006020601f8301049050919050565b600082821b905092915050565b6000600883026127717fffffffffffffffffffffffffffffffffffffffffffffffffffffffffffffffff82612734565b61277b8683612734565b95508019841693508086168417925050509392505050565b6000819050919050565b60006127b86127b36127ae84611bb0565b612793565b611bb0565b9050919050565b6000819050919050565b6127d28361279d565b6127e66127de826127bf565b848454612741565b825550505050565b600090565b6127fb6127ee565b6128068184846127c9565b505050565b5b8181101561282a5761281f6000826127f3565b60018101905061280c565b5050565b601f82111561286f576128408161270f565b61284984612724565b81016020851015612858578190505b61286c61286485612724565b83018261280b565b50505b505050565b600082821c905092915050565b600061289260001984600802612874565b1980831691505092915050565b60006128ab8383612881565b9150826002028217905092915050565b6128c482611b20565b67ffffffffffffffff8111156128dd576128dc611d71565b5b6128e78254612546565b6128f282828561282e565b600060209050601f8311600181146129255760008415612913578287015190505b61291d858261289f565b865550612985565b601f1984166129338661270f565b60005b8281101561295b57848901518255600182019150602085019450602081019050612936565b868310156129785784890151612974601f891682612881565b8355505b6001600288020188555050505b505050505050565b60006040820190506129a26000830185611f59565b6129af6020830184611f59565b9392505050565b6000815190506129c5816120cc565b92915050565b6000602082840312156129e1576129e06119f7565b5b60006129ef848285016129b6565b91505092915050565b7f455243323020616c6c6f77616e636520697320746f6f20736d616c6c00000000600082015250565b6000612a2e601c83611ee5565b9150612a39826129f8565b602082019050919050565b60006020820190508181036000830152612a5d81612a21565b9050919050565b6000606082019050612a796000830186611f59565b612a866020830185611f59565b612a936040830184611f2f565b949350505050565b612aa481611f3e565b8114612aaf57600080fd5b50565b600081519050612ac181612a9b565b92915050565b600060208284031215612add57612adc6119f7565b5b6000612aeb84828501612ab2565b91505092915050565b7f4552433230207472616e73666572206661696c65640000000000000000000000600082015250565b6000612b2a601583611ee5565b9150612b3582612af4565b602082019050919050565b60006020820190508181036000830152612b5981612b1d565b9050919050565b6000612b6b82611f68565b91506b7fffffffffffffffffffffff8203612b8957612b88612413565b5b600182019050919050565b60006040820190508181036000830152612baf8185876124b8565b9050612bbe6020830184611f59565b949350505050565b7f47726f757020616c726561647920657869737473000000000000000000000000600082015250565b6000612bfc601483611ee5565b9150612c0782612bc6565b602082019050919050565b60006020820190508181036000830152612c2b81612bef565b9050919050565b600082905092915050565b612c478383612c32565b67ffffffffffffffff811115612c6057612c5f611d71565b5b612c6a8254612546565b612c7582828561282e565b6000601f831160018114612ca45760008415612c92578287013590505b612c9c858261289f565b865550612d04565b601f198416612cb28661270f565b60005b82811015612cda57848901358255600182019150602085019450602081019050612cb5565b86831015612cf75784890135612cf3601f891682612881565b8355505b6001600288020188555050505b50505050505050565b60006020820190508181036000830152612d288184866124b8565b90509392505050565b7f47726f757020776173206e6f7420737461727465640000000000000000000000600082015250565b6000612d67601583611ee5565b9150612d7282612d31565b602082019050919050565b60006020820190508181036000830152612d9681612d5a565b9050919050565b7f47726f757020686173206e6f7420657870697265642079657400000000000000600082015250565b6000612dd3601983611ee5565b9150612dde82612d9d565b602082019050919050565b60006020820190508181036000830152612e0281612dc6565b9050919050565b7f4e6f74206576657279626f64792068617320766f746564000000000000000000600082015250565b6000612e3f601783611ee5565b9150612e4a82612e09565b602082019050919050565b60006020820190508181036000830152612e6e81612e32565b9050919050565b7f4e487b7100000000000000000000000000000000000000000000000000000000600052601260045260246000fd5b6000612eaf82611bb0565b9150612eba83611bb0565b925082612eca57612ec9612e75565b5b828204905092915050565b6000612ee082611bb0565b9150612eeb83611bb0565b9250828203905081811115612f0357612f02612413565b5b92915050565b600081519050919050565b600082825260208201905092915050565b6000819050602082019050919050565b6000612f418383611b11565b60208301905092915050565b6000602082019050919050565b6000612f6582612f09565b612f6f8185612f14565b9350612f7a83612f25565b8060005b83811015612fab578151612f928882612f35565b9750612f9d83612f4d565b925050600181019050612f7e565b5085935050505092915050565b60006040820190508181036000830152612fd38185876124b8565b90508181036020830152612fe78184612f5a565b905094935050505056fea2646970667358221220352c9ac1ff8091a98e4378f09c2f8d1e93162251ab80012ec02b65848aad153464736f6c63430008140033",
  "linkReferences": {},
  "deployedLinkReferences": {}
}