{
  "_format": "hh-sol-artifact-1",
  "contractName": "Goals",
  "sourceName": "contracts/Goals.sol",
  "abi": [
    {
      "inputs": [
        {
          "internalType": "contract IERC20",
          "name": "_stakingToken",
          "type": "address"
        },
        {
          "internalType": "uint256",
          "name": "_granularity",
          "type": "uint256"
        }
      ],
      "stateMutability": "nonpayable",
      "type": "constructor"
    },
    {
      "anonymous": false,
      "inputs": [
        {
          "indexed": false,
          "internalType": "string",
          "name": "groupName",
          "type": "string"
        }
      ],
      "name": "GroupCreated",
      "type": "event"
    },
    {
      "anonymous": false,
      "inputs": [
        {
          "indexed": false,
          "internalType": "string",
          "name": "groupName",
          "type": "string"
        },
        {
          "indexed": false,
          "internalType": "address[]",
          "name": "eligible",
          "type": "address[]"
        }
      ],
      "name": "GroupDistributed",
      "type": "event"
    },
    {
      "anonymous": false,
      "inputs": [
        {
          "indexed": false,
          "internalType": "string",
          "name": "groupName",
          "type": "string"
        },
        {
          "indexed": false,
          "internalType": "address",
          "name": "member",
          "type": "address"
        }
      ],
      "name": "GroupJoined",
      "type": "event"
    },
    {
      "anonymous": false,
      "inputs": [
        {
          "indexed": false,
          "internalType": "string",
          "name": "groupName",
          "type": "string"
        },
        {
          "indexed": false,
          "internalType": "uint256",
          "name": "endTime",
          "type": "uint256"
        }
      ],
      "name": "GroupStarted",
      "type": "event"
    },
    {
      "anonymous": false,
      "inputs": [
        {
          "indexed": false,
          "internalType": "string",
          "name": "groupName",
          "type": "string"
        },
        {
          "indexed": false,
          "internalType": "address",
          "name": "member",
          "type": "address"
        },
        {
          "indexed": false,
          "internalType": "string",
          "name": "proof",
          "type": "string"
        }
      ],
      "name": "ProofSubmitted",
      "type": "event"
    },
    {
      "anonymous": false,
      "inputs": [
        {
          "indexed": false,
          "internalType": "string",
          "name": "groupName",
          "type": "string"
        },
        {
          "indexed": false,
          "internalType": "address",
          "name": "member",
          "type": "address"
        }
      ],
      "name": "VoteSubmitted",
      "type": "event"
    },
    {
      "inputs": [
        {
          "internalType": "string",
          "name": "_groupName",
          "type": "string"
        },
        {
          "internalType": "uint256",
          "name": "_durationDays",
          "type": "uint256"
        },
        {
          "internalType": "uint256",
          "name": "_amount",
          "type": "uint256"
        }
      ],
      "name": "createGroup",
      "outputs": [],
      "stateMutability": "nonpayable",
      "type": "function"
    },
    {
      "inputs": [
        {
          "internalType": "string",
          "name": "_groupName",
          "type": "string"
        }
      ],
      "name": "distribute",
      "outputs": [],
      "stateMutability": "nonpayable",
      "type": "function"
    },
    {
      "inputs": [
        {
          "internalType": "string",
          "name": "_groupName",
          "type": "string"
        },
        {
          "internalType": "string",
          "name": "_goalTitle",
          "type": "string"
        },
        {
          "internalType": "string",
          "name": "_goalDescription",
          "type": "string"
        }
      ],
      "name": "joinGroup",
      "outputs": [],
      "stateMutability": "nonpayable",
      "type": "function"
    },
    {
      "inputs": [
        {
          "internalType": "string",
          "name": "_groupName",
          "type": "string"
        }
      ],
      "name": "start",
      "outputs": [],
      "stateMutability": "nonpayable",
      "type": "function"
    },
    {
      "inputs": [
        {
          "internalType": "string",
          "name": "_groupName",
          "type": "string"
        },
        {
          "internalType": "string",
          "name": "_proof",
          "type": "string"
        }
      ],
      "name": "submitProof",
      "outputs": [],
      "stateMutability": "nonpayable",
      "type": "function"
    },
    {
      "inputs": [
        {
          "internalType": "string",
          "name": "_groupName",
          "type": "string"
        },
        {
          "internalType": "address[]",
          "name": "_vetoAddresses",
          "type": "address[]"
        }
      ],
      "name": "submitVetos",
      "outputs": [],
      "stateMutability": "nonpayable",
      "type": "function"
    }
  ],
  "bytecode": "0x60806040523480156200001157600080fd5b50604051620028ea380380620028ea833981810160405281019062000037919062000140565b81600160006101000a81548173ffffffffffffffffffffffffffffffffffffffff021916908373ffffffffffffffffffffffffffffffffffffffff16021790555080600281905550505062000187565b600080fd5b600073ffffffffffffffffffffffffffffffffffffffff82169050919050565b6000620000b9826200008c565b9050919050565b6000620000cd82620000ac565b9050919050565b620000df81620000c0565b8114620000eb57600080fd5b50565b600081519050620000ff81620000d4565b92915050565b6000819050919050565b6200011a8162000105565b81146200012657600080fd5b50565b6000815190506200013a816200010f565b92915050565b600080604083850312156200015a576200015962000087565b5b60006200016a85828601620000ee565b92505060206200017d8582860162000129565b9150509250929050565b61275380620001976000396000f3fe608060405234801561001057600080fd5b50600436106100625760003560e01c8063258e60b614610067578063605c967e146100835780636d620a331461009f5780636e01de30146100bb57806377e591fb146100d7578063fa778f44146100f3575b600080fd5b610081600480360381019061007c9190611558565b61010f565b005b61009d600480360381019061009891906115a5565b6102dc565b005b6100b960048036038101906100b49190611626565b610387565b005b6100d560048036038101906100d09190611710565b6109d6565b005b6100f160048036038101906100ec9190611558565b610ba7565b005b61010d60048036038101906101089190611931565b611300565b005b8181600082826040516101239291906119ec565b908152602001604051809103902060060160009054906101000a900473ffffffffffffffffffffffffffffffffffffffff1673ffffffffffffffffffffffffffffffffffffffff163373ffffffffffffffffffffffffffffffffffffffff16146101c2576040517f08c379a00000000000000000000000000000000000000000000000000000000081526004016101b990611a62565b60405180910390fd5b600084846040516101d49291906119ec565b908152602001604051809103902060020160009054906101000a900460ff16610232576040517f08c379a000000000000000000000000000000000000000000000000000000000815260040161022990611ace565b60405180910390fd5b6000600254600086866040516102499291906119ec565b9081526020016040518091039020600101546102659190611b1d565b426102709190611b5f565b905080600086866040516102859291906119ec565b9081526020016040518091039020600301819055507f7e91cac5faa08a2bbcaaef70c65da452d7f73532d88ed580c107c08191db6fd08585836040516102cd93929190611bcf565b60405180910390a15050505050565b600084846040516102ee9291906119ec565b908152602001604051809103902060030154421115610342576040517f08c379a000000000000000000000000000000000000000000000000000000000815260040161033990611c4d565b60405180910390fd5b7f02c6188cd57a0b3c5f8159e25b2ff452afdf33041e0b4728fe1729828c400ed98484338585604051610379959493929190611c7c565b60405180910390a150505050565b600086866040516103999291906119ec565b908152602001604051809103902060020160009054906101000a900460ff166103f7576040517f08c379a00000000000000000000000000000000000000000000000000000000081526004016103ee90611ace565b60405180910390fd5b60005b6000878760405161040c9291906119ec565b90815260200160405180910390206008018054905081101561050f573373ffffffffffffffffffffffffffffffffffffffff16600088886040516104519291906119ec565b9081526020016040518091039020600801828154811061047457610473611cc5565b5b906000526020600020906004020160000160009054906101000a900473ffffffffffffffffffffffffffffffffffffffff1673ffffffffffffffffffffffffffffffffffffffff16036104fc576040517f08c379a00000000000000000000000000000000000000000000000000000000081526004016104f390611d40565b60405180910390fd5b808061050790611d60565b9150506103fa565b50600086866040516105229291906119ec565b908152602001604051809103902060080160405180608001604052803373ffffffffffffffffffffffffffffffffffffffff16815260200186868080601f016020809104026020016040519081016040528093929190818152602001838380828437600081840152601f19601f82011690508083019250505050505050815260200184848080601f016020809104026020016040519081016040528093929190818152602001838380828437600081840152601f19601f820116905080830192505050505050508152602001600089896040516106009291906119ec565b908152602001604051809103902060050154815250908060018154018082558091505060019003906000526020600020906004020160009091909190915060008201518160000160006101000a81548173ffffffffffffffffffffffffffffffffffffffff021916908373ffffffffffffffffffffffffffffffffffffffff160217905550602082015181600101908161069a9190611fbf565b5060408201518160020190816106b09190611fbf565b50606082015181600301555050600086866040516106cf9291906119ec565b908152602001604051809103902060050154600160009054906101000a900473ffffffffffffffffffffffffffffffffffffffff1673ffffffffffffffffffffffffffffffffffffffff1663dd62ed3e33306040518363ffffffff1660e01b815260040161073e929190612091565b602060405180830381865afa15801561075b573d6000803e3d6000fd5b505050506040513d601f19601f8201168201806040525081019061077f91906120cf565b10156107c0576040517f08c379a00000000000000000000000000000000000000000000000000000000081526004016107b790612148565b60405180910390fd5b600160009054906101000a900473ffffffffffffffffffffffffffffffffffffffff1673ffffffffffffffffffffffffffffffffffffffff166323b872dd333060008a8a6040516108129291906119ec565b9081526020016040518091039020600501546040518463ffffffff1660e01b815260040161084293929190612168565b6020604051808303816000875af1158015610861573d6000803e3d6000fd5b505050506040513d601f19601f8201168201806040525081019061088591906121d7565b6108c4576040517f08c379a00000000000000000000000000000000000000000000000000000000081526004016108bb90612250565b60405180910390fd5b600086866040516108d69291906119ec565b9081526020016040518091039020600601601481819054906101000a9004600b0b809291906109049061227d565b91906101000a8154816bffffffffffffffffffffffff0219169083600b0b6bffffffffffffffffffffffff16021790555050600086866040516109489291906119ec565b9081526020016040518091039020600501546000878760405161096c9291906119ec565b9081526020016040518091039020600401600082825461098c9190611b5f565b925050819055507fa565c964821cebff69ed2469d1abe4b269a24aa9a0b0dbaec994b95eff553c468686336040516109c6939291906122b1565b60405180910390a1505050505050565b600084846040516109e89291906119ec565b908152602001604051809103902060020160009054906101000a900460ff1615610a47576040517f08c379a0000000000000000000000000000000000000000000000000000000008152600401610a3e9061232f565b60405180910390fd5b838360008686604051610a5b9291906119ec565b90815260200160405180910390206000019182610a7992919061235a565b508160008585604051610a8d9291906119ec565b908152602001604051809103902060010181905550600160008585604051610ab69291906119ec565b908152602001604051809103902060020160006101000a81548160ff0219169083151502179055503360008585604051610af19291906119ec565b908152602001604051809103902060060160006101000a81548173ffffffffffffffffffffffffffffffffffffffff021916908373ffffffffffffffffffffffffffffffffffffffff1602179055508060008585604051610b539291906119ec565b9081526020016040518091039020600501819055507fb4082bf161f07af2ff5aed9b78e2cb1baf973ed4f2cc2e6e8e81a46752cc33458484604051610b9992919061242a565b60405180910390a150505050565b60008282604051610bb99291906119ec565b908152602001604051809103902060020160009054906101000a900460ff16610c17576040517f08c379a0000000000000000000000000000000000000000000000000000000008152600401610c0e90611ace565b60405180910390fd5b6000808383604051610c2a9291906119ec565b90815260200160405180910390206003015403610c7c576040517f08c379a0000000000000000000000000000000000000000000000000000000008152600401610c739061249a565b60405180910390fd5b4260008383604051610c8f9291906119ec565b9081526020016040518091039020600301541115610ce2576040517f08c379a0000000000000000000000000000000000000000000000000000000008152600401610cd990612506565b60405180910390fd5b60008282604051610cf49291906119ec565b908152602001604051809103902060070160009054906101000a9004600b0b600b0b60008383604051610d289291906119ec565b908152602001604051809103902060060160149054906101000a9004600b0b600b0b1315610d8b576040517f08c379a0000000000000000000000000000000000000000000000000000000008152600401610d8290612572565b60405180910390fd5b6000805b60008484604051610da19291906119ec565b908152602001604051809103902060080180549050811015610eeb576000808585604051610dd09291906119ec565b90815260200160405180910390206008018281548110610df357610df2611cc5565b5b906000526020600020906004020160000160009054906101000a900473ffffffffffffffffffffffffffffffffffffffff1690506000600260008787604051610e3d9291906119ec565b908152602001604051809103902060090160008473ffffffffffffffffffffffffffffffffffffffff1673ffffffffffffffffffffffffffffffffffffffff16815260200190815260200160002054610e969190611b1d565b905060008686604051610eaa9291906119ec565b908152602001604051809103902060080180549050811015610ed657600184610ed39190611b5f565b93505b50508080610ee390611d60565b915050610d8f565b5060008167ffffffffffffffff811115610f0857610f07611795565b5b604051908082528060200260200182016040528015610f365781602001602082028036833780820191505090505b5090506000805b60008686604051610f4f9291906119ec565b9081526020016040518091039020600801805490508110156110e7576000808787604051610f7e9291906119ec565b90815260200160405180910390206008018281548110610fa157610fa0611cc5565b5b906000526020600020906004020160000160009054906101000a900473ffffffffffffffffffffffffffffffffffffffff1690506000600260008989604051610feb9291906119ec565b908152602001604051809103902060090160008473ffffffffffffffffffffffffffffffffffffffff1673ffffffffffffffffffffffffffffffffffffffff168152602001908152602001600020546110449190611b1d565b9050600088886040516110589291906119ec565b9081526020016040518091039020600801805490508110156110d2578185858151811061108857611087611cc5565b5b602002602001019073ffffffffffffffffffffffffffffffffffffffff16908173ffffffffffffffffffffffffffffffffffffffff16815250506001846110cf9190611b5f565b93505b505080806110df90611d60565b915050610f3d565b506000808351826110f891906125c1565b905060005b84518110156112bb576001855161111491906125f2565b81036111dc57600160009054906101000a900473ffffffffffffffffffffffffffffffffffffffff1673ffffffffffffffffffffffffffffffffffffffff166323b872dd3087848151811061116c5761116b611cc5565b5b6020026020010151866040518463ffffffff1660e01b815260040161119393929190612168565b6020604051808303816000875af11580156111b2573d6000803e3d6000fd5b505050506040513d601f19601f820116820180604052508101906111d691906121d7565b5061129a565b600160009054906101000a900473ffffffffffffffffffffffffffffffffffffffff1673ffffffffffffffffffffffffffffffffffffffff166323b872dd3087848151811061122e5761122d611cc5565b5b6020026020010151856040518463ffffffff1660e01b815260040161125593929190612168565b6020604051808303816000875af1158015611274573d6000803e3d6000fd5b505050506040513d601f19601f8201168201806040525081019061129891906121d7565b505b81836112a691906125f2565b925080806112b390611d60565b9150506110fd565b507f6ef731bc401f8c1c7c1d45efe1031a96e3827e457aa5a9f9e030c89accbf1ad48787866040516112ef939291906126e4565b60405180910390a150505050505050565b600083836040516113129291906119ec565b908152602001604051809103902060020160009054906101000a900460ff16611370576040517f08c379a000000000000000000000000000000000000000000000000000000000815260040161136790611ace565b60405180910390fd5b60008151111561142d5760005b815181101561142b5760016000858560405161139a9291906119ec565b908152602001604051809103902060090160008484815181106113c0576113bf611cc5565b5b602002602001015173ffffffffffffffffffffffffffffffffffffffff1673ffffffffffffffffffffffffffffffffffffffff16815260200190815260200160002060008282546114119190611b5f565b92505081905550808061142390611d60565b91505061137d565b505b6000838360405161143f9291906119ec565b9081526020016040518091039020600701600081819054906101000a9004600b0b8092919061146d9061227d565b91906101000a8154816bffffffffffffffffffffffff0219169083600b0b6bffffffffffffffffffffffff160217905550507f7b96772c86a9be9298551262ba509e4a7b0c1cdf17c281c4c5f52fd3668fbe0f8383336040516114d2939291906122b1565b60405180910390a1505050565b6000604051905090565b600080fd5b600080fd5b600080fd5b600080fd5b600080fd5b60008083601f840112611518576115176114f3565b5b8235905067ffffffffffffffff811115611535576115346114f8565b5b602083019150836001820283011115611551576115506114fd565b5b9250929050565b6000806020838503121561156f5761156e6114e9565b5b600083013567ffffffffffffffff81111561158d5761158c6114ee565b5b61159985828601611502565b92509250509250929050565b600080600080604085870312156115bf576115be6114e9565b5b600085013567ffffffffffffffff8111156115dd576115dc6114ee565b5b6115e987828801611502565b9450945050602085013567ffffffffffffffff81111561160c5761160b6114ee565b5b61161887828801611502565b925092505092959194509250565b60008060008060008060608789031215611643576116426114e9565b5b600087013567ffffffffffffffff811115611661576116606114ee565b5b61166d89828a01611502565b9650965050602087013567ffffffffffffffff8111156116905761168f6114ee565b5b61169c89828a01611502565b9450945050604087013567ffffffffffffffff8111156116bf576116be6114ee565b5b6116cb89828a01611502565b92509250509295509295509295565b6000819050919050565b6116ed816116da565b81146116f857600080fd5b50565b60008135905061170a816116e4565b92915050565b6000806000806060858703121561172a576117296114e9565b5b600085013567ffffffffffffffff811115611748576117476114ee565b5b61175487828801611502565b94509450506020611767878288016116fb565b9250506040611778878288016116fb565b91505092959194509250565b6000601f19601f8301169050919050565b7f4e487b7100000000000000000000000000000000000000000000000000000000600052604160045260246000fd5b6117cd82611784565b810181811067ffffffffffffffff821117156117ec576117eb611795565b5b80604052505050565b60006117ff6114df565b905061180b82826117c4565b919050565b600067ffffffffffffffff82111561182b5761182a611795565b5b602082029050602081019050919050565b600073ffffffffffffffffffffffffffffffffffffffff82169050919050565b60006118678261183c565b9050919050565b6118778161185c565b811461188257600080fd5b50565b6000813590506118948161186e565b92915050565b60006118ad6118a884611810565b6117f5565b905080838252602082019050602084028301858111156118d0576118cf6114fd565b5b835b818110156118f957806118e58882611885565b8452602084019350506020810190506118d2565b5050509392505050565b600082601f830112611918576119176114f3565b5b813561192884826020860161189a565b91505092915050565b60008060006040848603121561194a576119496114e9565b5b600084013567ffffffffffffffff811115611968576119676114ee565b5b61197486828701611502565b9350935050602084013567ffffffffffffffff811115611997576119966114ee565b5b6119a386828701611903565b9150509250925092565b600081905092915050565b82818337600083830152505050565b60006119d383856119ad565b93506119e08385846119b8565b82840190509392505050565b60006119f98284866119c7565b91508190509392505050565b600082825260208201905092915050565b7f4f6e6c792067726f7570206f776e657200000000000000000000000000000000600082015250565b6000611a4c601083611a05565b9150611a5782611a16565b602082019050919050565b60006020820190508181036000830152611a7b81611a3f565b9050919050565b7f47726f757020646f6573206e6f74206578697374000000000000000000000000600082015250565b6000611ab8601483611a05565b9150611ac382611a82565b602082019050919050565b60006020820190508181036000830152611ae781611aab565b9050919050565b7f4e487b7100000000000000000000000000000000000000000000000000000000600052601160045260246000fd5b6000611b28826116da565b9150611b33836116da565b9250828202611b41816116da565b91508282048414831517611b5857611b57611aee565b5b5092915050565b6000611b6a826116da565b9150611b75836116da565b9250828201905080821115611b8d57611b8c611aee565b5b92915050565b6000611b9f8385611a05565b9350611bac8385846119b8565b611bb583611784565b840190509392505050565b611bc9816116da565b82525050565b60006040820190508181036000830152611bea818587611b93565b9050611bf96020830184611bc0565b949350505050565b7f47726f7570206578706972656400000000000000000000000000000000000000600082015250565b6000611c37600d83611a05565b9150611c4282611c01565b602082019050919050565b60006020820190508181036000830152611c6681611c2a565b9050919050565b611c768161185c565b82525050565b60006060820190508181036000830152611c97818789611b93565b9050611ca66020830186611c6d565b8181036040830152611cb9818486611b93565b90509695505050505050565b7f4e487b7100000000000000000000000000000000000000000000000000000000600052603260045260246000fd5b7f416c7265616479207374616b6564000000000000000000000000000000000000600082015250565b6000611d2a600e83611a05565b9150611d3582611cf4565b602082019050919050565b60006020820190508181036000830152611d5981611d1d565b9050919050565b6000611d6b826116da565b91507fffffffffffffffffffffffffffffffffffffffffffffffffffffffffffffffff8203611d9d57611d9c611aee565b5b600182019050919050565b600081519050919050565b7f4e487b7100000000000000000000000000000000000000000000000000000000600052602260045260246000fd5b60006002820490506001821680611dfa57607f821691505b602082108103611e0d57611e0c611db3565b5b50919050565b60008190508160005260206000209050919050565b60006020601f8301049050919050565b600082821b905092915050565b600060088302611e757fffffffffffffffffffffffffffffffffffffffffffffffffffffffffffffffff82611e38565b611e7f8683611e38565b95508019841693508086168417925050509392505050565b6000819050919050565b6000611ebc611eb7611eb2846116da565b611e97565b6116da565b9050919050565b6000819050919050565b611ed683611ea1565b611eea611ee282611ec3565b848454611e45565b825550505050565b600090565b611eff611ef2565b611f0a818484611ecd565b505050565b5b81811015611f2e57611f23600082611ef7565b600181019050611f10565b5050565b601f821115611f7357611f4481611e13565b611f4d84611e28565b81016020851015611f5c578190505b611f70611f6885611e28565b830182611f0f565b50505b505050565b600082821c905092915050565b6000611f9660001984600802611f78565b1980831691505092915050565b6000611faf8383611f85565b9150826002028217905092915050565b611fc882611da8565b67ffffffffffffffff811115611fe157611fe0611795565b5b611feb8254611de2565b611ff6828285611f32565b600060209050601f8311600181146120295760008415612017578287015190505b6120218582611fa3565b865550612089565b601f19841661203786611e13565b60005b8281101561205f5784890151825560018201915060208501945060208101905061203a565b8683101561207c5784890151612078601f891682611f85565b8355505b6001600288020188555050505b505050505050565b60006040820190506120a66000830185611c6d565b6120b36020830184611c6d565b9392505050565b6000815190506120c9816116e4565b92915050565b6000602082840312156120e5576120e46114e9565b5b60006120f3848285016120ba565b91505092915050565b7f455243323020616c6c6f77616e636520697320746f6f20736d616c6c00000000600082015250565b6000612132601c83611a05565b915061213d826120fc565b602082019050919050565b6000602082019050818103600083015261216181612125565b9050919050565b600060608201905061217d6000830186611c6d565b61218a6020830185611c6d565b6121976040830184611bc0565b949350505050565b60008115159050919050565b6121b48161219f565b81146121bf57600080fd5b50565b6000815190506121d1816121ab565b92915050565b6000602082840312156121ed576121ec6114e9565b5b60006121fb848285016121c2565b91505092915050565b7f4552433230207472616e73666572206661696c65640000000000000000000000600082015250565b600061223a601583611a05565b915061224582612204565b602082019050919050565b600060208201905081810360008301526122698161222d565b9050919050565b600081600b0b9050919050565b600061228882612270565b91506b7fffffffffffffffffffffff82036122a6576122a5611aee565b5b600182019050919050565b600060408201905081810360008301526122cc818587611b93565b90506122db6020830184611c6d565b949350505050565b7f47726f757020616c726561647920657869737473000000000000000000000000600082015250565b6000612319601483611a05565b9150612324826122e3565b602082019050919050565b600060208201905081810360008301526123488161230c565b9050919050565b600082905092915050565b612364838361234f565b67ffffffffffffffff81111561237d5761237c611795565b5b6123878254611de2565b612392828285611f32565b6000601f8311600181146123c157600084156123af578287013590505b6123b98582611fa3565b865550612421565b601f1984166123cf86611e13565b60005b828110156123f7578489013582556001820191506020850194506020810190506123d2565b868310156124145784890135612410601f891682611f85565b8355505b6001600288020188555050505b50505050505050565b60006020820190508181036000830152612445818486611b93565b90509392505050565b7f47726f757020776173206e6f7420737461727465640000000000000000000000600082015250565b6000612484601583611a05565b915061248f8261244e565b602082019050919050565b600060208201905081810360008301526124b381612477565b9050919050565b7f47726f757020686173206e6f7420657870697265642079657400000000000000600082015250565b60006124f0601983611a05565b91506124fb826124ba565b602082019050919050565b6000602082019050818103600083015261251f816124e3565b9050919050565b7f4e6f74206576657279626f64792068617320766f746564000000000000000000600082015250565b600061255c601783611a05565b915061256782612526565b602082019050919050565b6000602082019050818103600083015261258b8161254f565b9050919050565b7f4e487b7100000000000000000000000000000000000000000000000000000000600052601260045260246000fd5b60006125cc826116da565b91506125d7836116da565b9250826125e7576125e6612592565b5b828204905092915050565b60006125fd826116da565b9150612608836116da565b92508282039050818111156126205761261f611aee565b5b92915050565b600081519050919050565b600082825260208201905092915050565b6000819050602082019050919050565b61265b8161185c565b82525050565b600061266d8383612652565b60208301905092915050565b6000602082019050919050565b600061269182612626565b61269b8185612631565b93506126a683612642565b8060005b838110156126d75781516126be8882612661565b97506126c983612679565b9250506001810190506126aa565b5085935050505092915050565b600060408201905081810360008301526126ff818587611b93565b905081810360208301526127138184612686565b905094935050505056fea264697066735822122089fe309cd96fe59d6e15acd909b1234246b66e544f5c5c12c852ebae4de0979c64736f6c63430008140033",
  "linkReferences": {},
  "deployedLinkReferences": {}
}