{
  "_format": "hh-sol-artifact-1",
  "contractName": "Goals",
  "sourceName": "contracts/Goals.sol",
  "abi": [
    {
      "inputs": [
        {
          "internalType": "contract IERC20",
          "name": "_stakingToken",
          "type": "address"
        },
        {
          "internalType": "uint256",
          "name": "_granularity",
          "type": "uint256"
        }
      ],
      "stateMutability": "nonpayable",
      "type": "constructor"
    },
    {
      "anonymous": false,
      "inputs": [
        {
          "indexed": false,
          "internalType": "string",
          "name": "groupName",
          "type": "string"
        }
      ],
      "name": "GroupCreated",
      "type": "event"
    },
    {
      "anonymous": false,
      "inputs": [
        {
          "indexed": false,
          "internalType": "string",
          "name": "groupName",
          "type": "string"
        },
        {
          "indexed": false,
          "internalType": "address[]",
          "name": "eligible",
          "type": "address[]"
        }
      ],
      "name": "GroupDistributed",
      "type": "event"
    },
    {
      "anonymous": false,
      "inputs": [
        {
          "indexed": false,
          "internalType": "string",
          "name": "groupName",
          "type": "string"
        },
        {
          "indexed": false,
          "internalType": "address",
          "name": "member",
          "type": "address"
        }
      ],
      "name": "GroupJoined",
      "type": "event"
    },
    {
      "anonymous": false,
      "inputs": [
        {
          "indexed": false,
          "internalType": "string",
          "name": "groupName",
          "type": "string"
        },
        {
          "indexed": false,
          "internalType": "uint256",
          "name": "endTime",
          "type": "uint256"
        }
      ],
      "name": "GroupStarted",
      "type": "event"
    },
    {
      "anonymous": false,
      "inputs": [
        {
          "indexed": false,
          "internalType": "string",
          "name": "groupName",
          "type": "string"
        },
        {
          "indexed": false,
          "internalType": "address",
          "name": "member",
          "type": "address"
        },
        {
          "indexed": false,
          "internalType": "string",
          "name": "proof",
          "type": "string"
        }
      ],
      "name": "ProofSubmitted",
      "type": "event"
    },
    {
      "anonymous": false,
      "inputs": [
        {
          "indexed": false,
          "internalType": "string",
          "name": "groupName",
          "type": "string"
        },
        {
          "indexed": false,
          "internalType": "address",
          "name": "member",
          "type": "address"
        }
      ],
      "name": "VoteSubmitted",
      "type": "event"
    },
    {
      "inputs": [
        {
          "internalType": "string",
          "name": "_groupName",
          "type": "string"
        },
        {
          "internalType": "uint256",
          "name": "_durationDays",
          "type": "uint256"
        },
        {
          "internalType": "uint256",
          "name": "_amount",
          "type": "uint256"
        }
      ],
      "name": "createGroup",
      "outputs": [],
      "stateMutability": "nonpayable",
      "type": "function"
    },
    {
      "inputs": [
        {
          "internalType": "string",
          "name": "_groupName",
          "type": "string"
        }
      ],
      "name": "distribute",
      "outputs": [],
      "stateMutability": "nonpayable",
      "type": "function"
    },
    {
      "inputs": [
        {
          "internalType": "string",
          "name": "_groupName",
          "type": "string"
        }
      ],
      "name": "getGroupOwner",
      "outputs": [
        {
          "internalType": "address",
          "name": "",
          "type": "address"
        }
      ],
      "stateMutability": "view",
      "type": "function"
    },
    {
      "inputs": [
        {
          "internalType": "string",
          "name": "_groupName",
          "type": "string"
        },
        {
          "internalType": "uint256",
          "name": "_index",
          "type": "uint256"
        }
      ],
      "name": "getMemberOfGroupByIndex",
      "outputs": [
        {
          "components": [
            {
              "internalType": "address",
              "name": "source",
              "type": "address"
            },
            {
              "internalType": "string",
              "name": "goalTitle",
              "type": "string"
            },
            {
              "internalType": "string",
              "name": "goalDescription",
              "type": "string"
            },
            {
              "internalType": "uint256",
              "name": "stake",
              "type": "uint256"
            }
          ],
          "internalType": "struct Goals.Stake",
          "name": "",
          "type": "tuple"
        }
      ],
      "stateMutability": "view",
      "type": "function"
    },
    {
      "inputs": [
        {
          "internalType": "string",
          "name": "_groupName",
          "type": "string"
        }
      ],
      "name": "getMembers",
      "outputs": [
        {
          "internalType": "address[]",
          "name": "",
          "type": "address[]"
        }
      ],
      "stateMutability": "view",
      "type": "function"
    },
    {
      "inputs": [
        {
          "internalType": "string",
          "name": "_groupName",
          "type": "string"
        },
        {
          "internalType": "uint256",
          "name": "_index",
          "type": "uint256"
        }
      ],
      "name": "getProofOfGroupByIndex",
      "outputs": [
        {
          "components": [
            {
              "internalType": "address",
              "name": "source",
              "type": "address"
            },
            {
              "internalType": "string",
              "name": "proof",
              "type": "string"
            }
          ],
          "internalType": "struct Goals.Proof",
          "name": "",
          "type": "tuple"
        }
      ],
      "stateMutability": "view",
      "type": "function"
    },
    {
      "inputs": [
        {
          "internalType": "string",
          "name": "_groupName",
          "type": "string"
        }
      ],
      "name": "getProofs",
      "outputs": [
        {
          "internalType": "address[]",
          "name": "",
          "type": "address[]"
        }
      ],
      "stateMutability": "view",
      "type": "function"
    },
    {
      "inputs": [
        {
          "internalType": "string",
          "name": "_groupName",
          "type": "string"
        }
      ],
      "name": "groupExists",
      "outputs": [
        {
          "internalType": "bool",
          "name": "",
          "type": "bool"
        }
      ],
      "stateMutability": "view",
      "type": "function"
    },
    {
      "inputs": [
        {
          "internalType": "string",
          "name": "",
          "type": "string"
        }
      ],
      "name": "groups",
      "outputs": [
        {
          "internalType": "string",
          "name": "groupName",
          "type": "string"
        },
        {
          "internalType": "uint256",
          "name": "durationDays",
          "type": "uint256"
        },
        {
          "internalType": "bool",
          "name": "isValue",
          "type": "bool"
        },
        {
          "internalType": "uint256",
          "name": "endTime",
          "type": "uint256"
        },
        {
          "internalType": "uint256",
          "name": "totalStake",
          "type": "uint256"
        },
        {
          "internalType": "uint256",
          "name": "baseAmount",
          "type": "uint256"
        },
        {
          "internalType": "address",
          "name": "groupOwner",
          "type": "address"
        },
        {
          "internalType": "int96",
          "name": "numberMembers",
          "type": "int96"
        },
        {
          "internalType": "int96",
          "name": "numberVotes",
          "type": "int96"
        }
      ],
      "stateMutability": "view",
      "type": "function"
    },
    {
      "inputs": [
        {
          "internalType": "string",
          "name": "_groupName",
          "type": "string"
        },
        {
          "internalType": "string",
          "name": "_goalTitle",
          "type": "string"
        },
        {
          "internalType": "string",
          "name": "_goalDescription",
          "type": "string"
        }
      ],
      "name": "joinGroup",
      "outputs": [],
      "stateMutability": "nonpayable",
      "type": "function"
    },
    {
      "inputs": [
        {
          "internalType": "string",
          "name": "_groupName",
          "type": "string"
        }
      ],
      "name": "start",
      "outputs": [],
      "stateMutability": "nonpayable",
      "type": "function"
    },
    {
      "inputs": [
        {
          "internalType": "string",
          "name": "_groupName",
          "type": "string"
        },
        {
          "internalType": "string",
          "name": "_proof",
          "type": "string"
        }
      ],
      "name": "submitProof",
      "outputs": [],
      "stateMutability": "nonpayable",
      "type": "function"
    },
    {
      "inputs": [
        {
          "internalType": "string",
          "name": "_groupName",
          "type": "string"
        },
        {
          "internalType": "address[]",
          "name": "_vetoAddresses",
          "type": "address[]"
        }
      ],
      "name": "submitVetos",
      "outputs": [],
      "stateMutability": "nonpayable",
      "type": "function"
    }
  ],
  "bytecode": "0x60806040523480156200001157600080fd5b5060405162003b4238038062003b42833981810160405281019062000037919062000140565b81600160006101000a81548173ffffffffffffffffffffffffffffffffffffffff021916908373ffffffffffffffffffffffffffffffffffffffff16021790555080600281905550505062000187565b600080fd5b600073ffffffffffffffffffffffffffffffffffffffff82169050919050565b6000620000b9826200008c565b9050919050565b6000620000cd82620000ac565b9050919050565b620000df81620000c0565b8114620000eb57600080fd5b50565b600081519050620000ff81620000d4565b92915050565b6000819050919050565b6200011a8162000105565b81146200012657600080fd5b50565b6000815190506200013a816200010f565b92915050565b600080604083850312156200015a576200015962000087565b5b60006200016a85828601620000ee565b92505060206200017d8582860162000129565b9150509250929050565b6139ab80620001976000396000f3fe608060405234801561001057600080fd5b50600436106100cf5760003560e01c806377e591fb1161008c578063b4e334f811610066578063b4e334f814610228578063c32880fd14610258578063cdd781e214610288578063fa778f44146102b8576100cf565b806377e591fb146101ac578063991782f2146101c85780639a8e1c55146101f8576100cf565b8063258e60b6146100d457806356250571146100f0578063605c967e146101205780636b52230b1461013c5780636d620a33146101745780636e01de3014610190575b600080fd5b6100ee60048036038101906100e991906123b0565b6102d4565b005b61010a600480360381019061010591906123b0565b6104a5565b60405161011791906124ed565b60405180910390f35b61013a6004803603810190610135919061250f565b610690565b005b610156600480360381019061015191906126d1565b6108c9565b60405161016b999897969594939291906127f8565b60405180910390f35b61018e6004803603810190610189919061288c565b6109fc565b005b6101aa60048036038101906101a5919061296c565b6110bf565b005b6101c660048036038101906101c191906123b0565b611290565b005b6101e260048036038101906101dd91906123b0565b6119ed565b6040516101ef91906124ed565b60405180910390f35b610212600480360381019061020d91906129e0565b611bd8565b60405161021f9190612ac7565b60405180910390f35b610242600480360381019061023d91906129e0565b611d93565b60405161024f9190612b62565b60405180910390f35b610272600480360381019061026d91906123b0565b611fea565b60405161027f9190612b84565b60405180910390f35b6102a2600480360381019061029d91906123b0565b6120ac565b6040516102af9190612b9f565b60405180910390f35b6102d260048036038101906102cd9190612ca9565b6120e6565b005b8181600082826040516102e8929190612d55565b908152602001604051809103902060060160009054906101000a900473ffffffffffffffffffffffffffffffffffffffff1673ffffffffffffffffffffffffffffffffffffffff163373ffffffffffffffffffffffffffffffffffffffff1614610387576040517f08c379a000000000000000000000000000000000000000000000000000000000815260040161037e90612dba565b60405180910390fd5b83836000828260405161039b929190612d55565b908152602001604051809103902060020160009054906101000a900460ff166103f9576040517f08c379a00000000000000000000000000000000000000000000000000000000081526004016103f090612e26565b60405180910390fd5b600060025460008888604051610410929190612d55565b90815260200160405180910390206001015461042c9190612e75565b426104379190612eb7565b9050806000888860405161044c929190612d55565b9081526020016040518091039020600301819055507f7e91cac5faa08a2bbcaaef70c65da452d7f73532d88ed580c107c08191db6fd087878360405161049493929190612f18565b60405180910390a150505050505050565b60608282600082826040516104bb929190612d55565b908152602001604051809103902060020160009054906101000a900460ff16610519576040517f08c379a000000000000000000000000000000000000000000000000000000000815260040161051090612e26565b60405180910390fd5b600080868660405161052c929190612d55565b90815260200160405180910390206008018054905067ffffffffffffffff81111561055a576105596125a6565b5b6040519080825280602002602001820160405280156105885781602001602082028036833780820191505090505b50905060005b600087876040516105a0929190612d55565b90815260200160405180910390206008018054905081101561068357600087876040516105ce929190612d55565b908152602001604051809103902060080181815481106105f1576105f0612f4a565b5b906000526020600020906004020160000160009054906101000a900473ffffffffffffffffffffffffffffffffffffffff1682828151811061063657610635612f4a565b5b602002602001019073ffffffffffffffffffffffffffffffffffffffff16908173ffffffffffffffffffffffffffffffffffffffff1681525050808061067b90612f79565b91505061058e565b5080935050505092915050565b8383600082826040516106a4929190612d55565b908152602001604051809103902060020160009054906101000a900460ff16610702576040517f08c379a00000000000000000000000000000000000000000000000000000000081526004016106f990612e26565b60405180910390fd5b60008686604051610714929190612d55565b908152602001604051809103902060030154421115610768576040517f08c379a000000000000000000000000000000000000000000000000000000000815260040161075f9061300d565b60405180910390fd5b6000868660405161077a929190612d55565b908152602001604051809103902060090160405180604001604052803373ffffffffffffffffffffffffffffffffffffffff16815260200186868080601f016020809104026020016040519081016040528093929190818152602001838380828437600081840152601f19601f82011690508083019250505050505050815250908060018154018082558091505060019003906000526020600020906002020160009091909190915060008201518160000160006101000a81548173ffffffffffffffffffffffffffffffffffffffff021916908373ffffffffffffffffffffffffffffffffffffffff160217905550602082015181600101908161087f9190613239565b5050507f02c6188cd57a0b3c5f8159e25b2ff452afdf33041e0b4728fe1729828c400ed986863387876040516108b995949392919061330b565b60405180910390a1505050505050565b6000818051602081018201805184825260208301602085012081835280955050505050506000915090508060000180546109029061305c565b80601f016020809104026020016040519081016040528092919081815260200182805461092e9061305c565b801561097b5780601f106109505761010080835404028352916020019161097b565b820191906000526020600020905b81548152906001019060200180831161095e57829003601f168201915b5050505050908060010154908060020160009054906101000a900460ff16908060030154908060040154908060050154908060060160009054906101000a900473ffffffffffffffffffffffffffffffffffffffff16908060060160149054906101000a9004600b0b908060070160009054906101000a9004600b0b905089565b858560008282604051610a10929190612d55565b908152602001604051809103902060020160009054906101000a900460ff16610a6e576040517f08c379a0000000000000000000000000000000000000000000000000000000008152600401610a6590612e26565b60405180910390fd5b60008888604051610a80929190612d55565b908152602001604051809103902060020160009054906101000a900460ff16610ade576040517f08c379a0000000000000000000000000000000000000000000000000000000008152600401610ad590612e26565b60405180910390fd5b60005b60008989604051610af3929190612d55565b908152602001604051809103902060080180549050811015610bf6573373ffffffffffffffffffffffffffffffffffffffff1660008a8a604051610b38929190612d55565b90815260200160405180910390206008018281548110610b5b57610b5a612f4a565b5b906000526020600020906004020160000160009054906101000a900473ffffffffffffffffffffffffffffffffffffffff1673ffffffffffffffffffffffffffffffffffffffff1603610be3576040517f08c379a0000000000000000000000000000000000000000000000000000000008152600401610bda906133a0565b60405180910390fd5b8080610bee90612f79565b915050610ae1565b5060008888604051610c09929190612d55565b908152602001604051809103902060080160405180608001604052803373ffffffffffffffffffffffffffffffffffffffff16815260200188888080601f016020809104026020016040519081016040528093929190818152602001838380828437600081840152601f19601f82011690508083019250505050505050815260200186868080601f016020809104026020016040519081016040528093929190818152602001838380828437600081840152601f19601f82011690508083019250505050505050815260200160008b8b604051610ce7929190612d55565b908152602001604051809103902060050154815250908060018154018082558091505060019003906000526020600020906004020160009091909190915060008201518160000160006101000a81548173ffffffffffffffffffffffffffffffffffffffff021916908373ffffffffffffffffffffffffffffffffffffffff1602179055506020820151816001019081610d819190613239565b506040820151816002019081610d979190613239565b5060608201518160030155505060008888604051610db6929190612d55565b908152602001604051809103902060050154600160009054906101000a900473ffffffffffffffffffffffffffffffffffffffff1673ffffffffffffffffffffffffffffffffffffffff1663dd62ed3e33306040518363ffffffff1660e01b8152600401610e259291906133c0565b602060405180830381865afa158015610e42573d6000803e3d6000fd5b505050506040513d601f19601f82011682018060405250810190610e6691906133fe565b1015610ea7576040517f08c379a0000000000000000000000000000000000000000000000000000000008152600401610e9e90613477565b60405180910390fd5b600160009054906101000a900473ffffffffffffffffffffffffffffffffffffffff1673ffffffffffffffffffffffffffffffffffffffff166323b872dd333060008c8c604051610ef9929190612d55565b9081526020016040518091039020600501546040518463ffffffff1660e01b8152600401610f2993929190613497565b6020604051808303816000875af1158015610f48573d6000803e3d6000fd5b505050506040513d601f19601f82011682018060405250810190610f6c91906134fa565b610fab576040517f08c379a0000000000000000000000000000000000000000000000000000000008152600401610fa290613573565b60405180910390fd5b60008888604051610fbd929190612d55565b9081526020016040518091039020600601601481819054906101000a9004600b0b80929190610feb90613593565b91906101000a8154816bffffffffffffffffffffffff0219169083600b0b6bffffffffffffffffffffffff160217905550506000888860405161102f929190612d55565b90815260200160405180910390206005015460008989604051611053929190612d55565b908152602001604051809103902060040160008282546110739190612eb7565b925050819055507fa565c964821cebff69ed2469d1abe4b269a24aa9a0b0dbaec994b95eff553c468888336040516110ad939291906135c7565b60405180910390a15050505050505050565b600084846040516110d1929190612d55565b908152602001604051809103902060020160009054906101000a900460ff1615611130576040517f08c379a000000000000000000000000000000000000000000000000000000000815260040161112790613645565b60405180910390fd5b838360008686604051611144929190612d55565b90815260200160405180910390206000019182611162929190613670565b508160008585604051611176929190612d55565b90815260200160405180910390206001018190555060016000858560405161119f929190612d55565b908152602001604051809103902060020160006101000a81548160ff02191690831515021790555033600085856040516111da929190612d55565b908152602001604051809103902060060160006101000a81548173ffffffffffffffffffffffffffffffffffffffff021916908373ffffffffffffffffffffffffffffffffffffffff160217905550806000858560405161123c929190612d55565b9081526020016040518091039020600501819055507fb4082bf161f07af2ff5aed9b78e2cb1baf973ed4f2cc2e6e8e81a46752cc33458484604051611282929190613740565b60405180910390a150505050565b8181600082826040516112a4929190612d55565b908152602001604051809103902060020160009054906101000a900460ff16611302576040517f08c379a00000000000000000000000000000000000000000000000000000000081526004016112f990612e26565b60405180910390fd5b6000808585604051611315929190612d55565b90815260200160405180910390206003015403611367576040517f08c379a000000000000000000000000000000000000000000000000000000000815260040161135e906137b0565b60405180910390fd5b426000858560405161137a929190612d55565b90815260200160405180910390206003015411156113cd576040517f08c379a00000000000000000000000000000000000000000000000000000000081526004016113c49061381c565b60405180910390fd5b600084846040516113df929190612d55565b908152602001604051809103902060070160009054906101000a9004600b0b600b0b60008585604051611413929190612d55565b908152602001604051809103902060060160149054906101000a9004600b0b600b0b1315611476576040517f08c379a000000000000000000000000000000000000000000000000000000000815260040161146d90613888565b60405180910390fd5b6000805b6000868660405161148c929190612d55565b9081526020016040518091039020600801805490508110156115d65760008087876040516114bb929190612d55565b908152602001604051809103902060080182815481106114de576114dd612f4a565b5b906000526020600020906004020160000160009054906101000a900473ffffffffffffffffffffffffffffffffffffffff1690506000600260008989604051611528929190612d55565b9081526020016040518091039020600a0160008473ffffffffffffffffffffffffffffffffffffffff1673ffffffffffffffffffffffffffffffffffffffff168152602001908152602001600020546115819190612e75565b905060008888604051611595929190612d55565b9081526020016040518091039020600801805490508110156115c1576001846115be9190612eb7565b93505b505080806115ce90612f79565b91505061147a565b5060008167ffffffffffffffff8111156115f3576115f26125a6565b5b6040519080825280602002602001820160405280156116215781602001602082028036833780820191505090505b5090506000805b6000888860405161163a929190612d55565b9081526020016040518091039020600801805490508110156117d2576000808989604051611669929190612d55565b9081526020016040518091039020600801828154811061168c5761168b612f4a565b5b906000526020600020906004020160000160009054906101000a900473ffffffffffffffffffffffffffffffffffffffff1690506000600260008b8b6040516116d6929190612d55565b9081526020016040518091039020600a0160008473ffffffffffffffffffffffffffffffffffffffff1673ffffffffffffffffffffffffffffffffffffffff1681526020019081526020016000205461172f9190612e75565b905060008a8a604051611743929190612d55565b9081526020016040518091039020600801805490508110156117bd578185858151811061177357611772612f4a565b5b602002602001019073ffffffffffffffffffffffffffffffffffffffff16908173ffffffffffffffffffffffffffffffffffffffff16815250506001846117ba9190612eb7565b93505b505080806117ca90612f79565b915050611628565b506000808351826117e391906138d7565b905060005b84518110156119a657600185516117ff9190613908565b81036118c757600160009054906101000a900473ffffffffffffffffffffffffffffffffffffffff1673ffffffffffffffffffffffffffffffffffffffff166323b872dd3087848151811061185757611856612f4a565b5b6020026020010151866040518463ffffffff1660e01b815260040161187e93929190613497565b6020604051808303816000875af115801561189d573d6000803e3d6000fd5b505050506040513d601f19601f820116820180604052508101906118c191906134fa565b50611985565b600160009054906101000a900473ffffffffffffffffffffffffffffffffffffffff1673ffffffffffffffffffffffffffffffffffffffff166323b872dd3087848151811061191957611918612f4a565b5b6020026020010151856040518463ffffffff1660e01b815260040161194093929190613497565b6020604051808303816000875af115801561195f573d6000803e3d6000fd5b505050506040513d601f19601f8201168201806040525081019061198391906134fa565b505b81836119919190613908565b9250808061199e90612f79565b9150506117e8565b507f6ef731bc401f8c1c7c1d45efe1031a96e3827e457aa5a9f9e030c89accbf1ad48989866040516119da9392919061393c565b60405180910390a1505050505050505050565b6060828260008282604051611a03929190612d55565b908152602001604051809103902060020160009054906101000a900460ff16611a61576040517f08c379a0000000000000000000000000000000000000000000000000000000008152600401611a5890612e26565b60405180910390fd5b6000808686604051611a74929190612d55565b90815260200160405180910390206009018054905067ffffffffffffffff811115611aa257611aa16125a6565b5b604051908082528060200260200182016040528015611ad05781602001602082028036833780820191505090505b50905060005b60008787604051611ae8929190612d55565b908152602001604051809103902060090180549050811015611bcb5760008787604051611b16929190612d55565b90815260200160405180910390206009018181548110611b3957611b38612f4a565b5b906000526020600020906002020160000160009054906101000a900473ffffffffffffffffffffffffffffffffffffffff16828281518110611b7e57611b7d612f4a565b5b602002602001019073ffffffffffffffffffffffffffffffffffffffff16908173ffffffffffffffffffffffffffffffffffffffff16815250508080611bc390612f79565b915050611ad6565b5080935050505092915050565b611be06122c9565b838360008282604051611bf4929190612d55565b908152602001604051809103902060020160009054906101000a900460ff16611c52576040517f08c379a0000000000000000000000000000000000000000000000000000000008152600401611c4990612e26565b60405180910390fd5b60008686604051611c64929190612d55565b90815260200160405180910390206009018481548110611c8757611c86612f4a565b5b90600052602060002090600202016040518060400160405290816000820160009054906101000a900473ffffffffffffffffffffffffffffffffffffffff1673ffffffffffffffffffffffffffffffffffffffff1673ffffffffffffffffffffffffffffffffffffffff168152602001600182018054611d069061305c565b80601f0160208091040260200160405190810160405280929190818152602001828054611d329061305c565b8015611d7f5780601f10611d5457610100808354040283529160200191611d7f565b820191906000526020600020905b815481529060010190602001808311611d6257829003601f168201915b505050505081525050925050509392505050565b611d9b6122f9565b838360008282604051611daf929190612d55565b908152602001604051809103902060020160009054906101000a900460ff16611e0d576040517f08c379a0000000000000000000000000000000000000000000000000000000008152600401611e0490612e26565b60405180910390fd5b60008686604051611e1f929190612d55565b90815260200160405180910390206008018481548110611e4257611e41612f4a565b5b90600052602060002090600402016040518060800160405290816000820160009054906101000a900473ffffffffffffffffffffffffffffffffffffffff1673ffffffffffffffffffffffffffffffffffffffff1673ffffffffffffffffffffffffffffffffffffffff168152602001600182018054611ec19061305c565b80601f0160208091040260200160405190810160405280929190818152602001828054611eed9061305c565b8015611f3a5780601f10611f0f57610100808354040283529160200191611f3a565b820191906000526020600020905b815481529060010190602001808311611f1d57829003601f168201915b50505050508152602001600282018054611f539061305c565b80601f0160208091040260200160405190810160405280929190818152602001828054611f7f9061305c565b8015611fcc5780601f10611fa157610100808354040283529160200191611fcc565b820191906000526020600020905b815481529060010190602001808311611faf57829003601f168201915b50505050508152602001600382015481525050925050509392505050565b6000828260008282604051612000929190612d55565b908152602001604051809103902060020160009054906101000a900460ff1661205e576040517f08c379a000000000000000000000000000000000000000000000000000000000815260040161205590612e26565b60405180910390fd5b60008585604051612070929190612d55565b908152602001604051809103902060060160009054906101000a900473ffffffffffffffffffffffffffffffffffffffff169250505092915050565b60008083836040516120bf929190612d55565b908152602001604051809103902060020160009054906101000a900460ff16905092915050565b8282600082826040516120fa929190612d55565b908152602001604051809103902060020160009054906101000a900460ff16612158576040517f08c379a000000000000000000000000000000000000000000000000000000000815260040161214f90612e26565b60405180910390fd5b6000835111156122155760005b835181101561221357600160008787604051612182929190612d55565b9081526020016040518091039020600a0160008684815181106121a8576121a7612f4a565b5b602002602001015173ffffffffffffffffffffffffffffffffffffffff1673ffffffffffffffffffffffffffffffffffffffff16815260200190815260200160002060008282546121f99190612eb7565b92505081905550808061220b90612f79565b915050612165565b505b60008585604051612227929190612d55565b9081526020016040518091039020600701600081819054906101000a9004600b0b8092919061225590613593565b91906101000a8154816bffffffffffffffffffffffff0219169083600b0b6bffffffffffffffffffffffff160217905550507f7b96772c86a9be9298551262ba509e4a7b0c1cdf17c281c4c5f52fd3668fbe0f8585336040516122ba939291906135c7565b60405180910390a15050505050565b6040518060400160405280600073ffffffffffffffffffffffffffffffffffffffff168152602001606081525090565b6040518060800160405280600073ffffffffffffffffffffffffffffffffffffffff1681526020016060815260200160608152602001600081525090565b6000604051905090565b600080fd5b600080fd5b600080fd5b600080fd5b600080fd5b60008083601f8401126123705761236f61234b565b5b8235905067ffffffffffffffff81111561238d5761238c612350565b5b6020830191508360018202830111156123a9576123a8612355565b5b9250929050565b600080602083850312156123c7576123c6612341565b5b600083013567ffffffffffffffff8111156123e5576123e4612346565b5b6123f18582860161235a565b92509250509250929050565b600081519050919050565b600082825260208201905092915050565b6000819050602082019050919050565b600073ffffffffffffffffffffffffffffffffffffffff82169050919050565b600061245482612429565b9050919050565b61246481612449565b82525050565b6000612476838361245b565b60208301905092915050565b6000602082019050919050565b600061249a826123fd565b6124a48185612408565b93506124af83612419565b8060005b838110156124e05781516124c7888261246a565b97506124d283612482565b9250506001810190506124b3565b5085935050505092915050565b60006020820190508181036000830152612507818461248f565b905092915050565b6000806000806040858703121561252957612528612341565b5b600085013567ffffffffffffffff81111561254757612546612346565b5b6125538782880161235a565b9450945050602085013567ffffffffffffffff81111561257657612575612346565b5b6125828782880161235a565b925092505092959194509250565b600080fd5b6000601f19601f8301169050919050565b7f4e487b7100000000000000000000000000000000000000000000000000000000600052604160045260246000fd5b6125de82612595565b810181811067ffffffffffffffff821117156125fd576125fc6125a6565b5b80604052505050565b6000612610612337565b905061261c82826125d5565b919050565b600067ffffffffffffffff82111561263c5761263b6125a6565b5b61264582612595565b9050602081019050919050565b82818337600083830152505050565b600061267461266f84612621565b612606565b9050828152602081018484840111156126905761268f612590565b5b61269b848285612652565b509392505050565b600082601f8301126126b8576126b761234b565b5b81356126c8848260208601612661565b91505092915050565b6000602082840312156126e7576126e6612341565b5b600082013567ffffffffffffffff81111561270557612704612346565b5b612711848285016126a3565b91505092915050565b600081519050919050565b600082825260208201905092915050565b60005b83811015612754578082015181840152602081019050612739565b60008484015250505050565b600061276b8261271a565b6127758185612725565b9350612785818560208601612736565b61278e81612595565b840191505092915050565b6000819050919050565b6127ac81612799565b82525050565b60008115159050919050565b6127c7816127b2565b82525050565b6127d681612449565b82525050565b600081600b0b9050919050565b6127f2816127dc565b82525050565b6000610120820190508181036000830152612813818c612760565b9050612822602083018b6127a3565b61282f604083018a6127be565b61283c60608301896127a3565b61284960808301886127a3565b61285660a08301876127a3565b61286360c08301866127cd565b61287060e08301856127e9565b61287e6101008301846127e9565b9a9950505050505050505050565b600080600080600080606087890312156128a9576128a8612341565b5b600087013567ffffffffffffffff8111156128c7576128c6612346565b5b6128d389828a0161235a565b9650965050602087013567ffffffffffffffff8111156128f6576128f5612346565b5b61290289828a0161235a565b9450945050604087013567ffffffffffffffff81111561292557612924612346565b5b61293189828a0161235a565b92509250509295509295509295565b61294981612799565b811461295457600080fd5b50565b60008135905061296681612940565b92915050565b6000806000806060858703121561298657612985612341565b5b600085013567ffffffffffffffff8111156129a4576129a3612346565b5b6129b08782880161235a565b945094505060206129c387828801612957565b92505060406129d487828801612957565b91505092959194509250565b6000806000604084860312156129f9576129f8612341565b5b600084013567ffffffffffffffff811115612a1757612a16612346565b5b612a238682870161235a565b93509350506020612a3686828701612957565b9150509250925092565b600082825260208201905092915050565b6000612a5c8261271a565b612a668185612a40565b9350612a76818560208601612736565b612a7f81612595565b840191505092915050565b6000604083016000830151612aa2600086018261245b565b5060208301518482036020860152612aba8282612a51565b9150508091505092915050565b60006020820190508181036000830152612ae18184612a8a565b905092915050565b612af281612799565b82525050565b6000608083016000830151612b10600086018261245b565b5060208301518482036020860152612b288282612a51565b91505060408301518482036040860152612b428282612a51565b9150506060830151612b576060860182612ae9565b508091505092915050565b60006020820190508181036000830152612b7c8184612af8565b905092915050565b6000602082019050612b9960008301846127cd565b92915050565b6000602082019050612bb460008301846127be565b92915050565b600067ffffffffffffffff821115612bd557612bd46125a6565b5b602082029050602081019050919050565b612bef81612449565b8114612bfa57600080fd5b50565b600081359050612c0c81612be6565b92915050565b6000612c25612c2084612bba565b612606565b90508083825260208201905060208402830185811115612c4857612c47612355565b5b835b81811015612c715780612c5d8882612bfd565b845260208401935050602081019050612c4a565b5050509392505050565b600082601f830112612c9057612c8f61234b565b5b8135612ca0848260208601612c12565b91505092915050565b600080600060408486031215612cc257612cc1612341565b5b600084013567ffffffffffffffff811115612ce057612cdf612346565b5b612cec8682870161235a565b9350935050602084013567ffffffffffffffff811115612d0f57612d0e612346565b5b612d1b86828701612c7b565b9150509250925092565b600081905092915050565b6000612d3c8385612d25565b9350612d49838584612652565b82840190509392505050565b6000612d62828486612d30565b91508190509392505050565b7f4f6e6c792067726f7570206f776e657200000000000000000000000000000000600082015250565b6000612da4601083612725565b9150612daf82612d6e565b602082019050919050565b60006020820190508181036000830152612dd381612d97565b9050919050565b7f47726f757020646f6573206e6f74206578697374000000000000000000000000600082015250565b6000612e10601483612725565b9150612e1b82612dda565b602082019050919050565b60006020820190508181036000830152612e3f81612e03565b9050919050565b7f4e487b7100000000000000000000000000000000000000000000000000000000600052601160045260246000fd5b6000612e8082612799565b9150612e8b83612799565b9250828202612e9981612799565b91508282048414831517612eb057612eaf612e46565b5b5092915050565b6000612ec282612799565b9150612ecd83612799565b9250828201905080821115612ee557612ee4612e46565b5b92915050565b6000612ef78385612725565b9350612f04838584612652565b612f0d83612595565b840190509392505050565b60006040820190508181036000830152612f33818587612eeb565b9050612f4260208301846127a3565b949350505050565b7f4e487b7100000000000000000000000000000000000000000000000000000000600052603260045260246000fd5b6000612f8482612799565b91507fffffffffffffffffffffffffffffffffffffffffffffffffffffffffffffffff8203612fb657612fb5612e46565b5b600182019050919050565b7f47726f7570206578706972656400000000000000000000000000000000000000600082015250565b6000612ff7600d83612725565b915061300282612fc1565b602082019050919050565b6000602082019050818103600083015261302681612fea565b9050919050565b7f4e487b7100000000000000000000000000000000000000000000000000000000600052602260045260246000fd5b6000600282049050600182168061307457607f821691505b6020821081036130875761308661302d565b5b50919050565b60008190508160005260206000209050919050565b60006020601f8301049050919050565b600082821b905092915050565b6000600883026130ef7fffffffffffffffffffffffffffffffffffffffffffffffffffffffffffffffff826130b2565b6130f986836130b2565b95508019841693508086168417925050509392505050565b6000819050919050565b600061313661313161312c84612799565b613111565b612799565b9050919050565b6000819050919050565b6131508361311b565b61316461315c8261313d565b8484546130bf565b825550505050565b600090565b61317961316c565b613184818484613147565b505050565b5b818110156131a85761319d600082613171565b60018101905061318a565b5050565b601f8211156131ed576131be8161308d565b6131c7846130a2565b810160208510156131d6578190505b6131ea6131e2856130a2565b830182613189565b50505b505050565b600082821c905092915050565b6000613210600019846008026131f2565b1980831691505092915050565b600061322983836131ff565b9150826002028217905092915050565b6132428261271a565b67ffffffffffffffff81111561325b5761325a6125a6565b5b613265825461305c565b6132708282856131ac565b600060209050601f8311600181146132a35760008415613291578287015190505b61329b858261321d565b865550613303565b601f1984166132b18661308d565b60005b828110156132d9578489015182556001820191506020850194506020810190506132b4565b868310156132f657848901516132f2601f8916826131ff565b8355505b6001600288020188555050505b505050505050565b60006060820190508181036000830152613326818789612eeb565b905061333560208301866127cd565b8181036040830152613348818486612eeb565b90509695505050505050565b7f416c7265616479207374616b6564000000000000000000000000000000000000600082015250565b600061338a600e83612725565b915061339582613354565b602082019050919050565b600060208201905081810360008301526133b98161337d565b9050919050565b60006040820190506133d560008301856127cd565b6133e260208301846127cd565b9392505050565b6000815190506133f881612940565b92915050565b60006020828403121561341457613413612341565b5b6000613422848285016133e9565b91505092915050565b7f455243323020616c6c6f77616e636520697320746f6f20736d616c6c00000000600082015250565b6000613461601c83612725565b915061346c8261342b565b602082019050919050565b6000602082019050818103600083015261349081613454565b9050919050565b60006060820190506134ac60008301866127cd565b6134b960208301856127cd565b6134c660408301846127a3565b949350505050565b6134d7816127b2565b81146134e257600080fd5b50565b6000815190506134f4816134ce565b92915050565b6000602082840312156135105761350f612341565b5b600061351e848285016134e5565b91505092915050565b7f4552433230207472616e73666572206661696c65640000000000000000000000600082015250565b600061355d601583612725565b915061356882613527565b602082019050919050565b6000602082019050818103600083015261358c81613550565b9050919050565b600061359e826127dc565b91506b7fffffffffffffffffffffff82036135bc576135bb612e46565b5b600182019050919050565b600060408201905081810360008301526135e2818587612eeb565b90506135f160208301846127cd565b949350505050565b7f47726f757020616c726561647920657869737473000000000000000000000000600082015250565b600061362f601483612725565b915061363a826135f9565b602082019050919050565b6000602082019050818103600083015261365e81613622565b9050919050565b600082905092915050565b61367a8383613665565b67ffffffffffffffff811115613693576136926125a6565b5b61369d825461305c565b6136a88282856131ac565b6000601f8311600181146136d757600084156136c5578287013590505b6136cf858261321d565b865550613737565b601f1984166136e58661308d565b60005b8281101561370d578489013582556001820191506020850194506020810190506136e8565b8683101561372a5784890135613726601f8916826131ff565b8355505b6001600288020188555050505b50505050505050565b6000602082019050818103600083015261375b818486612eeb565b90509392505050565b7f47726f757020776173206e6f7420737461727465640000000000000000000000600082015250565b600061379a601583612725565b91506137a582613764565b602082019050919050565b600060208201905081810360008301526137c98161378d565b9050919050565b7f47726f757020686173206e6f7420657870697265642079657400000000000000600082015250565b6000613806601983612725565b9150613811826137d0565b602082019050919050565b60006020820190508181036000830152613835816137f9565b9050919050565b7f4e6f74206576657279626f64792068617320766f746564000000000000000000600082015250565b6000613872601783612725565b915061387d8261383c565b602082019050919050565b600060208201905081810360008301526138a181613865565b9050919050565b7f4e487b7100000000000000000000000000000000000000000000000000000000600052601260045260246000fd5b60006138e282612799565b91506138ed83612799565b9250826138fd576138fc6138a8565b5b828204905092915050565b600061391382612799565b915061391e83612799565b925082820390508181111561393657613935612e46565b5b92915050565b60006040820190508181036000830152613957818587612eeb565b9050818103602083015261396b818461248f565b905094935050505056fea2646970667358221220c6bd73476561938c0ba4204ee93cf94ecb9ca995e9d34abe356a85c8a56d900564736f6c63430008140033",
  "linkReferences": {},
  "deployedLinkReferences": {}
}